{"contracts/CoFinance.sol":{"CoFinance":{"abi":[{"inputs":[{"internalType":"address","name":"_tokenA","type":"address"},{"internalType":"address","name":"_tokenB","type":"address"},{"internalType":"address","name":"_rewardToken","type":"address"},{"internalType":"address","name":"_priceFeed","type":"address"},{"internalType":"address","name":"_liquidityToken","type":"address"},{"internalType":"address","name":"_stakingContract","type":"address"},{"internalType":"bool","name":"_isPoolIncentivized","type":"bool"}],"stateMutability":"nonpayable","type":"constructor"},{"inputs":[{"internalType":"address","name":"target","type":"address"}],"name":"AddressEmptyCode","type":"error"},{"inputs":[{"internalType":"address","name":"account","type":"address"}],"name":"AddressInsufficientBalance","type":"error"},{"inputs":[],"name":"FailedInnerCall","type":"error"},{"inputs":[{"internalType":"address","name":"token","type":"address"}],"name":"SafeERC20FailedOperation","type":"error"},{"anonymous":false,"inputs":[{"indexed":true,"internalType":"address","name":"depositor","type":"address"},{"indexed":true,"internalType":"address","name":"tokenAddress","type":"address"},{"indexed":false,"internalType":"uint256","name":"amount","type":"uint256"}],"name":"CollateralDeposited","type":"event"},{"anonymous":false,"inputs":[{"indexed":true,"internalType":"address","name":"borrower","type":"address"},{"indexed":false,"internalType":"uint256","name":"collateralAmount","type":"uint256"}],"name":"CollateralLiquidated","type":"event"},{"anonymous":false,"inputs":[{"indexed":true,"internalType":"address","name":"withdrawer","type":"address"},{"indexed":false,"internalType":"uint256","name":"amount","type":"uint256"}],"name":"CollateralWithdrawn","type":"event"},{"anonymous":false,"inputs":[{"indexed":true,"internalType":"address","name":"depositor","type":"address"},{"indexed":false,"internalType":"uint256","name":"amount","type":"uint256"}],"name":"IncentiveDeposited","type":"event"},{"anonymous":false,"inputs":[{"indexed":true,"internalType":"address","name":"owner","type":"address"},{"indexed":false,"internalType":"uint256","name":"amount","type":"uint256"}],"name":"InterestFeeWithdrawn","type":"event"},{"anonymous":false,"inputs":[{"indexed":true,"internalType":"address","name":"provider","type":"address"},{"indexed":false,"internalType":"uint256","name":"tokenAAmount","type":"uint256"},{"indexed":false,"internalType":"uint256","name":"tokenBAmount","type":"uint256"},{"indexed":false,"internalType":"uint256","name":"liquidityTokensMinted","type":"uint256"}],"name":"LiquidityProvided","type":"event"},{"anonymous":false,"inputs":[{"indexed":false,"internalType":"address","name":"recipient","type":"address"},{"indexed":false,"internalType":"uint256","name":"amount","type":"uint256"}],"name":"LiquidityTokensMinted","type":"event"},{"anonymous":false,"inputs":[{"indexed":false,"internalType":"address","name":"recipient","type":"address"},{"indexed":false,"internalType":"uint256","name":"amount","type":"uint256"}],"name":"LiquidityTokensSent","type":"event"},{"anonymous":false,"inputs":[{"indexed":true,"internalType":"address","name":"borrower","type":"address"},{"indexed":false,"internalType":"uint256","name":"amount","type":"uint256"}],"name":"LoanRepaid","type":"event"},{"anonymous":false,"inputs":[{"indexed":true,"internalType":"address","name":"staker","type":"address"},{"indexed":false,"internalType":"uint256","name":"rewardAmount","type":"uint256"}],"name":"RewardsClaimed","type":"event"},{"anonymous":false,"inputs":[{"indexed":true,"internalType":"address","name":"owner","type":"address"},{"indexed":false,"internalType":"uint256","name":"amount","type":"uint256"}],"name":"SwapFeeWithdrawn","type":"event"},{"anonymous":false,"inputs":[{"indexed":true,"internalType":"address","name":"borrower","type":"address"},{"indexed":false,"internalType":"uint256","name":"tokenAAmount","type":"uint256"},{"indexed":false,"internalType":"uint256","name":"tokenBAmount","type":"uint256"},{"indexed":false,"internalType":"uint256","name":"duration","type":"uint256"}],"name":"TokensBorrowed","type":"event"},{"anonymous":false,"inputs":[{"indexed":true,"internalType":"address","name":"staker","type":"address"},{"indexed":false,"internalType":"uint256","name":"amount","type":"uint256"},{"indexed":false,"internalType":"uint256","name":"duration","type":"uint256"}],"name":"TokensStaked","type":"event"},{"anonymous":false,"inputs":[{"indexed":true,"internalType":"address","name":"swapper","type":"address"},{"indexed":false,"internalType":"uint256","name":"tokenAAmount","type":"uint256"},{"indexed":false,"internalType":"uint256","name":"tokenBAmount","type":"uint256"},{"indexed":false,"internalType":"uint256","name":"feeAmount","type":"uint256"}],"name":"TokensSwapped","type":"event"},{"anonymous":false,"inputs":[{"indexed":true,"internalType":"address","name":"staker","type":"address"},{"indexed":false,"internalType":"uint256","name":"amount","type":"uint256"}],"name":"TokensUnstaked","type":"event"},{"anonymous":false,"inputs":[{"indexed":true,"internalType":"address","name":"exiter","type":"address"},{"indexed":false,"internalType":"uint256","name":"tokenAAmount","type":"uint256"},{"indexed":false,"internalType":"uint256","name":"tokenBAmount","type":"uint256"}],"name":"WithdrawLiquidity","type":"event"},{"inputs":[],"name":"APR_14_DAYS","outputs":[{"internalType":"uint256","name":"","type":"uint256"}],"stateMutability":"view","type":"function"},{"inputs":[],"name":"APR_21_DAYS","outputs":[{"internalType":"uint256","name":"","type":"uint256"}],"stateMutability":"view","type":"function"},{"inputs":[],"name":"APR_7_DAYS","outputs":[{"internalType":"uint256","name":"","type":"uint256"}],"stateMutability":"view","type":"function"},{"inputs":[],"name":"INTEREST_RATE","outputs":[{"internalType":"uint256","name":"","type":"uint256"}],"stateMutability":"view","type":"function"},{"inputs":[],"name":"MAX_LTV_PERCENT","outputs":[{"internalType":"uint256","name":"","type":"uint256"}],"stateMutability":"view","type":"function"},{"inputs":[],"name":"OWNER_SHARE_PERCENT","outputs":[{"internalType":"uint256","name":"","type":"uint256"}],"stateMutability":"view","type":"function"},{"inputs":[],"name":"SECONDS_IN_14_DAYS","outputs":[{"internalType":"uint256","name":"","type":"uint256"}],"stateMutability":"view","type":"function"},{"inputs":[],"name":"SECONDS_IN_21_DAYS","outputs":[{"internalType":"uint256","name":"","type":"uint256"}],"stateMutability":"view","type":"function"},{"inputs":[],"name":"SECONDS_IN_30_DAYS","outputs":[{"internalType":"uint256","name":"","type":"uint256"}],"stateMutability":"view","type":"function"},{"inputs":[],"name":"SECONDS_IN_7_DAYS","outputs":[{"internalType":"uint256","name":"","type":"uint256"}],"stateMutability":"view","type":"function"},{"inputs":[],"name":"SECONDS_IN_90_DAYS","outputs":[{"internalType":"uint256","name":"","type":"uint256"}],"stateMutability":"view","type":"function"},{"inputs":[],"name":"SWAP_FEE_PERCENT","outputs":[{"internalType":"uint256","name":"","type":"uint256"}],"stateMutability":"view","type":"function"},{"inputs":[{"internalType":"address","name":"tokenAddress","type":"address"},{"internalType":"uint256","name":"amount","type":"uint256"}],"name":"addcollateralize","outputs":[],"stateMutability":"nonpayable","type":"function"},{"inputs":[{"internalType":"address","name":"","type":"address"}],"name":"balances","outputs":[{"internalType":"uint256","name":"","type":"uint256"}],"stateMutability":"view","type":"function"},{"inputs":[{"internalType":"address","name":"tokenAddress","type":"address"},{"internalType":"uint256","name":"tokenAmount","type":"uint256"},{"internalType":"uint256","name":"duration","type":"uint256"}],"name":"borrowTokens","outputs":[],"stateMutability":"nonpayable","type":"function"},{"inputs":[{"internalType":"address","name":"","type":"address"}],"name":"borrowed","outputs":[{"internalType":"uint256","name":"","type":"uint256"}],"stateMutability":"view","type":"function"},{"inputs":[{"internalType":"address","name":"","type":"address"}],"name":"borrowedToken","outputs":[{"internalType":"address","name":"","type":"address"}],"stateMutability":"view","type":"function"},{"inputs":[{"internalType":"address","name":"staker","type":"address"}],"name":"calculateReward","outputs":[{"internalType":"uint256","name":"","type":"uint256"}],"stateMutability":"view","type":"function"},{"inputs":[],"name":"claimRewards","outputs":[],"stateMutability":"nonpayable","type":"function"},{"inputs":[{"internalType":"address","name":"","type":"address"}],"name":"collateralA","outputs":[{"internalType":"uint256","name":"","type":"uint256"}],"stateMutability":"view","type":"function"},{"inputs":[{"internalType":"address","name":"","type":"address"}],"name":"collateralB","outputs":[{"internalType":"uint256","name":"","type":"uint256"}],"stateMutability":"view","type":"function"},{"inputs":[{"internalType":"uint256","name":"amount","type":"uint256"}],"name":"depositIncentive","outputs":[],"stateMutability":"nonpayable","type":"function"},{"inputs":[],"name":"getMaxLoanAmount","outputs":[{"internalType":"uint256","name":"","type":"uint256"}],"stateMutability":"view","type":"function"},{"inputs":[],"name":"interestFeeBalance","outputs":[{"internalType":"uint256","name":"","type":"uint256"}],"stateMutability":"view","type":"function"},{"inputs":[],"name":"isPoolIncentivized","outputs":[{"internalType":"bool","name":"","type":"bool"}],"stateMutability":"view","type":"function"},{"inputs":[],"name":"liquidateCollateral","outputs":[],"stateMutability":"nonpayable","type":"function"},{"inputs":[],"name":"liquidityToken","outputs":[{"internalType":"contract LiquidityToken","name":"","type":"address"}],"stateMutability":"view","type":"function"},{"inputs":[{"internalType":"address","name":"","type":"address"}],"name":"loanDuration","outputs":[{"internalType":"uint256","name":"","type":"uint256"}],"stateMutability":"view","type":"function"},{"inputs":[{"internalType":"address","name":"","type":"address"}],"name":"loanStartTime","outputs":[{"internalType":"uint256","name":"","type":"uint256"}],"stateMutability":"view","type":"function"},{"inputs":[],"name":"owner","outputs":[{"internalType":"address","name":"","type":"address"}],"stateMutability":"view","type":"function"},{"inputs":[],"name":"priceFeed","outputs":[{"internalType":"contract IPriceFeed","name":"","type":"address"}],"stateMutability":"view","type":"function"},{"inputs":[{"internalType":"uint256","name":"tokenAAmount","type":"uint256"},{"internalType":"uint256","name":"tokenBAmount","type":"uint256"}],"name":"provideLiquidity","outputs":[],"stateMutability":"nonpayable","type":"function"},{"inputs":[{"internalType":"uint256","name":"loanAmount","type":"uint256"}],"name":"repayLoan","outputs":[],"stateMutability":"nonpayable","type":"function"},{"inputs":[],"name":"rewardToken","outputs":[{"internalType":"contract IERC20","name":"","type":"address"}],"stateMutability":"view","type":"function"},{"inputs":[{"internalType":"uint256","name":"amount","type":"uint256"},{"internalType":"uint256","name":"duration","type":"uint256"}],"name":"stakeTokens","outputs":[],"stateMutability":"nonpayable","type":"function"},{"inputs":[{"internalType":"address","name":"","type":"address"}],"name":"stakerRewards","outputs":[{"internalType":"uint256","name":"","type":"uint256"}],"stateMutability":"view","type":"function"},{"inputs":[],"name":"stakingContract","outputs":[{"internalType":"contract Staking","name":"","type":"address"}],"stateMutability":"view","type":"function"},{"inputs":[],"name":"swapFeeBalance","outputs":[{"internalType":"uint256","name":"","type":"uint256"}],"stateMutability":"view","type":"function"},{"inputs":[{"internalType":"address","name":"tokenAddress","type":"address"},{"internalType":"uint256","name":"tokenAmount","type":"uint256"}],"name":"swapTokens","outputs":[],"stateMutability":"nonpayable","type":"function"},{"inputs":[],"name":"tokenA","outputs":[{"internalType":"contract IERC20","name":"","type":"address"}],"stateMutability":"view","type":"function"},{"inputs":[],"name":"tokenB","outputs":[{"internalType":"contract IERC20","name":"","type":"address"}],"stateMutability":"view","type":"function"},{"inputs":[],"name":"totalStaked","outputs":[{"internalType":"uint256","name":"","type":"uint256"}],"stateMutability":"view","type":"function"},{"inputs":[{"internalType":"uint256","name":"amount","type":"uint256"}],"name":"unstakeTokens","outputs":[],"stateMutability":"nonpayable","type":"function"},{"inputs":[{"internalType":"bool","name":"incentivized","type":"bool"}],"name":"updateIncentivizedPool","outputs":[],"stateMutability":"nonpayable","type":"function"},{"inputs":[{"internalType":"uint256","name":"newOwnerSharePercent","type":"uint256"}],"name":"updateOwnerShare","outputs":[],"stateMutability":"nonpayable","type":"function"},{"inputs":[{"internalType":"uint256","name":"newFeePercent","type":"uint256"}],"name":"updateSwapFee","outputs":[],"stateMutability":"nonpayable","type":"function"},{"inputs":[{"internalType":"uint256","name":"amount","type":"uint256"}],"name":"withdrawCollateral","outputs":[],"stateMutability":"nonpayable","type":"function"},{"inputs":[{"internalType":"uint256","name":"collateralAmount","type":"uint256"}],"name":"withdrawCollateralA","outputs":[],"stateMutability":"nonpayable","type":"function"},{"inputs":[],"name":"withdrawInterestFee","outputs":[],"stateMutability":"nonpayable","type":"function"},{"inputs":[{"internalType":"uint256","name":"liquidityTokenAmount","type":"uint256"}],"name":"withdrawLiquidity","outputs":[],"stateMutability":"nonpayable","type":"function"},{"inputs":[],"name":"withdrawSwapFee","outputs":[],"stateMutability":"nonpayable","type":"function"}],"evm":{"bytecode":{"linkReferences":{},"object":"60806040526005600755605060085560056009556014600a55601e600b556032600c55600a6010553480156200003457600080fd5b506040516200297738038062002977833981016040819052620000579162000103565b600080546001600160a01b03199081166001600160a01b03998a161790915560018054821697891697909717909655600580548716958816959095179094556004805433908716179055600680548616938716939093179092556002805485169186169190911790556003805490931693169290921790556011805460ff1916911515919091179055620001a0565b80516001600160a01b0381168114620000fe57600080fd5b919050565b600080600080600080600060e0888a0312156200011f57600080fd5b6200012a88620000e6565b96506200013a60208901620000e6565b95506200014a60408901620000e6565b94506200015a60608901620000e6565b93506200016a60808901620000e6565b92506200017a60a08901620000e6565b915060c088015180151581146200019057600080fd5b8091505092959891949750929550565b6127c780620001b06000396000f3fe608060405234801561001057600080fd5b50600436106103415760003560e01c80637b624429116101bd578063befcabbd116100f9578063f0362ee9116100a2578063f5b5f4771161007c578063f5b5f477146106a0578063f7c618c1146106c0578063fea28478146106d3578063ff78025c146106e657600080fd5b8063f0362ee914610656578063f0c1020d14610660578063f0f0b2281461068057600080fd5b8063d9accfac116100d3578063d9accfac1461061a578063dc6930c21461063a578063ee99205c1461064357600080fd5b8063befcabbd146105ea578063bf16f65a146105f4578063d82e39621461060757600080fd5b8063a42c83d311610166578063ab22a25f11610140578063ab22a25f146105a8578063ab7b1c89146105b1578063aff82509146105c4578063b442c24e146105e157600080fd5b8063a42c83d314610579578063a680114a14610582578063aa77bc831461059557600080fd5b80638da5cb5b116101975780638da5cb5b1461054a578063952cc59d1461055d578063a114398d1461056657600080fd5b80637b6244291461050f578063817b1cd21461051857806384a0e58f1461052157600080fd5b80634578ae041161028c5780635f64b55b11610235578063614d66871161020f578063614d6687146104d7578063656f9ba4146104e1578063741bef1a146104e95780637a16af7f146104fc57600080fd5b80635f64b55b1461049e578063608e4dd0146104b15780636112fe2e146104c457600080fd5b806352abe4b01161026657806352abe4b01461047a57806359f6adc7146104825780635b72a33a1461049557600080fd5b80634578ae041461045e578063484d0d9b146104685780634d3344941461047057600080fd5b806327e235e3116102ee57806337829f36116102c857806337829f361461042f5780633b7b61881461043857806343cd8f7e1461044b57600080fd5b806327e235e3146103f457806333f8cade14610414578063372500ab1461042757600080fd5b80630a861f2a1161031f5780630a861f2a146103a35780630fc63d10146103b65780631c16b6e0146103e157600080fd5b806303e43c3a1461034657806305bf77da146103795780630941cb3d14610383575b600080fd5b6103666103543660046125d9565b60156020526000908152604090205481565b6040519081526020015b60405180910390f35b6103816106ef565b005b6103666103913660046125d9565b60146020526000908152604090205481565b6103816103b13660046125f4565b6107e8565b6000546103c9906001600160a01b031681565b6040516001600160a01b039091168152602001610370565b6103816103ef3660046125f4565b61092b565b6103666104023660046125d9565b60136020526000908152604090205481565b6103816104223660046125f4565b610a62565b610381610acb565b610366600a5481565b61038161044636600461260d565b610b71565b6002546103c9906001600160a01b031681565b610366621baf8081565b610381610d59565b6103666212750081565b610381610e4c565b6103816104903660046125f4565b610f2f565b61036660095481565b6001546103c9906001600160a01b031681565b6103816104bf3660046125f4565b610fcb565b6103816104d23660046125f4565b61112d565b6103666276a70081565b61036661124c565b6006546103c9906001600160a01b031681565b61038161050a36600461260d565b611295565b61036660085481565b610366600d5481565b6103c961052f3660046125d9565b6019602052600090815260409020546001600160a01b031681565b6004546103c9906001600160a01b031681565b61036660105481565b61038161057436600461262f565b611594565b610366600c5481565b610381610590366004612659565b611618565b6103816105a336600461262f565b6119b4565b610366600b5481565b6103816105bf3660046125f4565b611b0f565b6011546105d19060ff1681565b6040519015158152602001610370565b61036660075481565b61036662278d0081565b6103816106023660046125f4565b611c8f565b6103666106153660046125d9565b611cee565b6103666106283660046125d9565b60186020526000908152604090205481565b610366600f5481565b6003546103c9906001600160a01b031681565b61036662093a8081565b61036661066e3660046125d9565b60166020526000908152604090205481565b61036661068e3660046125d9565b60126020526000908152604090205481565b6103666106ae3660046125d9565b60176020526000908152604090205481565b6005546103c9906001600160a01b031681565b6103816106e136600461269a565b611e42565b610366600e5481565b6004546001600160a01b0316331461074e5760405162461bcd60e51b815260206004820181905260248201527f4f6e6c79206f776e65722063616e20776974686472617720737761702066656560448201526064015b60405180910390fd5b6000610772606461076c601054600e54611ed590919063ffffffff16565b90611eea565b600e549091506107829082611ef6565b600e556004546000546107a2916001600160a01b03918216911683611f02565b6004546040518281526001600160a01b03909116907ffe3a1f8a2c5c7b93b78f378d2d615c31e557981379de63135d4ad26285d2609f906020015b60405180910390a250565b6000811161085e5760405162461bcd60e51b815260206004820152602d60248201527f4c697175696469747920746f6b656e20616d6f756e74206d757374206265206760448201527f726561746572207468616e2030000000000000000000000000000000000000006064820152608401610745565b600254604051632770a7eb60e21b8152336004820152602481018390526001600160a01b0390911690639dc29fac90604401600060405180830381600087803b1580156108aa57600080fd5b505af11580156108be573d6000803e3d6000fd5b5050600080546108db93506001600160a01b031691503390611f02565b6001546108f3906001600160a01b0316336000611f02565b604080516000808252602082015233917fac927268ea9ae2e55027e6ab727fc2db8e3ea48c56c658223a1074567e4298c091016107dd565b6000811161098c5760405162461bcd60e51b815260206004820152602860248201527f436f6c6c61746572616c20616d6f756e74206d75737420626520677265617465604482015267072207468616e20360c41b6064820152608401610745565b336000908152601560205260409020548111156109eb5760405162461bcd60e51b815260206004820152601760248201527f4e6f7420656e6f75676820636f6c6c61746572616c20410000000000000000006044820152606401610745565b33600090815260156020526040902054610a059082611ef6565b336000818152601560205260408120929092559054610a30916001600160a01b039091169083611f02565b60405181815233907fc30fcfbcaac9e0deffa719714eaa82396ff506a0d0d0eebe170830177288715d906020016107dd565b6004546001600160a01b03163314610ac65760405162461bcd60e51b815260206004820152602160248201527f4f6e6c79206f776e65722063616e20757064617465206f776e657220736861726044820152606560f81b6064820152608401610745565b601055565b6000610ad633611cee565b905060008111610b285760405162461bcd60e51b815260206004820152601360248201527f4e6f207265776172647320746f20636c61696d000000000000000000000000006044820152606401610745565b600554610b3f906001600160a01b03163383611f02565b60405181815233907ffc30cddea38e2bf4d6ea7d3f9ed3b6ad7f176419f4963bd81318067a4aee73fe906020016107dd565b60008211610bc15760405162461bcd60e51b815260206004820152601d60248201527f416d6f756e74206d7573742062652067726561746572207468616e20300000006044820152606401610745565b62093a80811480610bd457506212750081145b80610be15750621baf8081145b610c2d5760405162461bcd60e51b815260206004820152601860248201527f496e76616c6964207374616b696e67206475726174696f6e00000000000000006044820152606401610745565b6001600d6000828254610c4091906126cd565b9091555050600254604051632142170760e11b8152336004820152306024820152604481018490526001600160a01b03909116906342842e0e90606401600060405180830381600087803b158015610c9757600080fd5b505af1158015610cab573d6000803e3d6000fd5b5050600354604051630c51b88f60e01b815233600482015260248101869052604481018590526001600160a01b039091169250630c51b88f9150606401600060405180830381600087803b158015610d0257600080fd5b505af1158015610d16573d6000803e3d6000fd5b505060408051858152602081018590523393507fdd2a19c3bdd089cbe77c04f5655f83de0504d6140d12c8667646f55d0557c4dc92500160405180910390a25050565b6004546001600160a01b03163314610dbf5760405162461bcd60e51b8152602060048201526024808201527f4f6e6c79206f776e65722063616e20776974686472617720696e7465726573746044820152632066656560e01b6064820152608401610745565b6000610ddd606461076c601054600f54611ed590919063ffffffff16565b600f54909150610ded9082611ef6565b600f55600454600054610e0d916001600160a01b03918216911683611f02565b6004546040518281526001600160a01b03909116907fc5408a91ab755d718179693faa93aa703423884985a136020584c2a555622abd906020016107dd565b336000908152601660209081526040808320546015909252822054610e7091611f7b565b905060008111610ec25760405162461bcd60e51b815260206004820152601a60248201527f4e6f20636f6c6c61746572616c20746f206c69717569646174650000000000006044820152606401610745565b336000908152601560209081526040808320839055601690915281208190556004549054610efd916001600160a01b03918216911683611f02565b60405181815233907ffa149b6f966139cc74dfaf2610f7b54d8823dbeed646b7da48d8144f510c3f21906020016107dd565b60115460ff16610f815760405162461bcd60e51b815260206004820152601860248201527f506f6f6c206973206e6f7420696e63656e746976697a656400000000000000006044820152606401610745565b600554610f99906001600160a01b0316333084611f87565b60405181815233907ff64d4e2ae91601d51ff62b8199e65d003375d548921395402df0eb11a18ee89d906020016107dd565b6000811161101b5760405162461bcd60e51b815260206004820152601d60248201527f416d6f756e74206d7573742062652067726561746572207468616e20300000006044820152606401610745565b600354604051630615339760e51b8152336004820152602481018390526001600160a01b039091169063c2a672e090604401600060405180830381600087803b15801561106757600080fd5b505af115801561107b573d6000803e3d6000fd5b5050600254604051632770a7eb60e21b8152336004820152602481018590526001600160a01b039091169250639dc29fac9150604401600060405180830381600087803b1580156110cb57600080fd5b505af11580156110df573d6000803e3d6000fd5b505050506001600d60008282546110f691906126e0565b909155505060405181815233907f9845e367b683334e5c0b12d7b81721ac518e649376fa65e3d68324e8f34f2679906020016107dd565b336000908152601560205260409020548111158061115a5750336000908152601660205260409020548111155b6111a65760405162461bcd60e51b815260206004820152601760248201527f496e73756666696369656e7420636f6c6c61746572616c0000000000000000006044820152606401610745565b33600090815260156020526040902054811161120657336000908152601560205260409020546111d69082611ef6565b336000818152601560205260408120929092559054611201916001600160a01b039091169083611f02565b610a30565b336000908152601660205260409020546112209082611ef6565b33600081815260166020526040902091909155600154610a30916001600160a01b039091169083611f02565b33600090815260166020908152604080832054601590925282205482916112739190611f7b565b905061128f606461076c60085484611ed590919063ffffffff16565b91505090565b6000821180156112a55750600081115b6112fd5760405162461bcd60e51b8152602060048201526024808201527f546f6b656e20616d6f756e7473206d75737420626520677265617465722074686044820152630616e20360e41b6064820152608401610745565b600054611315906001600160a01b0316333085611f87565b60015461132d906001600160a01b0316333084611f87565b600080600260009054906101000a90046001600160a01b03166001600160a01b03166318160ddd6040518163ffffffff1660e01b8152600401602060405180830381865afa158015611383573d6000803e3d6000fd5b505050506040513d601f19601f820116820180604052508101906113a791906126f3565b9050806000036113c2576113bb8484611ed5565b91506114dd565b600080546040516370a0823160e01b81523060048201526001600160a01b03909116906370a0823190602401602060405180830381865afa15801561140b573d6000803e3d6000fd5b505050506040513d601f19601f8201168201806040525081019061142f91906126f3565b6001546040516370a0823160e01b81523060048201529192506000916001600160a01b03909116906370a0823190602401602060405180830381865afa15801561147d573d6000803e3d6000fd5b505050506040513d601f19601f820116820180604052508101906114a191906126f3565b905060006114b38361076c8987611ed5565b905060006114c58361076c8988611ed5565b90508082106114d457806114d6565b815b9550505050505b6002546040516340c10f1960e01b8152306004820152602481018490526001600160a01b03909116906340c10f1990604401600060405180830381600087803b15801561152957600080fd5b505af115801561153d573d6000803e3d6000fd5b5050505061154b3383611fc6565b604080518581526020810185905290810183905233907f3bca7014f4c0ccc8016338c79f4c00e82068dbadaf4f01ca5449040fdd39f5009060600160405180910390a250505050565b600081116115f05760405162461bcd60e51b815260206004820152602360248201527f546f6b656e20616d6f756e74206d75737420626520677265617465722074686160448201526206e20360ec1b6064820152608401610745565b6006546001600160a01b031661160e5761160a8282612084565b5050565b61160a828261221b565b600082116116745760405162461bcd60e51b815260206004820152602360248201527f546f6b656e20616d6f756e74206d75737420626520677265617465722074686160448201526206e20360ec1b6064820152608401610745565b62278d0081148061168757506276a70081145b6116d35760405162461bcd60e51b815260206004820152601560248201527f496e76616c6964206c6f616e206475726174696f6e00000000000000000000006044820152606401610745565b60008054819081906001600160a01b039081169087160361170b5750506001546000548492506001600160a01b039182169116611786565b6001546001600160a01b039081169087160361173e5750506000546001548492506001600160a01b039182169116611786565b60405162461bcd60e51b815260206004820152601e60248201527f496e76616c696420746f6b656e20616464726573732070726f766964656400006044820152606401610745565b60085460009061179b9061076c866064611ed5565b6040516370a0823160e01b815233600482015290915081906001600160a01b038516906370a0823190602401602060405180830381865afa1580156117e4573d6000803e3d6000fd5b505050506040513d601f19601f8201168201806040525081019061180891906126f3565b10156118565760405162461bcd60e51b815260206004820152601760248201527f496e73756666696369656e7420636f6c6c61746572616c0000000000000000006044820152606401610745565b61186b6001600160a01b038416333084611f87565b61187f6001600160a01b0383163388611f02565b6000546001600160a01b03908116908816036118c457336000908152601660205260409020546118af9082611f7b565b336000908152601660205260409020556118ef565b336000908152601560205260409020546118de9082611f7b565b336000908152601560205260409020555b336000908152601460205260409020546119099085611f7b565b3360008181526014602090815260408083209490945560178152838220429055601881528382208990556019815283822080547fffffffffffffffffffffffff0000000000000000000000000000000000000000166001600160a01b038816179055835188815290810191909152918201879052907f35f22bd5666483eaee517bbb1999755225edf1788eeafe1184f7238eaed8e37e9060600160405180910390a250505050505050565b60008111611a155760405162461bcd60e51b815260206004820152602860248201527f436f6c6c61746572616c20616d6f756e74206d75737420626520677265617465604482015267072207468616e20360c41b6064820152608401610745565b6000546001600160a01b0390811690831603611a7257600054611a43906001600160a01b0316333084611f87565b33600090815260156020526040902054611a5d9082611f7b565b33600090815260156020526040902055611acb565b6001546001600160a01b039081169083160361173e57600154611aa0906001600160a01b0316333084611f87565b33600090815260166020526040902054611aba9082611f7b565b336000908152601660205260409020555b6040518181526001600160a01b0383169033907ff1c0dd7e9b98bbff859029005ef89b127af049cd18df1a8d79f0b7e019911e569060200160405180910390a35050565b33600090815260146020526040902054611b6b5760405162461bcd60e51b815260206004820152601260248201527f4e6f20746f6b656e7320626f72726f77656400000000000000000000000000006044820152606401610745565b60008111611bc65760405162461bcd60e51b815260206004820152602260248201527f4c6f616e20616d6f756e74206d7573742062652067726561746572207468616e604482015261020360f41b6064820152608401610745565b600054611bde906001600160a01b0316333084611f87565b33600090815260146020526040902054611bf89082611ef6565b33600090815260146020908152604080832093909355601790522054611c5a90611c51906301e133809061076c90611c31904290611ef6565b611c4b606461076c60095489611ed590919063ffffffff16565b90611ed5565b600f5490611f7b565b600f5560405181815233907fc200a1f31dd659e356e0f112c82558e25f49f7b0f84438691cd96f5cb3558823906020016107dd565b6004546001600160a01b03163314611ce95760405162461bcd60e51b815260206004820152601e60248201527f4f6e6c79206f776e65722063616e2075706461746520737761702066656500006044820152606401610745565b600755565b600354604051636021726760e01b81526001600160a01b0383811660048301526000928392911690636021726790602401602060405180830381865afa158015611d3c573d6000803e3d6000fd5b505050506040513d601f19601f82011682018060405250810190611d6091906126f3565b60035460405163d62e06af60e01b81526001600160a01b0386811660048301529293506000928392169063d62e06af90602401602060405180830381865afa158015611db0573d6000803e3d6000fd5b505050506040513d601f19601f82011682018060405250810190611dd491906126f3565b905062093a80811015611deb57600a549150611e20565b62127500811015611e0057600b549150611e20565b621baf80811015611e1557600c549150611e20565b506000949350505050565b6000611e386301e1338061076c84611c4b8888611ed5565b9695505050505050565b6004546001600160a01b03163314611ec25760405162461bcd60e51b815260206004820152602560248201527f4f6e6c79206f776e65722063616e2075706461746520706f6f6c20696e63656e60448201527f74697665730000000000000000000000000000000000000000000000000000006064820152608401610745565b6011805460ff1916911515919091179055565b6000611ee1828461270c565b90505b92915050565b6000611ee18284612723565b6000611ee182846126e0565b6040516001600160a01b03838116602483015260448201839052611f7691859182169063a9059cbb906064015b604051602081830303815290604052915060e01b6020820180517bffffffffffffffffffffffffffffffffffffffffffffffffffffffff838183161783525050505061244e565b505050565b6000611ee182846126cd565b6040516001600160a01b038481166024830152838116604483015260648201839052611fc09186918216906323b872dd90608401611f2f565b50505050565b60025460405163a9059cbb60e01b81526001600160a01b038481166004830152602482018490529091169063a9059cbb906044016020604051808303816000875af1158015612019573d6000803e3d6000fd5b505050506040513d601f19601f8201168201806040525081019061203d9190612745565b50604080516001600160a01b0384168152602081018390527f731c4d5834cb99427f762f81ed43118ac0de5a1a0194fb326be6154181a2546f910160405180910390a15050565b600080548190819081906001600160a01b0390811690871603612153576120bc6103e861076c60075488611ed590919063ffffffff16565b93506120c88585611ef6565b6000549092506120e3906001600160a01b0316333088611f87565b600e546120f09085611f7b565b600e5560015461210a906001600160a01b03163384611f02565b604080518681526000602082015290810185905233907f5998feb874e6089317765439db6575c0ba1c29ba0084c05f3c61be5cbd74cb8c906060015b60405180910390a2612213565b6001546001600160a01b039081169087160361173e576121846103e861076c60075488611ed590919063ffffffff16565b92506121908584611ef6565b6001549091506121ab906001600160a01b0316333088611f87565b600e546121b89084611f7b565b600e556000546121d2906001600160a01b03163383611f02565b60408051600081526020810187905290810184905233907f5998feb874e6089317765439db6575c0ba1c29ba0084c05f3c61be5cbd74cb8c90606001612146565b505050505050565b6000806000806000600660009054906101000a90046001600160a01b03166001600160a01b031663ec08c6696040518163ffffffff1660e01b8152600401602060405180830381865afa158015612276573d6000803e3d6000fd5b505050506040513d601f19601f8201168201806040525081019061229a91906126f3565b6000549091506001600160a01b0390811690881603612375576122de670de0b6b3a764000061076c83611c4b6103e861076c6007548d611ed590919063ffffffff16565b94506122ea8686611ef6565b600054909350612305906001600160a01b0316333089611f87565b600e546123129086611f7b565b600e5560015461232c906001600160a01b03163385611f02565b604080518781526000602082015290810186905233907f5998feb874e6089317765439db6575c0ba1c29ba0084c05f3c61be5cbd74cb8c906060015b60405180910390a2612445565b6001546001600160a01b039081169088160361173e576123b6670de0b6b3a764000061076c83611c4b6103e861076c6007548d611ed590919063ffffffff16565b93506123c28685611ef6565b6001549092506123dd906001600160a01b0316333089611f87565b600e546123ea9085611f7b565b600e55600054612404906001600160a01b03163384611f02565b60408051600081526020810188905290810185905233907f5998feb874e6089317765439db6575c0ba1c29ba0084c05f3c61be5cbd74cb8c90606001612368565b50505050505050565b60006124636001600160a01b038416836124b1565b905080516000141580156124885750808060200190518101906124869190612745565b155b15611f7657604051635274afe760e01b81526001600160a01b0384166004820152602401610745565b6060611ee18383600084600080856001600160a01b031684866040516124d79190612762565b60006040518083038185875af1925050503d8060008114612514576040519150601f19603f3d011682016040523d82523d6000602084013e612519565b606091505b5091509150612529868383612535565b925050505b9392505050565b60608261254a5761254582612591565b61252e565b815115801561256157506001600160a01b0384163b155b1561258a57604051639996b31560e01b81526001600160a01b0385166004820152602401610745565b508061252e565b8051156125a15780518082602001fd5b604051630a12f52160e11b815260040160405180910390fd5b50565b80356001600160a01b03811681146125d457600080fd5b919050565b6000602082840312156125eb57600080fd5b611ee1826125bd565b60006020828403121561260657600080fd5b5035919050565b6000806040838503121561262057600080fd5b50508035926020909101359150565b6000806040838503121561264257600080fd5b61264b836125bd565b946020939093013593505050565b60008060006060848603121561266e57600080fd5b612677846125bd565b95602085013595506040909401359392505050565b80151581146125ba57600080fd5b6000602082840312156126ac57600080fd5b813561252e8161268c565b634e487b7160e01b600052601160045260246000fd5b80820180821115611ee457611ee46126b7565b81810381811115611ee457611ee46126b7565b60006020828403121561270557600080fd5b5051919050565b8082028115828204841417611ee457611ee46126b7565b60008261274057634e487b7160e01b600052601260045260246000fd5b500490565b60006020828403121561275757600080fd5b815161252e8161268c565b6000825160005b818110156127835760208186018101518583015201612769565b50600092019182525091905056fea264697066735822122028f90043139e31fd50176945cc8cb7e35db786e827569847d10db9fc85b17afc64736f6c63430008140033","opcodes":"PUSH1 0x80 PUSH1 0x40 MSTORE PUSH1 0x5 PUSH1 0x7 SSTORE PUSH1 0x50 PUSH1 0x8 SSTORE PUSH1 0x5 PUSH1 0x9 SSTORE PUSH1 0x14 PUSH1 0xA SSTORE PUSH1 0x1E PUSH1 0xB SSTORE PUSH1 0x32 PUSH1 0xC SSTORE PUSH1 0xA PUSH1 0x10 SSTORE CALLVALUE DUP1 ISZERO PUSH3 0x34 JUMPI PUSH1 0x0 DUP1 REVERT JUMPDEST POP PUSH1 0x40 MLOAD PUSH3 0x2977 CODESIZE SUB DUP1 PUSH3 0x2977 DUP4 CODECOPY DUP2 ADD PUSH1 0x40 DUP2 SWAP1 MSTORE PUSH3 0x57 SWAP2 PUSH3 0x103 JUMP JUMPDEST PUSH1 0x0 DUP1 SLOAD PUSH1 0x1 PUSH1 0x1 PUSH1 0xA0 SHL SUB NOT SWAP1 DUP2 AND PUSH1 0x1 PUSH1 0x1 PUSH1 0xA0 SHL SUB SWAP10 DUP11 AND OR SWAP1 SWAP2 SSTORE PUSH1 0x1 DUP1 SLOAD DUP3 AND SWAP8 DUP10 AND SWAP8 SWAP1 SWAP8 OR SWAP1 SWAP7 SSTORE PUSH1 0x5 DUP1 SLOAD DUP8 AND SWAP6 DUP9 AND SWAP6 SWAP1 SWAP6 OR SWAP1 SWAP5 SSTORE PUSH1 0x4 DUP1 SLOAD CALLER SWAP1 DUP8 AND OR SWAP1 SSTORE PUSH1 0x6 DUP1 SLOAD DUP7 AND SWAP4 DUP8 AND SWAP4 SWAP1 SWAP4 OR SWAP1 SWAP3 SSTORE PUSH1 0x2 DUP1 SLOAD DUP6 AND SWAP2 DUP7 AND SWAP2 SWAP1 SWAP2 OR SWAP1 SSTORE PUSH1 0x3 DUP1 SLOAD SWAP1 SWAP4 AND SWAP4 AND SWAP3 SWAP1 SWAP3 OR SWAP1 SSTORE PUSH1 0x11 DUP1 SLOAD PUSH1 0xFF NOT AND SWAP2 ISZERO ISZERO SWAP2 SWAP1 SWAP2 OR SWAP1 SSTORE PUSH3 0x1A0 JUMP JUMPDEST DUP1 MLOAD PUSH1 0x1 PUSH1 0x1 PUSH1 0xA0 SHL SUB DUP2 AND DUP2 EQ PUSH3 0xFE JUMPI PUSH1 0x0 DUP1 REVERT JUMPDEST SWAP2 SWAP1 POP JUMP JUMPDEST PUSH1 0x0 DUP1 PUSH1 0x0 DUP1 PUSH1 0x0 DUP1 PUSH1 0x0 PUSH1 0xE0 DUP9 DUP11 SUB SLT ISZERO PUSH3 0x11F JUMPI PUSH1 0x0 DUP1 REVERT JUMPDEST PUSH3 0x12A DUP9 PUSH3 0xE6 JUMP JUMPDEST SWAP7 POP PUSH3 0x13A PUSH1 0x20 DUP10 ADD PUSH3 0xE6 JUMP JUMPDEST SWAP6 POP PUSH3 0x14A PUSH1 0x40 DUP10 ADD PUSH3 0xE6 JUMP JUMPDEST SWAP5 POP PUSH3 0x15A PUSH1 0x60 DUP10 ADD PUSH3 0xE6 JUMP JUMPDEST SWAP4 POP PUSH3 0x16A PUSH1 0x80 DUP10 ADD PUSH3 0xE6 JUMP JUMPDEST SWAP3 POP PUSH3 0x17A PUSH1 0xA0 DUP10 ADD PUSH3 0xE6 JUMP JUMPDEST SWAP2 POP PUSH1 0xC0 DUP9 ADD MLOAD DUP1 ISZERO ISZERO DUP2 EQ PUSH3 0x190 JUMPI PUSH1 0x0 DUP1 REVERT JUMPDEST DUP1 SWAP2 POP POP SWAP3 SWAP6 SWAP9 SWAP2 SWAP5 SWAP8 POP SWAP3 SWAP6 POP JUMP JUMPDEST PUSH2 0x27C7 DUP1 PUSH3 0x1B0 PUSH1 0x0 CODECOPY PUSH1 0x0 RETURN INVALID PUSH1 0x80 PUSH1 0x40 MSTORE CALLVALUE DUP1 ISZERO PUSH2 0x10 JUMPI PUSH1 0x0 DUP1 REVERT JUMPDEST POP PUSH1 0x4 CALLDATASIZE LT PUSH2 0x341 JUMPI PUSH1 0x0 CALLDATALOAD PUSH1 0xE0 SHR DUP1 PUSH4 0x7B624429 GT PUSH2 0x1BD JUMPI DUP1 PUSH4 0xBEFCABBD GT PUSH2 0xF9 JUMPI DUP1 PUSH4 0xF0362EE9 GT PUSH2 0xA2 JUMPI DUP1 PUSH4 0xF5B5F477 GT PUSH2 0x7C JUMPI DUP1 PUSH4 0xF5B5F477 EQ PUSH2 0x6A0 JUMPI DUP1 PUSH4 0xF7C618C1 EQ PUSH2 0x6C0 JUMPI DUP1 PUSH4 0xFEA28478 EQ PUSH2 0x6D3 JUMPI DUP1 PUSH4 0xFF78025C EQ PUSH2 0x6E6 JUMPI PUSH1 0x0 DUP1 REVERT JUMPDEST DUP1 PUSH4 0xF0362EE9 EQ PUSH2 0x656 JUMPI DUP1 PUSH4 0xF0C1020D EQ PUSH2 0x660 JUMPI DUP1 PUSH4 0xF0F0B228 EQ PUSH2 0x680 JUMPI PUSH1 0x0 DUP1 REVERT JUMPDEST DUP1 PUSH4 0xD9ACCFAC GT PUSH2 0xD3 JUMPI DUP1 PUSH4 0xD9ACCFAC EQ PUSH2 0x61A JUMPI DUP1 PUSH4 0xDC6930C2 EQ PUSH2 0x63A JUMPI DUP1 PUSH4 0xEE99205C EQ PUSH2 0x643 JUMPI PUSH1 0x0 DUP1 REVERT JUMPDEST DUP1 PUSH4 0xBEFCABBD EQ PUSH2 0x5EA JUMPI DUP1 PUSH4 0xBF16F65A EQ PUSH2 0x5F4 JUMPI DUP1 PUSH4 0xD82E3962 EQ PUSH2 0x607 JUMPI PUSH1 0x0 DUP1 REVERT JUMPDEST DUP1 PUSH4 0xA42C83D3 GT PUSH2 0x166 JUMPI DUP1 PUSH4 0xAB22A25F GT PUSH2 0x140 JUMPI DUP1 PUSH4 0xAB22A25F EQ PUSH2 0x5A8 JUMPI DUP1 PUSH4 0xAB7B1C89 EQ PUSH2 0x5B1 JUMPI DUP1 PUSH4 0xAFF82509 EQ PUSH2 0x5C4 JUMPI DUP1 PUSH4 0xB442C24E EQ PUSH2 0x5E1 JUMPI PUSH1 0x0 DUP1 REVERT JUMPDEST DUP1 PUSH4 0xA42C83D3 EQ PUSH2 0x579 JUMPI DUP1 PUSH4 0xA680114A EQ PUSH2 0x582 JUMPI DUP1 PUSH4 0xAA77BC83 EQ PUSH2 0x595 JUMPI PUSH1 0x0 DUP1 REVERT JUMPDEST DUP1 PUSH4 0x8DA5CB5B GT PUSH2 0x197 JUMPI DUP1 PUSH4 0x8DA5CB5B EQ PUSH2 0x54A JUMPI DUP1 PUSH4 0x952CC59D EQ PUSH2 0x55D JUMPI DUP1 PUSH4 0xA114398D EQ PUSH2 0x566 JUMPI PUSH1 0x0 DUP1 REVERT JUMPDEST DUP1 PUSH4 0x7B624429 EQ PUSH2 0x50F JUMPI DUP1 PUSH4 0x817B1CD2 EQ PUSH2 0x518 JUMPI DUP1 PUSH4 0x84A0E58F EQ PUSH2 0x521 JUMPI PUSH1 0x0 DUP1 REVERT JUMPDEST DUP1 PUSH4 0x4578AE04 GT PUSH2 0x28C JUMPI DUP1 PUSH4 0x5F64B55B GT PUSH2 0x235 JUMPI DUP1 PUSH4 0x614D6687 GT PUSH2 0x20F JUMPI DUP1 PUSH4 0x614D6687 EQ PUSH2 0x4D7 JUMPI DUP1 PUSH4 0x656F9BA4 EQ PUSH2 0x4E1 JUMPI DUP1 PUSH4 0x741BEF1A EQ PUSH2 0x4E9 JUMPI DUP1 PUSH4 0x7A16AF7F EQ PUSH2 0x4FC JUMPI PUSH1 0x0 DUP1 REVERT JUMPDEST DUP1 PUSH4 0x5F64B55B EQ PUSH2 0x49E JUMPI DUP1 PUSH4 0x608E4DD0 EQ PUSH2 0x4B1 JUMPI DUP1 PUSH4 0x6112FE2E EQ PUSH2 0x4C4 JUMPI PUSH1 0x0 DUP1 REVERT JUMPDEST DUP1 PUSH4 0x52ABE4B0 GT PUSH2 0x266 JUMPI DUP1 PUSH4 0x52ABE4B0 EQ PUSH2 0x47A JUMPI DUP1 PUSH4 0x59F6ADC7 EQ PUSH2 0x482 JUMPI DUP1 PUSH4 0x5B72A33A EQ PUSH2 0x495 JUMPI PUSH1 0x0 DUP1 REVERT JUMPDEST DUP1 PUSH4 0x4578AE04 EQ PUSH2 0x45E JUMPI DUP1 PUSH4 0x484D0D9B EQ PUSH2 0x468 JUMPI DUP1 PUSH4 0x4D334494 EQ PUSH2 0x470 JUMPI PUSH1 0x0 DUP1 REVERT JUMPDEST DUP1 PUSH4 0x27E235E3 GT PUSH2 0x2EE JUMPI DUP1 PUSH4 0x37829F36 GT PUSH2 0x2C8 JUMPI DUP1 PUSH4 0x37829F36 EQ PUSH2 0x42F JUMPI DUP1 PUSH4 0x3B7B6188 EQ PUSH2 0x438 JUMPI DUP1 PUSH4 0x43CD8F7E EQ PUSH2 0x44B JUMPI PUSH1 0x0 DUP1 REVERT JUMPDEST DUP1 PUSH4 0x27E235E3 EQ PUSH2 0x3F4 JUMPI DUP1 PUSH4 0x33F8CADE EQ PUSH2 0x414 JUMPI DUP1 PUSH4 0x372500AB EQ PUSH2 0x427 JUMPI PUSH1 0x0 DUP1 REVERT JUMPDEST DUP1 PUSH4 0xA861F2A GT PUSH2 0x31F JUMPI DUP1 PUSH4 0xA861F2A EQ PUSH2 0x3A3 JUMPI DUP1 PUSH4 0xFC63D10 EQ PUSH2 0x3B6 JUMPI DUP1 PUSH4 0x1C16B6E0 EQ PUSH2 0x3E1 JUMPI PUSH1 0x0 DUP1 REVERT JUMPDEST DUP1 PUSH4 0x3E43C3A EQ PUSH2 0x346 JUMPI DUP1 PUSH4 0x5BF77DA EQ PUSH2 0x379 JUMPI DUP1 PUSH4 0x941CB3D EQ PUSH2 0x383 JUMPI JUMPDEST PUSH1 0x0 DUP1 REVERT JUMPDEST PUSH2 0x366 PUSH2 0x354 CALLDATASIZE PUSH1 0x4 PUSH2 0x25D9 JUMP JUMPDEST PUSH1 0x15 PUSH1 0x20 MSTORE PUSH1 0x0 SWAP1 DUP2 MSTORE PUSH1 0x40 SWAP1 KECCAK256 SLOAD DUP2 JUMP JUMPDEST PUSH1 0x40 MLOAD SWAP1 DUP2 MSTORE PUSH1 0x20 ADD JUMPDEST PUSH1 0x40 MLOAD DUP1 SWAP2 SUB SWAP1 RETURN JUMPDEST PUSH2 0x381 PUSH2 0x6EF JUMP JUMPDEST STOP JUMPDEST PUSH2 0x366 PUSH2 0x391 CALLDATASIZE PUSH1 0x4 PUSH2 0x25D9 JUMP JUMPDEST PUSH1 0x14 PUSH1 0x20 MSTORE PUSH1 0x0 SWAP1 DUP2 MSTORE PUSH1 0x40 SWAP1 KECCAK256 SLOAD DUP2 JUMP JUMPDEST PUSH2 0x381 PUSH2 0x3B1 CALLDATASIZE PUSH1 0x4 PUSH2 0x25F4 JUMP JUMPDEST PUSH2 0x7E8 JUMP JUMPDEST PUSH1 0x0 SLOAD PUSH2 0x3C9 SWAP1 PUSH1 0x1 PUSH1 0x1 PUSH1 0xA0 SHL SUB AND DUP2 JUMP JUMPDEST PUSH1 0x40 MLOAD PUSH1 0x1 PUSH1 0x1 PUSH1 0xA0 SHL SUB SWAP1 SWAP2 AND DUP2 MSTORE PUSH1 0x20 ADD PUSH2 0x370 JUMP JUMPDEST PUSH2 0x381 PUSH2 0x3EF CALLDATASIZE PUSH1 0x4 PUSH2 0x25F4 JUMP JUMPDEST PUSH2 0x92B JUMP JUMPDEST PUSH2 0x366 PUSH2 0x402 CALLDATASIZE PUSH1 0x4 PUSH2 0x25D9 JUMP JUMPDEST PUSH1 0x13 PUSH1 0x20 MSTORE PUSH1 0x0 SWAP1 DUP2 MSTORE PUSH1 0x40 SWAP1 KECCAK256 SLOAD DUP2 JUMP JUMPDEST PUSH2 0x381 PUSH2 0x422 CALLDATASIZE PUSH1 0x4 PUSH2 0x25F4 JUMP JUMPDEST PUSH2 0xA62 JUMP JUMPDEST PUSH2 0x381 PUSH2 0xACB JUMP JUMPDEST PUSH2 0x366 PUSH1 0xA SLOAD DUP2 JUMP JUMPDEST PUSH2 0x381 PUSH2 0x446 CALLDATASIZE PUSH1 0x4 PUSH2 0x260D JUMP JUMPDEST PUSH2 0xB71 JUMP JUMPDEST PUSH1 0x2 SLOAD PUSH2 0x3C9 SWAP1 PUSH1 0x1 PUSH1 0x1 PUSH1 0xA0 SHL SUB AND DUP2 JUMP JUMPDEST PUSH2 0x366 PUSH3 0x1BAF80 DUP2 JUMP JUMPDEST PUSH2 0x381 PUSH2 0xD59 JUMP JUMPDEST PUSH2 0x366 PUSH3 0x127500 DUP2 JUMP JUMPDEST PUSH2 0x381 PUSH2 0xE4C JUMP JUMPDEST PUSH2 0x381 PUSH2 0x490 CALLDATASIZE PUSH1 0x4 PUSH2 0x25F4 JUMP JUMPDEST PUSH2 0xF2F JUMP JUMPDEST PUSH2 0x366 PUSH1 0x9 SLOAD DUP2 JUMP JUMPDEST PUSH1 0x1 SLOAD PUSH2 0x3C9 SWAP1 PUSH1 0x1 PUSH1 0x1 PUSH1 0xA0 SHL SUB AND DUP2 JUMP JUMPDEST PUSH2 0x381 PUSH2 0x4BF CALLDATASIZE PUSH1 0x4 PUSH2 0x25F4 JUMP JUMPDEST PUSH2 0xFCB JUMP JUMPDEST PUSH2 0x381 PUSH2 0x4D2 CALLDATASIZE PUSH1 0x4 PUSH2 0x25F4 JUMP JUMPDEST PUSH2 0x112D JUMP JUMPDEST PUSH2 0x366 PUSH3 0x76A700 DUP2 JUMP JUMPDEST PUSH2 0x366 PUSH2 0x124C JUMP JUMPDEST PUSH1 0x6 SLOAD PUSH2 0x3C9 SWAP1 PUSH1 0x1 PUSH1 0x1 PUSH1 0xA0 SHL SUB AND DUP2 JUMP JUMPDEST PUSH2 0x381 PUSH2 0x50A CALLDATASIZE PUSH1 0x4 PUSH2 0x260D JUMP JUMPDEST PUSH2 0x1295 JUMP JUMPDEST PUSH2 0x366 PUSH1 0x8 SLOAD DUP2 JUMP JUMPDEST PUSH2 0x366 PUSH1 0xD SLOAD DUP2 JUMP JUMPDEST PUSH2 0x3C9 PUSH2 0x52F CALLDATASIZE PUSH1 0x4 PUSH2 0x25D9 JUMP JUMPDEST PUSH1 0x19 PUSH1 0x20 MSTORE PUSH1 0x0 SWAP1 DUP2 MSTORE PUSH1 0x40 SWAP1 KECCAK256 SLOAD PUSH1 0x1 PUSH1 0x1 PUSH1 0xA0 SHL SUB AND DUP2 JUMP JUMPDEST PUSH1 0x4 SLOAD PUSH2 0x3C9 SWAP1 PUSH1 0x1 PUSH1 0x1 PUSH1 0xA0 SHL SUB AND DUP2 JUMP JUMPDEST PUSH2 0x366 PUSH1 0x10 SLOAD DUP2 JUMP JUMPDEST PUSH2 0x381 PUSH2 0x574 CALLDATASIZE PUSH1 0x4 PUSH2 0x262F JUMP JUMPDEST PUSH2 0x1594 JUMP JUMPDEST PUSH2 0x366 PUSH1 0xC SLOAD DUP2 JUMP JUMPDEST PUSH2 0x381 PUSH2 0x590 CALLDATASIZE PUSH1 0x4 PUSH2 0x2659 JUMP JUMPDEST PUSH2 0x1618 JUMP JUMPDEST PUSH2 0x381 PUSH2 0x5A3 CALLDATASIZE PUSH1 0x4 PUSH2 0x262F JUMP JUMPDEST PUSH2 0x19B4 JUMP JUMPDEST PUSH2 0x366 PUSH1 0xB SLOAD DUP2 JUMP JUMPDEST PUSH2 0x381 PUSH2 0x5BF CALLDATASIZE PUSH1 0x4 PUSH2 0x25F4 JUMP JUMPDEST PUSH2 0x1B0F JUMP JUMPDEST PUSH1 0x11 SLOAD PUSH2 0x5D1 SWAP1 PUSH1 0xFF AND DUP2 JUMP JUMPDEST PUSH1 0x40 MLOAD SWAP1 ISZERO ISZERO DUP2 MSTORE PUSH1 0x20 ADD PUSH2 0x370 JUMP JUMPDEST PUSH2 0x366 PUSH1 0x7 SLOAD DUP2 JUMP JUMPDEST PUSH2 0x366 PUSH3 0x278D00 DUP2 JUMP JUMPDEST PUSH2 0x381 PUSH2 0x602 CALLDATASIZE PUSH1 0x4 PUSH2 0x25F4 JUMP JUMPDEST PUSH2 0x1C8F JUMP JUMPDEST PUSH2 0x366 PUSH2 0x615 CALLDATASIZE PUSH1 0x4 PUSH2 0x25D9 JUMP JUMPDEST PUSH2 0x1CEE JUMP JUMPDEST PUSH2 0x366 PUSH2 0x628 CALLDATASIZE PUSH1 0x4 PUSH2 0x25D9 JUMP JUMPDEST PUSH1 0x18 PUSH1 0x20 MSTORE PUSH1 0x0 SWAP1 DUP2 MSTORE PUSH1 0x40 SWAP1 KECCAK256 SLOAD DUP2 JUMP JUMPDEST PUSH2 0x366 PUSH1 0xF SLOAD DUP2 JUMP JUMPDEST PUSH1 0x3 SLOAD PUSH2 0x3C9 SWAP1 PUSH1 0x1 PUSH1 0x1 PUSH1 0xA0 SHL SUB AND DUP2 JUMP JUMPDEST PUSH2 0x366 PUSH3 0x93A80 DUP2 JUMP JUMPDEST PUSH2 0x366 PUSH2 0x66E CALLDATASIZE PUSH1 0x4 PUSH2 0x25D9 JUMP JUMPDEST PUSH1 0x16 PUSH1 0x20 MSTORE PUSH1 0x0 SWAP1 DUP2 MSTORE PUSH1 0x40 SWAP1 KECCAK256 SLOAD DUP2 JUMP JUMPDEST PUSH2 0x366 PUSH2 0x68E CALLDATASIZE PUSH1 0x4 PUSH2 0x25D9 JUMP JUMPDEST PUSH1 0x12 PUSH1 0x20 MSTORE PUSH1 0x0 SWAP1 DUP2 MSTORE PUSH1 0x40 SWAP1 KECCAK256 SLOAD DUP2 JUMP JUMPDEST PUSH2 0x366 PUSH2 0x6AE CALLDATASIZE PUSH1 0x4 PUSH2 0x25D9 JUMP JUMPDEST PUSH1 0x17 PUSH1 0x20 MSTORE PUSH1 0x0 SWAP1 DUP2 MSTORE PUSH1 0x40 SWAP1 KECCAK256 SLOAD DUP2 JUMP JUMPDEST PUSH1 0x5 SLOAD PUSH2 0x3C9 SWAP1 PUSH1 0x1 PUSH1 0x1 PUSH1 0xA0 SHL SUB AND DUP2 JUMP JUMPDEST PUSH2 0x381 PUSH2 0x6E1 CALLDATASIZE PUSH1 0x4 PUSH2 0x269A JUMP JUMPDEST PUSH2 0x1E42 JUMP JUMPDEST PUSH2 0x366 PUSH1 0xE SLOAD DUP2 JUMP JUMPDEST PUSH1 0x4 SLOAD PUSH1 0x1 PUSH1 0x1 PUSH1 0xA0 SHL SUB AND CALLER EQ PUSH2 0x74E JUMPI PUSH1 0x40 MLOAD PUSH3 0x461BCD PUSH1 0xE5 SHL DUP2 MSTORE PUSH1 0x20 PUSH1 0x4 DUP3 ADD DUP2 SWAP1 MSTORE PUSH1 0x24 DUP3 ADD MSTORE PUSH32 0x4F6E6C79206F776E65722063616E207769746864726177207377617020666565 PUSH1 0x44 DUP3 ADD MSTORE PUSH1 0x64 ADD JUMPDEST PUSH1 0x40 MLOAD DUP1 SWAP2 SUB SWAP1 REVERT JUMPDEST PUSH1 0x0 PUSH2 0x772 PUSH1 0x64 PUSH2 0x76C PUSH1 0x10 SLOAD PUSH1 0xE SLOAD PUSH2 0x1ED5 SWAP1 SWAP2 SWAP1 PUSH4 0xFFFFFFFF AND JUMP JUMPDEST SWAP1 PUSH2 0x1EEA JUMP JUMPDEST PUSH1 0xE SLOAD SWAP1 SWAP2 POP PUSH2 0x782 SWAP1 DUP3 PUSH2 0x1EF6 JUMP JUMPDEST PUSH1 0xE SSTORE PUSH1 0x4 SLOAD PUSH1 0x0 SLOAD PUSH2 0x7A2 SWAP2 PUSH1 0x1 PUSH1 0x1 PUSH1 0xA0 SHL SUB SWAP2 DUP3 AND SWAP2 AND DUP4 PUSH2 0x1F02 JUMP JUMPDEST PUSH1 0x4 SLOAD PUSH1 0x40 MLOAD DUP3 DUP2 MSTORE PUSH1 0x1 PUSH1 0x1 PUSH1 0xA0 SHL SUB SWAP1 SWAP2 AND SWAP1 PUSH32 0xFE3A1F8A2C5C7B93B78F378D2D615C31E557981379DE63135D4AD26285D2609F SWAP1 PUSH1 0x20 ADD JUMPDEST PUSH1 0x40 MLOAD DUP1 SWAP2 SUB SWAP1 LOG2 POP JUMP JUMPDEST PUSH1 0x0 DUP2 GT PUSH2 0x85E JUMPI PUSH1 0x40 MLOAD PUSH3 0x461BCD PUSH1 0xE5 SHL DUP2 MSTORE PUSH1 0x20 PUSH1 0x4 DUP3 ADD MSTORE PUSH1 0x2D PUSH1 0x24 DUP3 ADD MSTORE PUSH32 0x4C697175696469747920746F6B656E20616D6F756E74206D7573742062652067 PUSH1 0x44 DUP3 ADD MSTORE PUSH32 0x726561746572207468616E203000000000000000000000000000000000000000 PUSH1 0x64 DUP3 ADD MSTORE PUSH1 0x84 ADD PUSH2 0x745 JUMP JUMPDEST PUSH1 0x2 SLOAD PUSH1 0x40 MLOAD PUSH4 0x2770A7EB PUSH1 0xE2 SHL DUP2 MSTORE CALLER PUSH1 0x4 DUP3 ADD MSTORE PUSH1 0x24 DUP2 ADD DUP4 SWAP1 MSTORE PUSH1 0x1 PUSH1 0x1 PUSH1 0xA0 SHL SUB SWAP1 SWAP2 AND SWAP1 PUSH4 0x9DC29FAC SWAP1 PUSH1 0x44 ADD PUSH1 0x0 PUSH1 0x40 MLOAD DUP1 DUP4 SUB DUP2 PUSH1 0x0 DUP8 DUP1 EXTCODESIZE ISZERO DUP1 ISZERO PUSH2 0x8AA JUMPI PUSH1 0x0 DUP1 REVERT JUMPDEST POP GAS CALL ISZERO DUP1 ISZERO PUSH2 0x8BE JUMPI RETURNDATASIZE PUSH1 0x0 DUP1 RETURNDATACOPY RETURNDATASIZE PUSH1 0x0 REVERT JUMPDEST POP POP PUSH1 0x0 DUP1 SLOAD PUSH2 0x8DB SWAP4 POP PUSH1 0x1 PUSH1 0x1 PUSH1 0xA0 SHL SUB AND SWAP2 POP CALLER SWAP1 PUSH2 0x1F02 JUMP JUMPDEST PUSH1 0x1 SLOAD PUSH2 0x8F3 SWAP1 PUSH1 0x1 PUSH1 0x1 PUSH1 0xA0 SHL SUB AND CALLER PUSH1 0x0 PUSH2 0x1F02 JUMP JUMPDEST PUSH1 0x40 DUP1 MLOAD PUSH1 0x0 DUP1 DUP3 MSTORE PUSH1 0x20 DUP3 ADD MSTORE CALLER SWAP2 PUSH32 0xAC927268EA9AE2E55027E6AB727FC2DB8E3EA48C56C658223A1074567E4298C0 SWAP2 ADD PUSH2 0x7DD JUMP JUMPDEST PUSH1 0x0 DUP2 GT PUSH2 0x98C JUMPI PUSH1 0x40 MLOAD PUSH3 0x461BCD PUSH1 0xE5 SHL DUP2 MSTORE PUSH1 0x20 PUSH1 0x4 DUP3 ADD MSTORE PUSH1 0x28 PUSH1 0x24 DUP3 ADD MSTORE PUSH32 0x436F6C6C61746572616C20616D6F756E74206D75737420626520677265617465 PUSH1 0x44 DUP3 ADD MSTORE PUSH8 0x72207468616E203 PUSH1 0xC4 SHL PUSH1 0x64 DUP3 ADD MSTORE PUSH1 0x84 ADD PUSH2 0x745 JUMP JUMPDEST CALLER PUSH1 0x0 SWAP1 DUP2 MSTORE PUSH1 0x15 PUSH1 0x20 MSTORE PUSH1 0x40 SWAP1 KECCAK256 SLOAD DUP2 GT ISZERO PUSH2 0x9EB JUMPI PUSH1 0x40 MLOAD PUSH3 0x461BCD PUSH1 0xE5 SHL DUP2 MSTORE PUSH1 0x20 PUSH1 0x4 DUP3 ADD MSTORE PUSH1 0x17 PUSH1 0x24 DUP3 ADD MSTORE PUSH32 0x4E6F7420656E6F75676820636F6C6C61746572616C2041000000000000000000 PUSH1 0x44 DUP3 ADD MSTORE PUSH1 0x64 ADD PUSH2 0x745 JUMP JUMPDEST CALLER PUSH1 0x0 SWAP1 DUP2 MSTORE PUSH1 0x15 PUSH1 0x20 MSTORE PUSH1 0x40 SWAP1 KECCAK256 SLOAD PUSH2 0xA05 SWAP1 DUP3 PUSH2 0x1EF6 JUMP JUMPDEST CALLER PUSH1 0x0 DUP2 DUP2 MSTORE PUSH1 0x15 PUSH1 0x20 MSTORE PUSH1 0x40 DUP2 KECCAK256 SWAP3 SWAP1 SWAP3 SSTORE SWAP1 SLOAD PUSH2 0xA30 SWAP2 PUSH1 0x1 PUSH1 0x1 PUSH1 0xA0 SHL SUB SWAP1 SWAP2 AND SWAP1 DUP4 PUSH2 0x1F02 JUMP JUMPDEST PUSH1 0x40 MLOAD DUP2 DUP2 MSTORE CALLER SWAP1 PUSH32 0xC30FCFBCAAC9E0DEFFA719714EAA82396FF506A0D0D0EEBE170830177288715D SWAP1 PUSH1 0x20 ADD PUSH2 0x7DD JUMP JUMPDEST PUSH1 0x4 SLOAD PUSH1 0x1 PUSH1 0x1 PUSH1 0xA0 SHL SUB AND CALLER EQ PUSH2 0xAC6 JUMPI PUSH1 0x40 MLOAD PUSH3 0x461BCD PUSH1 0xE5 SHL DUP2 MSTORE PUSH1 0x20 PUSH1 0x4 DUP3 ADD MSTORE PUSH1 0x21 PUSH1 0x24 DUP3 ADD MSTORE PUSH32 0x4F6E6C79206F776E65722063616E20757064617465206F776E65722073686172 PUSH1 0x44 DUP3 ADD MSTORE PUSH1 0x65 PUSH1 0xF8 SHL PUSH1 0x64 DUP3 ADD MSTORE PUSH1 0x84 ADD PUSH2 0x745 JUMP JUMPDEST PUSH1 0x10 SSTORE JUMP JUMPDEST PUSH1 0x0 PUSH2 0xAD6 CALLER PUSH2 0x1CEE JUMP JUMPDEST SWAP1 POP PUSH1 0x0 DUP2 GT PUSH2 0xB28 JUMPI PUSH1 0x40 MLOAD PUSH3 0x461BCD PUSH1 0xE5 SHL DUP2 MSTORE PUSH1 0x20 PUSH1 0x4 DUP3 ADD MSTORE PUSH1 0x13 PUSH1 0x24 DUP3 ADD MSTORE PUSH32 0x4E6F207265776172647320746F20636C61696D00000000000000000000000000 PUSH1 0x44 DUP3 ADD MSTORE PUSH1 0x64 ADD PUSH2 0x745 JUMP JUMPDEST PUSH1 0x5 SLOAD PUSH2 0xB3F SWAP1 PUSH1 0x1 PUSH1 0x1 PUSH1 0xA0 SHL SUB AND CALLER DUP4 PUSH2 0x1F02 JUMP JUMPDEST PUSH1 0x40 MLOAD DUP2 DUP2 MSTORE CALLER SWAP1 PUSH32 0xFC30CDDEA38E2BF4D6EA7D3F9ED3B6AD7F176419F4963BD81318067A4AEE73FE SWAP1 PUSH1 0x20 ADD PUSH2 0x7DD JUMP JUMPDEST PUSH1 0x0 DUP3 GT PUSH2 0xBC1 JUMPI PUSH1 0x40 MLOAD PUSH3 0x461BCD PUSH1 0xE5 SHL DUP2 MSTORE PUSH1 0x20 PUSH1 0x4 DUP3 ADD MSTORE PUSH1 0x1D PUSH1 0x24 DUP3 ADD MSTORE PUSH32 0x416D6F756E74206D7573742062652067726561746572207468616E2030000000 PUSH1 0x44 DUP3 ADD MSTORE PUSH1 0x64 ADD PUSH2 0x745 JUMP JUMPDEST PUSH3 0x93A80 DUP2 EQ DUP1 PUSH2 0xBD4 JUMPI POP PUSH3 0x127500 DUP2 EQ JUMPDEST DUP1 PUSH2 0xBE1 JUMPI POP PUSH3 0x1BAF80 DUP2 EQ JUMPDEST PUSH2 0xC2D JUMPI PUSH1 0x40 MLOAD PUSH3 0x461BCD PUSH1 0xE5 SHL DUP2 MSTORE PUSH1 0x20 PUSH1 0x4 DUP3 ADD MSTORE PUSH1 0x18 PUSH1 0x24 DUP3 ADD MSTORE PUSH32 0x496E76616C6964207374616B696E67206475726174696F6E0000000000000000 PUSH1 0x44 DUP3 ADD MSTORE PUSH1 0x64 ADD PUSH2 0x745 JUMP JUMPDEST PUSH1 0x1 PUSH1 0xD PUSH1 0x0 DUP3 DUP3 SLOAD PUSH2 0xC40 SWAP2 SWAP1 PUSH2 0x26CD JUMP JUMPDEST SWAP1 SWAP2 SSTORE POP POP PUSH1 0x2 SLOAD PUSH1 0x40 MLOAD PUSH4 0x21421707 PUSH1 0xE1 SHL DUP2 MSTORE CALLER PUSH1 0x4 DUP3 ADD MSTORE ADDRESS PUSH1 0x24 DUP3 ADD MSTORE PUSH1 0x44 DUP2 ADD DUP5 SWAP1 MSTORE PUSH1 0x1 PUSH1 0x1 PUSH1 0xA0 SHL SUB SWAP1 SWAP2 AND SWAP1 PUSH4 0x42842E0E SWAP1 PUSH1 0x64 ADD PUSH1 0x0 PUSH1 0x40 MLOAD DUP1 DUP4 SUB DUP2 PUSH1 0x0 DUP8 DUP1 EXTCODESIZE ISZERO DUP1 ISZERO PUSH2 0xC97 JUMPI PUSH1 0x0 DUP1 REVERT JUMPDEST POP GAS CALL ISZERO DUP1 ISZERO PUSH2 0xCAB JUMPI RETURNDATASIZE PUSH1 0x0 DUP1 RETURNDATACOPY RETURNDATASIZE PUSH1 0x0 REVERT JUMPDEST POP POP PUSH1 0x3 SLOAD PUSH1 0x40 MLOAD PUSH4 0xC51B88F PUSH1 0xE0 SHL DUP2 MSTORE CALLER PUSH1 0x4 DUP3 ADD MSTORE PUSH1 0x24 DUP2 ADD DUP7 SWAP1 MSTORE PUSH1 0x44 DUP2 ADD DUP6 SWAP1 MSTORE PUSH1 0x1 PUSH1 0x1 PUSH1 0xA0 SHL SUB SWAP1 SWAP2 AND SWAP3 POP PUSH4 0xC51B88F SWAP2 POP PUSH1 0x64 ADD PUSH1 0x0 PUSH1 0x40 MLOAD DUP1 DUP4 SUB DUP2 PUSH1 0x0 DUP8 DUP1 EXTCODESIZE ISZERO DUP1 ISZERO PUSH2 0xD02 JUMPI PUSH1 0x0 DUP1 REVERT JUMPDEST POP GAS CALL ISZERO DUP1 ISZERO PUSH2 0xD16 JUMPI RETURNDATASIZE PUSH1 0x0 DUP1 RETURNDATACOPY RETURNDATASIZE PUSH1 0x0 REVERT JUMPDEST POP POP PUSH1 0x40 DUP1 MLOAD DUP6 DUP2 MSTORE PUSH1 0x20 DUP2 ADD DUP6 SWAP1 MSTORE CALLER SWAP4 POP PUSH32 0xDD2A19C3BDD089CBE77C04F5655F83DE0504D6140D12C8667646F55D0557C4DC SWAP3 POP ADD PUSH1 0x40 MLOAD DUP1 SWAP2 SUB SWAP1 LOG2 POP POP JUMP JUMPDEST PUSH1 0x4 SLOAD PUSH1 0x1 PUSH1 0x1 PUSH1 0xA0 SHL SUB AND CALLER EQ PUSH2 0xDBF JUMPI PUSH1 0x40 MLOAD PUSH3 0x461BCD PUSH1 0xE5 SHL DUP2 MSTORE PUSH1 0x20 PUSH1 0x4 DUP3 ADD MSTORE PUSH1 0x24 DUP1 DUP3 ADD MSTORE PUSH32 0x4F6E6C79206F776E65722063616E20776974686472617720696E746572657374 PUSH1 0x44 DUP3 ADD MSTORE PUSH4 0x20666565 PUSH1 0xE0 SHL PUSH1 0x64 DUP3 ADD MSTORE PUSH1 0x84 ADD PUSH2 0x745 JUMP JUMPDEST PUSH1 0x0 PUSH2 0xDDD PUSH1 0x64 PUSH2 0x76C PUSH1 0x10 SLOAD PUSH1 0xF SLOAD PUSH2 0x1ED5 SWAP1 SWAP2 SWAP1 PUSH4 0xFFFFFFFF AND JUMP JUMPDEST PUSH1 0xF SLOAD SWAP1 SWAP2 POP PUSH2 0xDED SWAP1 DUP3 PUSH2 0x1EF6 JUMP JUMPDEST PUSH1 0xF SSTORE PUSH1 0x4 SLOAD PUSH1 0x0 SLOAD PUSH2 0xE0D SWAP2 PUSH1 0x1 PUSH1 0x1 PUSH1 0xA0 SHL SUB SWAP2 DUP3 AND SWAP2 AND DUP4 PUSH2 0x1F02 JUMP JUMPDEST PUSH1 0x4 SLOAD PUSH1 0x40 MLOAD DUP3 DUP2 MSTORE PUSH1 0x1 PUSH1 0x1 PUSH1 0xA0 SHL SUB SWAP1 SWAP2 AND SWAP1 PUSH32 0xC5408A91AB755D718179693FAA93AA703423884985A136020584C2A555622ABD SWAP1 PUSH1 0x20 ADD PUSH2 0x7DD JUMP JUMPDEST CALLER PUSH1 0x0 SWAP1 DUP2 MSTORE PUSH1 0x16 PUSH1 0x20 SWAP1 DUP2 MSTORE PUSH1 0x40 DUP1 DUP4 KECCAK256 SLOAD PUSH1 0x15 SWAP1 SWAP3 MSTORE DUP3 KECCAK256 SLOAD PUSH2 0xE70 SWAP2 PUSH2 0x1F7B JUMP JUMPDEST SWAP1 POP PUSH1 0x0 DUP2 GT PUSH2 0xEC2 JUMPI PUSH1 0x40 MLOAD PUSH3 0x461BCD PUSH1 0xE5 SHL DUP2 MSTORE PUSH1 0x20 PUSH1 0x4 DUP3 ADD MSTORE PUSH1 0x1A PUSH1 0x24 DUP3 ADD MSTORE PUSH32 0x4E6F20636F6C6C61746572616C20746F206C6971756964617465000000000000 PUSH1 0x44 DUP3 ADD MSTORE PUSH1 0x64 ADD PUSH2 0x745 JUMP JUMPDEST CALLER PUSH1 0x0 SWAP1 DUP2 MSTORE PUSH1 0x15 PUSH1 0x20 SWAP1 DUP2 MSTORE PUSH1 0x40 DUP1 DUP4 KECCAK256 DUP4 SWAP1 SSTORE PUSH1 0x16 SWAP1 SWAP2 MSTORE DUP2 KECCAK256 DUP2 SWAP1 SSTORE PUSH1 0x4 SLOAD SWAP1 SLOAD PUSH2 0xEFD SWAP2 PUSH1 0x1 PUSH1 0x1 PUSH1 0xA0 SHL SUB SWAP2 DUP3 AND SWAP2 AND DUP4 PUSH2 0x1F02 JUMP JUMPDEST PUSH1 0x40 MLOAD DUP2 DUP2 MSTORE CALLER SWAP1 PUSH32 0xFA149B6F966139CC74DFAF2610F7B54D8823DBEED646B7DA48D8144F510C3F21 SWAP1 PUSH1 0x20 ADD PUSH2 0x7DD JUMP JUMPDEST PUSH1 0x11 SLOAD PUSH1 0xFF AND PUSH2 0xF81 JUMPI PUSH1 0x40 MLOAD PUSH3 0x461BCD PUSH1 0xE5 SHL DUP2 MSTORE PUSH1 0x20 PUSH1 0x4 DUP3 ADD MSTORE PUSH1 0x18 PUSH1 0x24 DUP3 ADD MSTORE PUSH32 0x506F6F6C206973206E6F7420696E63656E746976697A65640000000000000000 PUSH1 0x44 DUP3 ADD MSTORE PUSH1 0x64 ADD PUSH2 0x745 JUMP JUMPDEST PUSH1 0x5 SLOAD PUSH2 0xF99 SWAP1 PUSH1 0x1 PUSH1 0x1 PUSH1 0xA0 SHL SUB AND CALLER ADDRESS DUP5 PUSH2 0x1F87 JUMP JUMPDEST PUSH1 0x40 MLOAD DUP2 DUP2 MSTORE CALLER SWAP1 PUSH32 0xF64D4E2AE91601D51FF62B8199E65D003375D548921395402DF0EB11A18EE89D SWAP1 PUSH1 0x20 ADD PUSH2 0x7DD JUMP JUMPDEST PUSH1 0x0 DUP2 GT PUSH2 0x101B JUMPI PUSH1 0x40 MLOAD PUSH3 0x461BCD PUSH1 0xE5 SHL DUP2 MSTORE PUSH1 0x20 PUSH1 0x4 DUP3 ADD MSTORE PUSH1 0x1D PUSH1 0x24 DUP3 ADD MSTORE PUSH32 0x416D6F756E74206D7573742062652067726561746572207468616E2030000000 PUSH1 0x44 DUP3 ADD MSTORE PUSH1 0x64 ADD PUSH2 0x745 JUMP JUMPDEST PUSH1 0x3 SLOAD PUSH1 0x40 MLOAD PUSH4 0x6153397 PUSH1 0xE5 SHL DUP2 MSTORE CALLER PUSH1 0x4 DUP3 ADD MSTORE PUSH1 0x24 DUP2 ADD DUP4 SWAP1 MSTORE PUSH1 0x1 PUSH1 0x1 PUSH1 0xA0 SHL SUB SWAP1 SWAP2 AND SWAP1 PUSH4 0xC2A672E0 SWAP1 PUSH1 0x44 ADD PUSH1 0x0 PUSH1 0x40 MLOAD DUP1 DUP4 SUB DUP2 PUSH1 0x0 DUP8 DUP1 EXTCODESIZE ISZERO DUP1 ISZERO PUSH2 0x1067 JUMPI PUSH1 0x0 DUP1 REVERT JUMPDEST POP GAS CALL ISZERO DUP1 ISZERO PUSH2 0x107B JUMPI RETURNDATASIZE PUSH1 0x0 DUP1 RETURNDATACOPY RETURNDATASIZE PUSH1 0x0 REVERT JUMPDEST POP POP PUSH1 0x2 SLOAD PUSH1 0x40 MLOAD PUSH4 0x2770A7EB PUSH1 0xE2 SHL DUP2 MSTORE CALLER PUSH1 0x4 DUP3 ADD MSTORE PUSH1 0x24 DUP2 ADD DUP6 SWAP1 MSTORE PUSH1 0x1 PUSH1 0x1 PUSH1 0xA0 SHL SUB SWAP1 SWAP2 AND SWAP3 POP PUSH4 0x9DC29FAC SWAP2 POP PUSH1 0x44 ADD PUSH1 0x0 PUSH1 0x40 MLOAD DUP1 DUP4 SUB DUP2 PUSH1 0x0 DUP8 DUP1 EXTCODESIZE ISZERO DUP1 ISZERO PUSH2 0x10CB JUMPI PUSH1 0x0 DUP1 REVERT JUMPDEST POP GAS CALL ISZERO DUP1 ISZERO PUSH2 0x10DF JUMPI RETURNDATASIZE PUSH1 0x0 DUP1 RETURNDATACOPY RETURNDATASIZE PUSH1 0x0 REVERT JUMPDEST POP POP POP POP PUSH1 0x1 PUSH1 0xD PUSH1 0x0 DUP3 DUP3 SLOAD PUSH2 0x10F6 SWAP2 SWAP1 PUSH2 0x26E0 JUMP JUMPDEST SWAP1 SWAP2 SSTORE POP POP PUSH1 0x40 MLOAD DUP2 DUP2 MSTORE CALLER SWAP1 PUSH32 0x9845E367B683334E5C0B12D7B81721AC518E649376FA65E3D68324E8F34F2679 SWAP1 PUSH1 0x20 ADD PUSH2 0x7DD JUMP JUMPDEST CALLER PUSH1 0x0 SWAP1 DUP2 MSTORE PUSH1 0x15 PUSH1 0x20 MSTORE PUSH1 0x40 SWAP1 KECCAK256 SLOAD DUP2 GT ISZERO DUP1 PUSH2 0x115A JUMPI POP CALLER PUSH1 0x0 SWAP1 DUP2 MSTORE PUSH1 0x16 PUSH1 0x20 MSTORE PUSH1 0x40 SWAP1 KECCAK256 SLOAD DUP2 GT ISZERO JUMPDEST PUSH2 0x11A6 JUMPI PUSH1 0x40 MLOAD PUSH3 0x461BCD PUSH1 0xE5 SHL DUP2 MSTORE PUSH1 0x20 PUSH1 0x4 DUP3 ADD MSTORE PUSH1 0x17 PUSH1 0x24 DUP3 ADD MSTORE PUSH32 0x496E73756666696369656E7420636F6C6C61746572616C000000000000000000 PUSH1 0x44 DUP3 ADD MSTORE PUSH1 0x64 ADD PUSH2 0x745 JUMP JUMPDEST CALLER PUSH1 0x0 SWAP1 DUP2 MSTORE PUSH1 0x15 PUSH1 0x20 MSTORE PUSH1 0x40 SWAP1 KECCAK256 SLOAD DUP2 GT PUSH2 0x1206 JUMPI CALLER PUSH1 0x0 SWAP1 DUP2 MSTORE PUSH1 0x15 PUSH1 0x20 MSTORE PUSH1 0x40 SWAP1 KECCAK256 SLOAD PUSH2 0x11D6 SWAP1 DUP3 PUSH2 0x1EF6 JUMP JUMPDEST CALLER PUSH1 0x0 DUP2 DUP2 MSTORE PUSH1 0x15 PUSH1 0x20 MSTORE PUSH1 0x40 DUP2 KECCAK256 SWAP3 SWAP1 SWAP3 SSTORE SWAP1 SLOAD PUSH2 0x1201 SWAP2 PUSH1 0x1 PUSH1 0x1 PUSH1 0xA0 SHL SUB SWAP1 SWAP2 AND SWAP1 DUP4 PUSH2 0x1F02 JUMP JUMPDEST PUSH2 0xA30 JUMP JUMPDEST CALLER PUSH1 0x0 SWAP1 DUP2 MSTORE PUSH1 0x16 PUSH1 0x20 MSTORE PUSH1 0x40 SWAP1 KECCAK256 SLOAD PUSH2 0x1220 SWAP1 DUP3 PUSH2 0x1EF6 JUMP JUMPDEST CALLER PUSH1 0x0 DUP2 DUP2 MSTORE PUSH1 0x16 PUSH1 0x20 MSTORE PUSH1 0x40 SWAP1 KECCAK256 SWAP2 SWAP1 SWAP2 SSTORE PUSH1 0x1 SLOAD PUSH2 0xA30 SWAP2 PUSH1 0x1 PUSH1 0x1 PUSH1 0xA0 SHL SUB SWAP1 SWAP2 AND SWAP1 DUP4 PUSH2 0x1F02 JUMP JUMPDEST CALLER PUSH1 0x0 SWAP1 DUP2 MSTORE PUSH1 0x16 PUSH1 0x20 SWAP1 DUP2 MSTORE PUSH1 0x40 DUP1 DUP4 KECCAK256 SLOAD PUSH1 0x15 SWAP1 SWAP3 MSTORE DUP3 KECCAK256 SLOAD DUP3 SWAP2 PUSH2 0x1273 SWAP2 SWAP1 PUSH2 0x1F7B JUMP JUMPDEST SWAP1 POP PUSH2 0x128F PUSH1 0x64 PUSH2 0x76C PUSH1 0x8 SLOAD DUP5 PUSH2 0x1ED5 SWAP1 SWAP2 SWAP1 PUSH4 0xFFFFFFFF AND JUMP JUMPDEST SWAP2 POP POP SWAP1 JUMP JUMPDEST PUSH1 0x0 DUP3 GT DUP1 ISZERO PUSH2 0x12A5 JUMPI POP PUSH1 0x0 DUP2 GT JUMPDEST PUSH2 0x12FD JUMPI PUSH1 0x40 MLOAD PUSH3 0x461BCD PUSH1 0xE5 SHL DUP2 MSTORE PUSH1 0x20 PUSH1 0x4 DUP3 ADD MSTORE PUSH1 0x24 DUP1 DUP3 ADD MSTORE PUSH32 0x546F6B656E20616D6F756E7473206D7573742062652067726561746572207468 PUSH1 0x44 DUP3 ADD MSTORE PUSH4 0x616E203 PUSH1 0xE4 SHL PUSH1 0x64 DUP3 ADD MSTORE PUSH1 0x84 ADD PUSH2 0x745 JUMP JUMPDEST PUSH1 0x0 SLOAD PUSH2 0x1315 SWAP1 PUSH1 0x1 PUSH1 0x1 PUSH1 0xA0 SHL SUB AND CALLER ADDRESS DUP6 PUSH2 0x1F87 JUMP JUMPDEST PUSH1 0x1 SLOAD PUSH2 0x132D SWAP1 PUSH1 0x1 PUSH1 0x1 PUSH1 0xA0 SHL SUB AND CALLER ADDRESS DUP5 PUSH2 0x1F87 JUMP JUMPDEST PUSH1 0x0 DUP1 PUSH1 0x2 PUSH1 0x0 SWAP1 SLOAD SWAP1 PUSH2 0x100 EXP SWAP1 DIV PUSH1 0x1 PUSH1 0x1 PUSH1 0xA0 SHL SUB AND PUSH1 0x1 PUSH1 0x1 PUSH1 0xA0 SHL SUB AND PUSH4 0x18160DDD PUSH1 0x40 MLOAD DUP2 PUSH4 0xFFFFFFFF AND PUSH1 0xE0 SHL DUP2 MSTORE PUSH1 0x4 ADD PUSH1 0x20 PUSH1 0x40 MLOAD DUP1 DUP4 SUB DUP2 DUP7 GAS STATICCALL ISZERO DUP1 ISZERO PUSH2 0x1383 JUMPI RETURNDATASIZE PUSH1 0x0 DUP1 RETURNDATACOPY RETURNDATASIZE PUSH1 0x0 REVERT JUMPDEST POP POP POP POP PUSH1 0x40 MLOAD RETURNDATASIZE PUSH1 0x1F NOT PUSH1 0x1F DUP3 ADD AND DUP3 ADD DUP1 PUSH1 0x40 MSTORE POP DUP2 ADD SWAP1 PUSH2 0x13A7 SWAP2 SWAP1 PUSH2 0x26F3 JUMP JUMPDEST SWAP1 POP DUP1 PUSH1 0x0 SUB PUSH2 0x13C2 JUMPI PUSH2 0x13BB DUP5 DUP5 PUSH2 0x1ED5 JUMP JUMPDEST SWAP2 POP PUSH2 0x14DD JUMP JUMPDEST PUSH1 0x0 DUP1 SLOAD PUSH1 0x40 MLOAD PUSH4 0x70A08231 PUSH1 0xE0 SHL DUP2 MSTORE ADDRESS PUSH1 0x4 DUP3 ADD MSTORE PUSH1 0x1 PUSH1 0x1 PUSH1 0xA0 SHL SUB SWAP1 SWAP2 AND SWAP1 PUSH4 0x70A08231 SWAP1 PUSH1 0x24 ADD PUSH1 0x20 PUSH1 0x40 MLOAD DUP1 DUP4 SUB DUP2 DUP7 GAS STATICCALL ISZERO DUP1 ISZERO PUSH2 0x140B JUMPI RETURNDATASIZE PUSH1 0x0 DUP1 RETURNDATACOPY RETURNDATASIZE PUSH1 0x0 REVERT JUMPDEST POP POP POP POP PUSH1 0x40 MLOAD RETURNDATASIZE PUSH1 0x1F NOT PUSH1 0x1F DUP3 ADD AND DUP3 ADD DUP1 PUSH1 0x40 MSTORE POP DUP2 ADD SWAP1 PUSH2 0x142F SWAP2 SWAP1 PUSH2 0x26F3 JUMP JUMPDEST PUSH1 0x1 SLOAD PUSH1 0x40 MLOAD PUSH4 0x70A08231 PUSH1 0xE0 SHL DUP2 MSTORE ADDRESS PUSH1 0x4 DUP3 ADD MSTORE SWAP2 SWAP3 POP PUSH1 0x0 SWAP2 PUSH1 0x1 PUSH1 0x1 PUSH1 0xA0 SHL SUB SWAP1 SWAP2 AND SWAP1 PUSH4 0x70A08231 SWAP1 PUSH1 0x24 ADD PUSH1 0x20 PUSH1 0x40 MLOAD DUP1 DUP4 SUB DUP2 DUP7 GAS STATICCALL ISZERO DUP1 ISZERO PUSH2 0x147D JUMPI RETURNDATASIZE PUSH1 0x0 DUP1 RETURNDATACOPY RETURNDATASIZE PUSH1 0x0 REVERT JUMPDEST POP POP POP POP PUSH1 0x40 MLOAD RETURNDATASIZE PUSH1 0x1F NOT PUSH1 0x1F DUP3 ADD AND DUP3 ADD DUP1 PUSH1 0x40 MSTORE POP DUP2 ADD SWAP1 PUSH2 0x14A1 SWAP2 SWAP1 PUSH2 0x26F3 JUMP JUMPDEST SWAP1 POP PUSH1 0x0 PUSH2 0x14B3 DUP4 PUSH2 0x76C DUP10 DUP8 PUSH2 0x1ED5 JUMP JUMPDEST SWAP1 POP PUSH1 0x0 PUSH2 0x14C5 DUP4 PUSH2 0x76C DUP10 DUP9 PUSH2 0x1ED5 JUMP JUMPDEST SWAP1 POP DUP1 DUP3 LT PUSH2 0x14D4 JUMPI DUP1 PUSH2 0x14D6 JUMP JUMPDEST DUP2 JUMPDEST SWAP6 POP POP POP POP POP JUMPDEST PUSH1 0x2 SLOAD PUSH1 0x40 MLOAD PUSH4 0x40C10F19 PUSH1 0xE0 SHL DUP2 MSTORE ADDRESS PUSH1 0x4 DUP3 ADD MSTORE PUSH1 0x24 DUP2 ADD DUP5 SWAP1 MSTORE PUSH1 0x1 PUSH1 0x1 PUSH1 0xA0 SHL SUB SWAP1 SWAP2 AND SWAP1 PUSH4 0x40C10F19 SWAP1 PUSH1 0x44 ADD PUSH1 0x0 PUSH1 0x40 MLOAD DUP1 DUP4 SUB DUP2 PUSH1 0x0 DUP8 DUP1 EXTCODESIZE ISZERO DUP1 ISZERO PUSH2 0x1529 JUMPI PUSH1 0x0 DUP1 REVERT JUMPDEST POP GAS CALL ISZERO DUP1 ISZERO PUSH2 0x153D JUMPI RETURNDATASIZE PUSH1 0x0 DUP1 RETURNDATACOPY RETURNDATASIZE PUSH1 0x0 REVERT JUMPDEST POP POP POP POP PUSH2 0x154B CALLER DUP4 PUSH2 0x1FC6 JUMP JUMPDEST PUSH1 0x40 DUP1 MLOAD DUP6 DUP2 MSTORE PUSH1 0x20 DUP2 ADD DUP6 SWAP1 MSTORE SWAP1 DUP2 ADD DUP4 SWAP1 MSTORE CALLER SWAP1 PUSH32 0x3BCA7014F4C0CCC8016338C79F4C00E82068DBADAF4F01CA5449040FDD39F500 SWAP1 PUSH1 0x60 ADD PUSH1 0x40 MLOAD DUP1 SWAP2 SUB SWAP1 LOG2 POP POP POP POP JUMP JUMPDEST PUSH1 0x0 DUP2 GT PUSH2 0x15F0 JUMPI PUSH1 0x40 MLOAD PUSH3 0x461BCD PUSH1 0xE5 SHL DUP2 MSTORE PUSH1 0x20 PUSH1 0x4 DUP3 ADD MSTORE PUSH1 0x23 PUSH1 0x24 DUP3 ADD MSTORE PUSH32 0x546F6B656E20616D6F756E74206D757374206265206772656174657220746861 PUSH1 0x44 DUP3 ADD MSTORE PUSH3 0x6E203 PUSH1 0xEC SHL PUSH1 0x64 DUP3 ADD MSTORE PUSH1 0x84 ADD PUSH2 0x745 JUMP JUMPDEST PUSH1 0x6 SLOAD PUSH1 0x1 PUSH1 0x1 PUSH1 0xA0 SHL SUB AND PUSH2 0x160E JUMPI PUSH2 0x160A DUP3 DUP3 PUSH2 0x2084 JUMP JUMPDEST POP POP JUMP JUMPDEST PUSH2 0x160A DUP3 DUP3 PUSH2 0x221B JUMP JUMPDEST PUSH1 0x0 DUP3 GT PUSH2 0x1674 JUMPI PUSH1 0x40 MLOAD PUSH3 0x461BCD PUSH1 0xE5 SHL DUP2 MSTORE PUSH1 0x20 PUSH1 0x4 DUP3 ADD MSTORE PUSH1 0x23 PUSH1 0x24 DUP3 ADD MSTORE PUSH32 0x546F6B656E20616D6F756E74206D757374206265206772656174657220746861 PUSH1 0x44 DUP3 ADD MSTORE PUSH3 0x6E203 PUSH1 0xEC SHL PUSH1 0x64 DUP3 ADD MSTORE PUSH1 0x84 ADD PUSH2 0x745 JUMP JUMPDEST PUSH3 0x278D00 DUP2 EQ DUP1 PUSH2 0x1687 JUMPI POP PUSH3 0x76A700 DUP2 EQ JUMPDEST PUSH2 0x16D3 JUMPI PUSH1 0x40 MLOAD PUSH3 0x461BCD PUSH1 0xE5 SHL DUP2 MSTORE PUSH1 0x20 PUSH1 0x4 DUP3 ADD MSTORE PUSH1 0x15 PUSH1 0x24 DUP3 ADD MSTORE PUSH32 0x496E76616C6964206C6F616E206475726174696F6E0000000000000000000000 PUSH1 0x44 DUP3 ADD MSTORE PUSH1 0x64 ADD PUSH2 0x745 JUMP JUMPDEST PUSH1 0x0 DUP1 SLOAD DUP2 SWAP1 DUP2 SWAP1 PUSH1 0x1 PUSH1 0x1 PUSH1 0xA0 SHL SUB SWAP1 DUP2 AND SWAP1 DUP8 AND SUB PUSH2 0x170B JUMPI POP POP PUSH1 0x1 SLOAD PUSH1 0x0 SLOAD DUP5 SWAP3 POP PUSH1 0x1 PUSH1 0x1 PUSH1 0xA0 SHL SUB SWAP2 DUP3 AND SWAP2 AND PUSH2 0x1786 JUMP JUMPDEST PUSH1 0x1 SLOAD PUSH1 0x1 PUSH1 0x1 PUSH1 0xA0 SHL SUB SWAP1 DUP2 AND SWAP1 DUP8 AND SUB PUSH2 0x173E JUMPI POP POP PUSH1 0x0 SLOAD PUSH1 0x1 SLOAD DUP5 SWAP3 POP PUSH1 0x1 PUSH1 0x1 PUSH1 0xA0 SHL SUB SWAP2 DUP3 AND SWAP2 AND PUSH2 0x1786 JUMP JUMPDEST PUSH1 0x40 MLOAD PUSH3 0x461BCD PUSH1 0xE5 SHL DUP2 MSTORE PUSH1 0x20 PUSH1 0x4 DUP3 ADD MSTORE PUSH1 0x1E PUSH1 0x24 DUP3 ADD MSTORE PUSH32 0x496E76616C696420746F6B656E20616464726573732070726F76696465640000 PUSH1 0x44 DUP3 ADD MSTORE PUSH1 0x64 ADD PUSH2 0x745 JUMP JUMPDEST PUSH1 0x8 SLOAD PUSH1 0x0 SWAP1 PUSH2 0x179B SWAP1 PUSH2 0x76C DUP7 PUSH1 0x64 PUSH2 0x1ED5 JUMP JUMPDEST PUSH1 0x40 MLOAD PUSH4 0x70A08231 PUSH1 0xE0 SHL DUP2 MSTORE CALLER PUSH1 0x4 DUP3 ADD MSTORE SWAP1 SWAP2 POP DUP2 SWAP1 PUSH1 0x1 PUSH1 0x1 PUSH1 0xA0 SHL SUB DUP6 AND SWAP1 PUSH4 0x70A08231 SWAP1 PUSH1 0x24 ADD PUSH1 0x20 PUSH1 0x40 MLOAD DUP1 DUP4 SUB DUP2 DUP7 GAS STATICCALL ISZERO DUP1 ISZERO PUSH2 0x17E4 JUMPI RETURNDATASIZE PUSH1 0x0 DUP1 RETURNDATACOPY RETURNDATASIZE PUSH1 0x0 REVERT JUMPDEST POP POP POP POP PUSH1 0x40 MLOAD RETURNDATASIZE PUSH1 0x1F NOT PUSH1 0x1F DUP3 ADD AND DUP3 ADD DUP1 PUSH1 0x40 MSTORE POP DUP2 ADD SWAP1 PUSH2 0x1808 SWAP2 SWAP1 PUSH2 0x26F3 JUMP JUMPDEST LT ISZERO PUSH2 0x1856 JUMPI PUSH1 0x40 MLOAD PUSH3 0x461BCD PUSH1 0xE5 SHL DUP2 MSTORE PUSH1 0x20 PUSH1 0x4 DUP3 ADD MSTORE PUSH1 0x17 PUSH1 0x24 DUP3 ADD MSTORE PUSH32 0x496E73756666696369656E7420636F6C6C61746572616C000000000000000000 PUSH1 0x44 DUP3 ADD MSTORE PUSH1 0x64 ADD PUSH2 0x745 JUMP JUMPDEST PUSH2 0x186B PUSH1 0x1 PUSH1 0x1 PUSH1 0xA0 SHL SUB DUP5 AND CALLER ADDRESS DUP5 PUSH2 0x1F87 JUMP JUMPDEST PUSH2 0x187F PUSH1 0x1 PUSH1 0x1 PUSH1 0xA0 SHL SUB DUP4 AND CALLER DUP9 PUSH2 0x1F02 JUMP JUMPDEST PUSH1 0x0 SLOAD PUSH1 0x1 PUSH1 0x1 PUSH1 0xA0 SHL SUB SWAP1 DUP2 AND SWAP1 DUP9 AND SUB PUSH2 0x18C4 JUMPI CALLER PUSH1 0x0 SWAP1 DUP2 MSTORE PUSH1 0x16 PUSH1 0x20 MSTORE PUSH1 0x40 SWAP1 KECCAK256 SLOAD PUSH2 0x18AF SWAP1 DUP3 PUSH2 0x1F7B JUMP JUMPDEST CALLER PUSH1 0x0 SWAP1 DUP2 MSTORE PUSH1 0x16 PUSH1 0x20 MSTORE PUSH1 0x40 SWAP1 KECCAK256 SSTORE PUSH2 0x18EF JUMP JUMPDEST CALLER PUSH1 0x0 SWAP1 DUP2 MSTORE PUSH1 0x15 PUSH1 0x20 MSTORE PUSH1 0x40 SWAP1 KECCAK256 SLOAD PUSH2 0x18DE SWAP1 DUP3 PUSH2 0x1F7B JUMP JUMPDEST CALLER PUSH1 0x0 SWAP1 DUP2 MSTORE PUSH1 0x15 PUSH1 0x20 MSTORE PUSH1 0x40 SWAP1 KECCAK256 SSTORE JUMPDEST CALLER PUSH1 0x0 SWAP1 DUP2 MSTORE PUSH1 0x14 PUSH1 0x20 MSTORE PUSH1 0x40 SWAP1 KECCAK256 SLOAD PUSH2 0x1909 SWAP1 DUP6 PUSH2 0x1F7B JUMP JUMPDEST CALLER PUSH1 0x0 DUP2 DUP2 MSTORE PUSH1 0x14 PUSH1 0x20 SWAP1 DUP2 MSTORE PUSH1 0x40 DUP1 DUP4 KECCAK256 SWAP5 SWAP1 SWAP5 SSTORE PUSH1 0x17 DUP2 MSTORE DUP4 DUP3 KECCAK256 TIMESTAMP SWAP1 SSTORE PUSH1 0x18 DUP2 MSTORE DUP4 DUP3 KECCAK256 DUP10 SWAP1 SSTORE PUSH1 0x19 DUP2 MSTORE DUP4 DUP3 KECCAK256 DUP1 SLOAD PUSH32 0xFFFFFFFFFFFFFFFFFFFFFFFF0000000000000000000000000000000000000000 AND PUSH1 0x1 PUSH1 0x1 PUSH1 0xA0 SHL SUB DUP9 AND OR SWAP1 SSTORE DUP4 MLOAD DUP9 DUP2 MSTORE SWAP1 DUP2 ADD SWAP2 SWAP1 SWAP2 MSTORE SWAP2 DUP3 ADD DUP8 SWAP1 MSTORE SWAP1 PUSH32 0x35F22BD5666483EAEE517BBB1999755225EDF1788EEAFE1184F7238EAED8E37E SWAP1 PUSH1 0x60 ADD PUSH1 0x40 MLOAD DUP1 SWAP2 SUB SWAP1 LOG2 POP POP POP POP POP POP POP JUMP JUMPDEST PUSH1 0x0 DUP2 GT PUSH2 0x1A15 JUMPI PUSH1 0x40 MLOAD PUSH3 0x461BCD PUSH1 0xE5 SHL DUP2 MSTORE PUSH1 0x20 PUSH1 0x4 DUP3 ADD MSTORE PUSH1 0x28 PUSH1 0x24 DUP3 ADD MSTORE PUSH32 0x436F6C6C61746572616C20616D6F756E74206D75737420626520677265617465 PUSH1 0x44 DUP3 ADD MSTORE PUSH8 0x72207468616E203 PUSH1 0xC4 SHL PUSH1 0x64 DUP3 ADD MSTORE PUSH1 0x84 ADD PUSH2 0x745 JUMP JUMPDEST PUSH1 0x0 SLOAD PUSH1 0x1 PUSH1 0x1 PUSH1 0xA0 SHL SUB SWAP1 DUP2 AND SWAP1 DUP4 AND SUB PUSH2 0x1A72 JUMPI PUSH1 0x0 SLOAD PUSH2 0x1A43 SWAP1 PUSH1 0x1 PUSH1 0x1 PUSH1 0xA0 SHL SUB AND CALLER ADDRESS DUP5 PUSH2 0x1F87 JUMP JUMPDEST CALLER PUSH1 0x0 SWAP1 DUP2 MSTORE PUSH1 0x15 PUSH1 0x20 MSTORE PUSH1 0x40 SWAP1 KECCAK256 SLOAD PUSH2 0x1A5D SWAP1 DUP3 PUSH2 0x1F7B JUMP JUMPDEST CALLER PUSH1 0x0 SWAP1 DUP2 MSTORE PUSH1 0x15 PUSH1 0x20 MSTORE PUSH1 0x40 SWAP1 KECCAK256 SSTORE PUSH2 0x1ACB JUMP JUMPDEST PUSH1 0x1 SLOAD PUSH1 0x1 PUSH1 0x1 PUSH1 0xA0 SHL SUB SWAP1 DUP2 AND SWAP1 DUP4 AND SUB PUSH2 0x173E JUMPI PUSH1 0x1 SLOAD PUSH2 0x1AA0 SWAP1 PUSH1 0x1 PUSH1 0x1 PUSH1 0xA0 SHL SUB AND CALLER ADDRESS DUP5 PUSH2 0x1F87 JUMP JUMPDEST CALLER PUSH1 0x0 SWAP1 DUP2 MSTORE PUSH1 0x16 PUSH1 0x20 MSTORE PUSH1 0x40 SWAP1 KECCAK256 SLOAD PUSH2 0x1ABA SWAP1 DUP3 PUSH2 0x1F7B JUMP JUMPDEST CALLER PUSH1 0x0 SWAP1 DUP2 MSTORE PUSH1 0x16 PUSH1 0x20 MSTORE PUSH1 0x40 SWAP1 KECCAK256 SSTORE JUMPDEST PUSH1 0x40 MLOAD DUP2 DUP2 MSTORE PUSH1 0x1 PUSH1 0x1 PUSH1 0xA0 SHL SUB DUP4 AND SWAP1 CALLER SWAP1 PUSH32 0xF1C0DD7E9B98BBFF859029005EF89B127AF049CD18DF1A8D79F0B7E019911E56 SWAP1 PUSH1 0x20 ADD PUSH1 0x40 MLOAD DUP1 SWAP2 SUB SWAP1 LOG3 POP POP JUMP JUMPDEST CALLER PUSH1 0x0 SWAP1 DUP2 MSTORE PUSH1 0x14 PUSH1 0x20 MSTORE PUSH1 0x40 SWAP1 KECCAK256 SLOAD PUSH2 0x1B6B JUMPI PUSH1 0x40 MLOAD PUSH3 0x461BCD PUSH1 0xE5 SHL DUP2 MSTORE PUSH1 0x20 PUSH1 0x4 DUP3 ADD MSTORE PUSH1 0x12 PUSH1 0x24 DUP3 ADD MSTORE PUSH32 0x4E6F20746F6B656E7320626F72726F7765640000000000000000000000000000 PUSH1 0x44 DUP3 ADD MSTORE PUSH1 0x64 ADD PUSH2 0x745 JUMP JUMPDEST PUSH1 0x0 DUP2 GT PUSH2 0x1BC6 JUMPI PUSH1 0x40 MLOAD PUSH3 0x461BCD PUSH1 0xE5 SHL DUP2 MSTORE PUSH1 0x20 PUSH1 0x4 DUP3 ADD MSTORE PUSH1 0x22 PUSH1 0x24 DUP3 ADD MSTORE PUSH32 0x4C6F616E20616D6F756E74206D7573742062652067726561746572207468616E PUSH1 0x44 DUP3 ADD MSTORE PUSH2 0x203 PUSH1 0xF4 SHL PUSH1 0x64 DUP3 ADD MSTORE PUSH1 0x84 ADD PUSH2 0x745 JUMP JUMPDEST PUSH1 0x0 SLOAD PUSH2 0x1BDE SWAP1 PUSH1 0x1 PUSH1 0x1 PUSH1 0xA0 SHL SUB AND CALLER ADDRESS DUP5 PUSH2 0x1F87 JUMP JUMPDEST CALLER PUSH1 0x0 SWAP1 DUP2 MSTORE PUSH1 0x14 PUSH1 0x20 MSTORE PUSH1 0x40 SWAP1 KECCAK256 SLOAD PUSH2 0x1BF8 SWAP1 DUP3 PUSH2 0x1EF6 JUMP JUMPDEST CALLER PUSH1 0x0 SWAP1 DUP2 MSTORE PUSH1 0x14 PUSH1 0x20 SWAP1 DUP2 MSTORE PUSH1 0x40 DUP1 DUP4 KECCAK256 SWAP4 SWAP1 SWAP4 SSTORE PUSH1 0x17 SWAP1 MSTORE KECCAK256 SLOAD PUSH2 0x1C5A SWAP1 PUSH2 0x1C51 SWAP1 PUSH4 0x1E13380 SWAP1 PUSH2 0x76C SWAP1 PUSH2 0x1C31 SWAP1 TIMESTAMP SWAP1 PUSH2 0x1EF6 JUMP JUMPDEST PUSH2 0x1C4B PUSH1 0x64 PUSH2 0x76C PUSH1 0x9 SLOAD DUP10 PUSH2 0x1ED5 SWAP1 SWAP2 SWAP1 PUSH4 0xFFFFFFFF AND JUMP JUMPDEST SWAP1 PUSH2 0x1ED5 JUMP JUMPDEST PUSH1 0xF SLOAD SWAP1 PUSH2 0x1F7B JUMP JUMPDEST PUSH1 0xF SSTORE PUSH1 0x40 MLOAD DUP2 DUP2 MSTORE CALLER SWAP1 PUSH32 0xC200A1F31DD659E356E0F112C82558E25F49F7B0F84438691CD96F5CB3558823 SWAP1 PUSH1 0x20 ADD PUSH2 0x7DD JUMP JUMPDEST PUSH1 0x4 SLOAD PUSH1 0x1 PUSH1 0x1 PUSH1 0xA0 SHL SUB AND CALLER EQ PUSH2 0x1CE9 JUMPI PUSH1 0x40 MLOAD PUSH3 0x461BCD PUSH1 0xE5 SHL DUP2 MSTORE PUSH1 0x20 PUSH1 0x4 DUP3 ADD MSTORE PUSH1 0x1E PUSH1 0x24 DUP3 ADD MSTORE PUSH32 0x4F6E6C79206F776E65722063616E207570646174652073776170206665650000 PUSH1 0x44 DUP3 ADD MSTORE PUSH1 0x64 ADD PUSH2 0x745 JUMP JUMPDEST PUSH1 0x7 SSTORE JUMP JUMPDEST PUSH1 0x3 SLOAD PUSH1 0x40 MLOAD PUSH4 0x60217267 PUSH1 0xE0 SHL DUP2 MSTORE PUSH1 0x1 PUSH1 0x1 PUSH1 0xA0 SHL SUB DUP4 DUP2 AND PUSH1 0x4 DUP4 ADD MSTORE PUSH1 0x0 SWAP3 DUP4 SWAP3 SWAP2 AND SWAP1 PUSH4 0x60217267 SWAP1 PUSH1 0x24 ADD PUSH1 0x20 PUSH1 0x40 MLOAD DUP1 DUP4 SUB DUP2 DUP7 GAS STATICCALL ISZERO DUP1 ISZERO PUSH2 0x1D3C JUMPI RETURNDATASIZE PUSH1 0x0 DUP1 RETURNDATACOPY RETURNDATASIZE PUSH1 0x0 REVERT JUMPDEST POP POP POP POP PUSH1 0x40 MLOAD RETURNDATASIZE PUSH1 0x1F NOT PUSH1 0x1F DUP3 ADD AND DUP3 ADD DUP1 PUSH1 0x40 MSTORE POP DUP2 ADD SWAP1 PUSH2 0x1D60 SWAP2 SWAP1 PUSH2 0x26F3 JUMP JUMPDEST PUSH1 0x3 SLOAD PUSH1 0x40 MLOAD PUSH4 0xD62E06AF PUSH1 0xE0 SHL DUP2 MSTORE PUSH1 0x1 PUSH1 0x1 PUSH1 0xA0 SHL SUB DUP7 DUP2 AND PUSH1 0x4 DUP4 ADD MSTORE SWAP3 SWAP4 POP PUSH1 0x0 SWAP3 DUP4 SWAP3 AND SWAP1 PUSH4 0xD62E06AF SWAP1 PUSH1 0x24 ADD PUSH1 0x20 PUSH1 0x40 MLOAD DUP1 DUP4 SUB DUP2 DUP7 GAS STATICCALL ISZERO DUP1 ISZERO PUSH2 0x1DB0 JUMPI RETURNDATASIZE PUSH1 0x0 DUP1 RETURNDATACOPY RETURNDATASIZE PUSH1 0x0 REVERT JUMPDEST POP POP POP POP PUSH1 0x40 MLOAD RETURNDATASIZE PUSH1 0x1F NOT PUSH1 0x1F DUP3 ADD AND DUP3 ADD DUP1 PUSH1 0x40 MSTORE POP DUP2 ADD SWAP1 PUSH2 0x1DD4 SWAP2 SWAP1 PUSH2 0x26F3 JUMP JUMPDEST SWAP1 POP PUSH3 0x93A80 DUP2 LT ISZERO PUSH2 0x1DEB JUMPI PUSH1 0xA SLOAD SWAP2 POP PUSH2 0x1E20 JUMP JUMPDEST PUSH3 0x127500 DUP2 LT ISZERO PUSH2 0x1E00 JUMPI PUSH1 0xB SLOAD SWAP2 POP PUSH2 0x1E20 JUMP JUMPDEST PUSH3 0x1BAF80 DUP2 LT ISZERO PUSH2 0x1E15 JUMPI PUSH1 0xC SLOAD SWAP2 POP PUSH2 0x1E20 JUMP JUMPDEST POP PUSH1 0x0 SWAP5 SWAP4 POP POP POP POP JUMP JUMPDEST PUSH1 0x0 PUSH2 0x1E38 PUSH4 0x1E13380 PUSH2 0x76C DUP5 PUSH2 0x1C4B DUP9 DUP9 PUSH2 0x1ED5 JUMP JUMPDEST SWAP7 SWAP6 POP POP POP POP POP POP JUMP JUMPDEST PUSH1 0x4 SLOAD PUSH1 0x1 PUSH1 0x1 PUSH1 0xA0 SHL SUB AND CALLER EQ PUSH2 0x1EC2 JUMPI PUSH1 0x40 MLOAD PUSH3 0x461BCD PUSH1 0xE5 SHL DUP2 MSTORE PUSH1 0x20 PUSH1 0x4 DUP3 ADD MSTORE PUSH1 0x25 PUSH1 0x24 DUP3 ADD MSTORE PUSH32 0x4F6E6C79206F776E65722063616E2075706461746520706F6F6C20696E63656E PUSH1 0x44 DUP3 ADD MSTORE PUSH32 0x7469766573000000000000000000000000000000000000000000000000000000 PUSH1 0x64 DUP3 ADD MSTORE PUSH1 0x84 ADD PUSH2 0x745 JUMP JUMPDEST PUSH1 0x11 DUP1 SLOAD PUSH1 0xFF NOT AND SWAP2 ISZERO ISZERO SWAP2 SWAP1 SWAP2 OR SWAP1 SSTORE JUMP JUMPDEST PUSH1 0x0 PUSH2 0x1EE1 DUP3 DUP5 PUSH2 0x270C JUMP JUMPDEST SWAP1 POP JUMPDEST SWAP3 SWAP2 POP POP JUMP JUMPDEST PUSH1 0x0 PUSH2 0x1EE1 DUP3 DUP5 PUSH2 0x2723 JUMP JUMPDEST PUSH1 0x0 PUSH2 0x1EE1 DUP3 DUP5 PUSH2 0x26E0 JUMP JUMPDEST PUSH1 0x40 MLOAD PUSH1 0x1 PUSH1 0x1 PUSH1 0xA0 SHL SUB DUP4 DUP2 AND PUSH1 0x24 DUP4 ADD MSTORE PUSH1 0x44 DUP3 ADD DUP4 SWAP1 MSTORE PUSH2 0x1F76 SWAP2 DUP6 SWAP2 DUP3 AND SWAP1 PUSH4 0xA9059CBB SWAP1 PUSH1 0x64 ADD JUMPDEST PUSH1 0x40 MLOAD PUSH1 0x20 DUP2 DUP4 SUB SUB DUP2 MSTORE SWAP1 PUSH1 0x40 MSTORE SWAP2 POP PUSH1 0xE0 SHL PUSH1 0x20 DUP3 ADD DUP1 MLOAD PUSH28 0xFFFFFFFFFFFFFFFFFFFFFFFFFFFFFFFFFFFFFFFFFFFFFFFFFFFFFFFF DUP4 DUP2 DUP4 AND OR DUP4 MSTORE POP POP POP POP PUSH2 0x244E JUMP JUMPDEST POP POP POP JUMP JUMPDEST PUSH1 0x0 PUSH2 0x1EE1 DUP3 DUP5 PUSH2 0x26CD JUMP JUMPDEST PUSH1 0x40 MLOAD PUSH1 0x1 PUSH1 0x1 PUSH1 0xA0 SHL SUB DUP5 DUP2 AND PUSH1 0x24 DUP4 ADD MSTORE DUP4 DUP2 AND PUSH1 0x44 DUP4 ADD MSTORE PUSH1 0x64 DUP3 ADD DUP4 SWAP1 MSTORE PUSH2 0x1FC0 SWAP2 DUP7 SWAP2 DUP3 AND SWAP1 PUSH4 0x23B872DD SWAP1 PUSH1 0x84 ADD PUSH2 0x1F2F JUMP JUMPDEST POP POP POP POP JUMP JUMPDEST PUSH1 0x2 SLOAD PUSH1 0x40 MLOAD PUSH4 0xA9059CBB PUSH1 0xE0 SHL DUP2 MSTORE PUSH1 0x1 PUSH1 0x1 PUSH1 0xA0 SHL SUB DUP5 DUP2 AND PUSH1 0x4 DUP4 ADD MSTORE PUSH1 0x24 DUP3 ADD DUP5 SWAP1 MSTORE SWAP1 SWAP2 AND SWAP1 PUSH4 0xA9059CBB SWAP1 PUSH1 0x44 ADD PUSH1 0x20 PUSH1 0x40 MLOAD DUP1 DUP4 SUB DUP2 PUSH1 0x0 DUP8 GAS CALL ISZERO DUP1 ISZERO PUSH2 0x2019 JUMPI RETURNDATASIZE PUSH1 0x0 DUP1 RETURNDATACOPY RETURNDATASIZE PUSH1 0x0 REVERT JUMPDEST POP POP POP POP PUSH1 0x40 MLOAD RETURNDATASIZE PUSH1 0x1F NOT PUSH1 0x1F DUP3 ADD AND DUP3 ADD DUP1 PUSH1 0x40 MSTORE POP DUP2 ADD SWAP1 PUSH2 0x203D SWAP2 SWAP1 PUSH2 0x2745 JUMP JUMPDEST POP PUSH1 0x40 DUP1 MLOAD PUSH1 0x1 PUSH1 0x1 PUSH1 0xA0 SHL SUB DUP5 AND DUP2 MSTORE PUSH1 0x20 DUP2 ADD DUP4 SWAP1 MSTORE PUSH32 0x731C4D5834CB99427F762F81ED43118AC0DE5A1A0194FB326BE6154181A2546F SWAP2 ADD PUSH1 0x40 MLOAD DUP1 SWAP2 SUB SWAP1 LOG1 POP POP JUMP JUMPDEST PUSH1 0x0 DUP1 SLOAD DUP2 SWAP1 DUP2 SWAP1 DUP2 SWAP1 PUSH1 0x1 PUSH1 0x1 PUSH1 0xA0 SHL SUB SWAP1 DUP2 AND SWAP1 DUP8 AND SUB PUSH2 0x2153 JUMPI PUSH2 0x20BC PUSH2 0x3E8 PUSH2 0x76C PUSH1 0x7 SLOAD DUP9 PUSH2 0x1ED5 SWAP1 SWAP2 SWAP1 PUSH4 0xFFFFFFFF AND JUMP JUMPDEST SWAP4 POP PUSH2 0x20C8 DUP6 DUP6 PUSH2 0x1EF6 JUMP JUMPDEST PUSH1 0x0 SLOAD SWAP1 SWAP3 POP PUSH2 0x20E3 SWAP1 PUSH1 0x1 PUSH1 0x1 PUSH1 0xA0 SHL SUB AND CALLER ADDRESS DUP9 PUSH2 0x1F87 JUMP JUMPDEST PUSH1 0xE SLOAD PUSH2 0x20F0 SWAP1 DUP6 PUSH2 0x1F7B JUMP JUMPDEST PUSH1 0xE SSTORE PUSH1 0x1 SLOAD PUSH2 0x210A SWAP1 PUSH1 0x1 PUSH1 0x1 PUSH1 0xA0 SHL SUB AND CALLER DUP5 PUSH2 0x1F02 JUMP JUMPDEST PUSH1 0x40 DUP1 MLOAD DUP7 DUP2 MSTORE PUSH1 0x0 PUSH1 0x20 DUP3 ADD MSTORE SWAP1 DUP2 ADD DUP6 SWAP1 MSTORE CALLER SWAP1 PUSH32 0x5998FEB874E6089317765439DB6575C0BA1C29BA0084C05F3C61BE5CBD74CB8C SWAP1 PUSH1 0x60 ADD JUMPDEST PUSH1 0x40 MLOAD DUP1 SWAP2 SUB SWAP1 LOG2 PUSH2 0x2213 JUMP JUMPDEST PUSH1 0x1 SLOAD PUSH1 0x1 PUSH1 0x1 PUSH1 0xA0 SHL SUB SWAP1 DUP2 AND SWAP1 DUP8 AND SUB PUSH2 0x173E JUMPI PUSH2 0x2184 PUSH2 0x3E8 PUSH2 0x76C PUSH1 0x7 SLOAD DUP9 PUSH2 0x1ED5 SWAP1 SWAP2 SWAP1 PUSH4 0xFFFFFFFF AND JUMP JUMPDEST SWAP3 POP PUSH2 0x2190 DUP6 DUP5 PUSH2 0x1EF6 JUMP JUMPDEST PUSH1 0x1 SLOAD SWAP1 SWAP2 POP PUSH2 0x21AB SWAP1 PUSH1 0x1 PUSH1 0x1 PUSH1 0xA0 SHL SUB AND CALLER ADDRESS DUP9 PUSH2 0x1F87 JUMP JUMPDEST PUSH1 0xE SLOAD PUSH2 0x21B8 SWAP1 DUP5 PUSH2 0x1F7B JUMP JUMPDEST PUSH1 0xE SSTORE PUSH1 0x0 SLOAD PUSH2 0x21D2 SWAP1 PUSH1 0x1 PUSH1 0x1 PUSH1 0xA0 SHL SUB AND CALLER DUP4 PUSH2 0x1F02 JUMP JUMPDEST PUSH1 0x40 DUP1 MLOAD PUSH1 0x0 DUP2 MSTORE PUSH1 0x20 DUP2 ADD DUP8 SWAP1 MSTORE SWAP1 DUP2 ADD DUP5 SWAP1 MSTORE CALLER SWAP1 PUSH32 0x5998FEB874E6089317765439DB6575C0BA1C29BA0084C05F3C61BE5CBD74CB8C SWAP1 PUSH1 0x60 ADD PUSH2 0x2146 JUMP JUMPDEST POP POP POP POP POP POP JUMP JUMPDEST PUSH1 0x0 DUP1 PUSH1 0x0 DUP1 PUSH1 0x0 PUSH1 0x6 PUSH1 0x0 SWAP1 SLOAD SWAP1 PUSH2 0x100 EXP SWAP1 DIV PUSH1 0x1 PUSH1 0x1 PUSH1 0xA0 SHL SUB AND PUSH1 0x1 PUSH1 0x1 PUSH1 0xA0 SHL SUB AND PUSH4 0xEC08C669 PUSH1 0x40 MLOAD DUP2 PUSH4 0xFFFFFFFF AND PUSH1 0xE0 SHL DUP2 MSTORE PUSH1 0x4 ADD PUSH1 0x20 PUSH1 0x40 MLOAD DUP1 DUP4 SUB DUP2 DUP7 GAS STATICCALL ISZERO DUP1 ISZERO PUSH2 0x2276 JUMPI RETURNDATASIZE PUSH1 0x0 DUP1 RETURNDATACOPY RETURNDATASIZE PUSH1 0x0 REVERT JUMPDEST POP POP POP POP PUSH1 0x40 MLOAD RETURNDATASIZE PUSH1 0x1F NOT PUSH1 0x1F DUP3 ADD AND DUP3 ADD DUP1 PUSH1 0x40 MSTORE POP DUP2 ADD SWAP1 PUSH2 0x229A SWAP2 SWAP1 PUSH2 0x26F3 JUMP JUMPDEST PUSH1 0x0 SLOAD SWAP1 SWAP2 POP PUSH1 0x1 PUSH1 0x1 PUSH1 0xA0 SHL SUB SWAP1 DUP2 AND SWAP1 DUP9 AND SUB PUSH2 0x2375 JUMPI PUSH2 0x22DE PUSH8 0xDE0B6B3A7640000 PUSH2 0x76C DUP4 PUSH2 0x1C4B PUSH2 0x3E8 PUSH2 0x76C PUSH1 0x7 SLOAD DUP14 PUSH2 0x1ED5 SWAP1 SWAP2 SWAP1 PUSH4 0xFFFFFFFF AND JUMP JUMPDEST SWAP5 POP PUSH2 0x22EA DUP7 DUP7 PUSH2 0x1EF6 JUMP JUMPDEST PUSH1 0x0 SLOAD SWAP1 SWAP4 POP PUSH2 0x2305 SWAP1 PUSH1 0x1 PUSH1 0x1 PUSH1 0xA0 SHL SUB AND CALLER ADDRESS DUP10 PUSH2 0x1F87 JUMP JUMPDEST PUSH1 0xE SLOAD PUSH2 0x2312 SWAP1 DUP7 PUSH2 0x1F7B JUMP JUMPDEST PUSH1 0xE SSTORE PUSH1 0x1 SLOAD PUSH2 0x232C SWAP1 PUSH1 0x1 PUSH1 0x1 PUSH1 0xA0 SHL SUB AND CALLER DUP6 PUSH2 0x1F02 JUMP JUMPDEST PUSH1 0x40 DUP1 MLOAD DUP8 DUP2 MSTORE PUSH1 0x0 PUSH1 0x20 DUP3 ADD MSTORE SWAP1 DUP2 ADD DUP7 SWAP1 MSTORE CALLER SWAP1 PUSH32 0x5998FEB874E6089317765439DB6575C0BA1C29BA0084C05F3C61BE5CBD74CB8C SWAP1 PUSH1 0x60 ADD JUMPDEST PUSH1 0x40 MLOAD DUP1 SWAP2 SUB SWAP1 LOG2 PUSH2 0x2445 JUMP JUMPDEST PUSH1 0x1 SLOAD PUSH1 0x1 PUSH1 0x1 PUSH1 0xA0 SHL SUB SWAP1 DUP2 AND SWAP1 DUP9 AND SUB PUSH2 0x173E JUMPI PUSH2 0x23B6 PUSH8 0xDE0B6B3A7640000 PUSH2 0x76C DUP4 PUSH2 0x1C4B PUSH2 0x3E8 PUSH2 0x76C PUSH1 0x7 SLOAD DUP14 PUSH2 0x1ED5 SWAP1 SWAP2 SWAP1 PUSH4 0xFFFFFFFF AND JUMP JUMPDEST SWAP4 POP PUSH2 0x23C2 DUP7 DUP6 PUSH2 0x1EF6 JUMP JUMPDEST PUSH1 0x1 SLOAD SWAP1 SWAP3 POP PUSH2 0x23DD SWAP1 PUSH1 0x1 PUSH1 0x1 PUSH1 0xA0 SHL SUB AND CALLER ADDRESS DUP10 PUSH2 0x1F87 JUMP JUMPDEST PUSH1 0xE SLOAD PUSH2 0x23EA SWAP1 DUP6 PUSH2 0x1F7B JUMP JUMPDEST PUSH1 0xE SSTORE PUSH1 0x0 SLOAD PUSH2 0x2404 SWAP1 PUSH1 0x1 PUSH1 0x1 PUSH1 0xA0 SHL SUB AND CALLER DUP5 PUSH2 0x1F02 JUMP JUMPDEST PUSH1 0x40 DUP1 MLOAD PUSH1 0x0 DUP2 MSTORE PUSH1 0x20 DUP2 ADD DUP9 SWAP1 MSTORE SWAP1 DUP2 ADD DUP6 SWAP1 MSTORE CALLER SWAP1 PUSH32 0x5998FEB874E6089317765439DB6575C0BA1C29BA0084C05F3C61BE5CBD74CB8C SWAP1 PUSH1 0x60 ADD PUSH2 0x2368 JUMP JUMPDEST POP POP POP POP POP POP POP JUMP JUMPDEST PUSH1 0x0 PUSH2 0x2463 PUSH1 0x1 PUSH1 0x1 PUSH1 0xA0 SHL SUB DUP5 AND DUP4 PUSH2 0x24B1 JUMP JUMPDEST SWAP1 POP DUP1 MLOAD PUSH1 0x0 EQ ISZERO DUP1 ISZERO PUSH2 0x2488 JUMPI POP DUP1 DUP1 PUSH1 0x20 ADD SWAP1 MLOAD DUP2 ADD SWAP1 PUSH2 0x2486 SWAP2 SWAP1 PUSH2 0x2745 JUMP JUMPDEST ISZERO JUMPDEST ISZERO PUSH2 0x1F76 JUMPI PUSH1 0x40 MLOAD PUSH4 0x5274AFE7 PUSH1 0xE0 SHL DUP2 MSTORE PUSH1 0x1 PUSH1 0x1 PUSH1 0xA0 SHL SUB DUP5 AND PUSH1 0x4 DUP3 ADD MSTORE PUSH1 0x24 ADD PUSH2 0x745 JUMP JUMPDEST PUSH1 0x60 PUSH2 0x1EE1 DUP4 DUP4 PUSH1 0x0 DUP5 PUSH1 0x0 DUP1 DUP6 PUSH1 0x1 PUSH1 0x1 PUSH1 0xA0 SHL SUB AND DUP5 DUP7 PUSH1 0x40 MLOAD PUSH2 0x24D7 SWAP2 SWAP1 PUSH2 0x2762 JUMP JUMPDEST PUSH1 0x0 PUSH1 0x40 MLOAD DUP1 DUP4 SUB DUP2 DUP6 DUP8 GAS CALL SWAP3 POP POP POP RETURNDATASIZE DUP1 PUSH1 0x0 DUP2 EQ PUSH2 0x2514 JUMPI PUSH1 0x40 MLOAD SWAP2 POP PUSH1 0x1F NOT PUSH1 0x3F RETURNDATASIZE ADD AND DUP3 ADD PUSH1 0x40 MSTORE RETURNDATASIZE DUP3 MSTORE RETURNDATASIZE PUSH1 0x0 PUSH1 0x20 DUP5 ADD RETURNDATACOPY PUSH2 0x2519 JUMP JUMPDEST PUSH1 0x60 SWAP2 POP JUMPDEST POP SWAP2 POP SWAP2 POP PUSH2 0x2529 DUP7 DUP4 DUP4 PUSH2 0x2535 JUMP JUMPDEST SWAP3 POP POP POP JUMPDEST SWAP4 SWAP3 POP POP POP JUMP JUMPDEST PUSH1 0x60 DUP3 PUSH2 0x254A JUMPI PUSH2 0x2545 DUP3 PUSH2 0x2591 JUMP JUMPDEST PUSH2 0x252E JUMP JUMPDEST DUP2 MLOAD ISZERO DUP1 ISZERO PUSH2 0x2561 JUMPI POP PUSH1 0x1 PUSH1 0x1 PUSH1 0xA0 SHL SUB DUP5 AND EXTCODESIZE ISZERO JUMPDEST ISZERO PUSH2 0x258A JUMPI PUSH1 0x40 MLOAD PUSH4 0x9996B315 PUSH1 0xE0 SHL DUP2 MSTORE PUSH1 0x1 PUSH1 0x1 PUSH1 0xA0 SHL SUB DUP6 AND PUSH1 0x4 DUP3 ADD MSTORE PUSH1 0x24 ADD PUSH2 0x745 JUMP JUMPDEST POP DUP1 PUSH2 0x252E JUMP JUMPDEST DUP1 MLOAD ISZERO PUSH2 0x25A1 JUMPI DUP1 MLOAD DUP1 DUP3 PUSH1 0x20 ADD REVERT JUMPDEST PUSH1 0x40 MLOAD PUSH4 0xA12F521 PUSH1 0xE1 SHL DUP2 MSTORE PUSH1 0x4 ADD PUSH1 0x40 MLOAD DUP1 SWAP2 SUB SWAP1 REVERT JUMPDEST POP JUMP JUMPDEST DUP1 CALLDATALOAD PUSH1 0x1 PUSH1 0x1 PUSH1 0xA0 SHL SUB DUP2 AND DUP2 EQ PUSH2 0x25D4 JUMPI PUSH1 0x0 DUP1 REVERT JUMPDEST SWAP2 SWAP1 POP JUMP JUMPDEST PUSH1 0x0 PUSH1 0x20 DUP3 DUP5 SUB SLT ISZERO PUSH2 0x25EB JUMPI PUSH1 0x0 DUP1 REVERT JUMPDEST PUSH2 0x1EE1 DUP3 PUSH2 0x25BD JUMP JUMPDEST PUSH1 0x0 PUSH1 0x20 DUP3 DUP5 SUB SLT ISZERO PUSH2 0x2606 JUMPI PUSH1 0x0 DUP1 REVERT JUMPDEST POP CALLDATALOAD SWAP2 SWAP1 POP JUMP JUMPDEST PUSH1 0x0 DUP1 PUSH1 0x40 DUP4 DUP6 SUB SLT ISZERO PUSH2 0x2620 JUMPI PUSH1 0x0 DUP1 REVERT JUMPDEST POP POP DUP1 CALLDATALOAD SWAP3 PUSH1 0x20 SWAP1 SWAP2 ADD CALLDATALOAD SWAP2 POP JUMP JUMPDEST PUSH1 0x0 DUP1 PUSH1 0x40 DUP4 DUP6 SUB SLT ISZERO PUSH2 0x2642 JUMPI PUSH1 0x0 DUP1 REVERT JUMPDEST PUSH2 0x264B DUP4 PUSH2 0x25BD JUMP JUMPDEST SWAP5 PUSH1 0x20 SWAP4 SWAP1 SWAP4 ADD CALLDATALOAD SWAP4 POP POP POP JUMP JUMPDEST PUSH1 0x0 DUP1 PUSH1 0x0 PUSH1 0x60 DUP5 DUP7 SUB SLT ISZERO PUSH2 0x266E JUMPI PUSH1 0x0 DUP1 REVERT JUMPDEST PUSH2 0x2677 DUP5 PUSH2 0x25BD JUMP JUMPDEST SWAP6 PUSH1 0x20 DUP6 ADD CALLDATALOAD SWAP6 POP PUSH1 0x40 SWAP1 SWAP5 ADD CALLDATALOAD SWAP4 SWAP3 POP POP POP JUMP JUMPDEST DUP1 ISZERO ISZERO DUP2 EQ PUSH2 0x25BA JUMPI PUSH1 0x0 DUP1 REVERT JUMPDEST PUSH1 0x0 PUSH1 0x20 DUP3 DUP5 SUB SLT ISZERO PUSH2 0x26AC JUMPI PUSH1 0x0 DUP1 REVERT JUMPDEST DUP2 CALLDATALOAD PUSH2 0x252E DUP2 PUSH2 0x268C JUMP JUMPDEST PUSH4 0x4E487B71 PUSH1 0xE0 SHL PUSH1 0x0 MSTORE PUSH1 0x11 PUSH1 0x4 MSTORE PUSH1 0x24 PUSH1 0x0 REVERT JUMPDEST DUP1 DUP3 ADD DUP1 DUP3 GT ISZERO PUSH2 0x1EE4 JUMPI PUSH2 0x1EE4 PUSH2 0x26B7 JUMP JUMPDEST DUP2 DUP2 SUB DUP2 DUP2 GT ISZERO PUSH2 0x1EE4 JUMPI PUSH2 0x1EE4 PUSH2 0x26B7 JUMP JUMPDEST PUSH1 0x0 PUSH1 0x20 DUP3 DUP5 SUB SLT ISZERO PUSH2 0x2705 JUMPI PUSH1 0x0 DUP1 REVERT JUMPDEST POP MLOAD SWAP2 SWAP1 POP JUMP JUMPDEST DUP1 DUP3 MUL DUP2 ISZERO DUP3 DUP3 DIV DUP5 EQ OR PUSH2 0x1EE4 JUMPI PUSH2 0x1EE4 PUSH2 0x26B7 JUMP JUMPDEST PUSH1 0x0 DUP3 PUSH2 0x2740 JUMPI PUSH4 0x4E487B71 PUSH1 0xE0 SHL PUSH1 0x0 MSTORE PUSH1 0x12 PUSH1 0x4 MSTORE PUSH1 0x24 PUSH1 0x0 REVERT JUMPDEST POP DIV SWAP1 JUMP JUMPDEST PUSH1 0x0 PUSH1 0x20 DUP3 DUP5 SUB SLT ISZERO PUSH2 0x2757 JUMPI PUSH1 0x0 DUP1 REVERT JUMPDEST DUP2 MLOAD PUSH2 0x252E DUP2 PUSH2 0x268C JUMP JUMPDEST PUSH1 0x0 DUP3 MLOAD PUSH1 0x0 JUMPDEST DUP2 DUP2 LT ISZERO PUSH2 0x2783 JUMPI PUSH1 0x20 DUP2 DUP7 ADD DUP2 ADD MLOAD DUP6 DUP4 ADD MSTORE ADD PUSH2 0x2769 JUMP JUMPDEST POP PUSH1 0x0 SWAP3 ADD SWAP2 DUP3 MSTORE POP SWAP2 SWAP1 POP JUMP INVALID LOG2 PUSH5 0x6970667358 0x22 SLT KECCAK256 0x28 0xF9 STOP NUMBER SGT SWAP15 BALANCE REVERT POP OR PUSH10 0x45CC8CB7E35DB786E827 JUMP SWAP9 SELFBALANCE 0xD1 0xD 0xB9 0xFC DUP6 0xB1 PUSH27 0xFC64736F6C63430008140033000000000000000000000000000000 "},"methodIdentifiers":{"APR_14_DAYS()":"ab22a25f","APR_21_DAYS()":"a42c83d3","APR_7_DAYS()":"37829f36","INTEREST_RATE()":"5b72a33a","MAX_LTV_PERCENT()":"7b624429","OWNER_SHARE_PERCENT()":"952cc59d","SECONDS_IN_14_DAYS()":"4d334494","SECONDS_IN_21_DAYS()":"4578ae04","SECONDS_IN_30_DAYS()":"befcabbd","SECONDS_IN_7_DAYS()":"f0362ee9","SECONDS_IN_90_DAYS()":"614d6687","SWAP_FEE_PERCENT()":"b442c24e","addcollateralize(address,uint256)":"aa77bc83","balances(address)":"27e235e3","borrowTokens(address,uint256,uint256)":"a680114a","borrowed(address)":"0941cb3d","borrowedToken(address)":"84a0e58f","calculateReward(address)":"d82e3962","claimRewards()":"372500ab","collateralA(address)":"03e43c3a","collateralB(address)":"f0c1020d","depositIncentive(uint256)":"59f6adc7","getMaxLoanAmount()":"656f9ba4","interestFeeBalance()":"dc6930c2","isPoolIncentivized()":"aff82509","liquidateCollateral()":"52abe4b0","liquidityToken()":"43cd8f7e","loanDuration(address)":"d9accfac","loanStartTime(address)":"f5b5f477","owner()":"8da5cb5b","priceFeed()":"741bef1a","provideLiquidity(uint256,uint256)":"7a16af7f","repayLoan(uint256)":"ab7b1c89","rewardToken()":"f7c618c1","stakeTokens(uint256,uint256)":"3b7b6188","stakerRewards(address)":"f0f0b228","stakingContract()":"ee99205c","swapFeeBalance()":"ff78025c","swapTokens(address,uint256)":"a114398d","tokenA()":"0fc63d10","tokenB()":"5f64b55b","totalStaked()":"817b1cd2","unstakeTokens(uint256)":"608e4dd0","updateIncentivizedPool(bool)":"fea28478","updateOwnerShare(uint256)":"33f8cade","updateSwapFee(uint256)":"bf16f65a","withdrawCollateral(uint256)":"6112fe2e","withdrawCollateralA(uint256)":"1c16b6e0","withdrawInterestFee()":"484d0d9b","withdrawLiquidity(uint256)":"0a861f2a","withdrawSwapFee()":"05bf77da"}},"storageLayout":{"storage":[{"astId":1860,"contract":"contracts/CoFinance.sol:CoFinance","label":"tokenA","offset":0,"slot":"0","type":"t_contract(IERC20)729"},{"astId":1863,"contract":"contracts/CoFinance.sol:CoFinance","label":"tokenB","offset":0,"slot":"1","type":"t_contract(IERC20)729"},{"astId":1866,"contract":"contracts/CoFinance.sol:CoFinance","label":"liquidityToken","offset":0,"slot":"2","type":"t_contract(LiquidityToken)1850"},{"astId":1869,"contract":"contracts/CoFinance.sol:CoFinance","label":"stakingContract","offset":0,"slot":"3","type":"t_contract(Staking)4231"},{"astId":1871,"contract":"contracts/CoFinance.sol:CoFinance","label":"owner","offset":0,"slot":"4","type":"t_address"},{"astId":1874,"contract":"contracts/CoFinance.sol:CoFinance","label":"rewardToken","offset":0,"slot":"5","type":"t_contract(IERC20)729"},{"astId":1877,"contract":"contracts/CoFinance.sol:CoFinance","label":"priceFeed","offset":0,"slot":"6","type":"t_contract(IPriceFeed)4244"},{"astId":1880,"contract":"contracts/CoFinance.sol:CoFinance","label":"SWAP_FEE_PERCENT","offset":0,"slot":"7","type":"t_uint256"},{"astId":1883,"contract":"contracts/CoFinance.sol:CoFinance","label":"MAX_LTV_PERCENT","offset":0,"slot":"8","type":"t_uint256"},{"astId":1886,"contract":"contracts/CoFinance.sol:CoFinance","label":"INTEREST_RATE","offset":0,"slot":"9","type":"t_uint256"},{"astId":1904,"contract":"contracts/CoFinance.sol:CoFinance","label":"APR_7_DAYS","offset":0,"slot":"10","type":"t_uint256"},{"astId":1907,"contract":"contracts/CoFinance.sol:CoFinance","label":"APR_14_DAYS","offset":0,"slot":"11","type":"t_uint256"},{"astId":1910,"contract":"contracts/CoFinance.sol:CoFinance","label":"APR_21_DAYS","offset":0,"slot":"12","type":"t_uint256"},{"astId":1912,"contract":"contracts/CoFinance.sol:CoFinance","label":"totalStaked","offset":0,"slot":"13","type":"t_uint256"},{"astId":1914,"contract":"contracts/CoFinance.sol:CoFinance","label":"swapFeeBalance","offset":0,"slot":"14","type":"t_uint256"},{"astId":1916,"contract":"contracts/CoFinance.sol:CoFinance","label":"interestFeeBalance","offset":0,"slot":"15","type":"t_uint256"},{"astId":1919,"contract":"contracts/CoFinance.sol:CoFinance","label":"OWNER_SHARE_PERCENT","offset":0,"slot":"16","type":"t_uint256"},{"astId":1921,"contract":"contracts/CoFinance.sol:CoFinance","label":"isPoolIncentivized","offset":0,"slot":"17","type":"t_bool"},{"astId":1925,"contract":"contracts/CoFinance.sol:CoFinance","label":"stakerRewards","offset":0,"slot":"18","type":"t_mapping(t_address,t_uint256)"},{"astId":1929,"contract":"contracts/CoFinance.sol:CoFinance","label":"balances","offset":0,"slot":"19","type":"t_mapping(t_address,t_uint256)"},{"astId":1933,"contract":"contracts/CoFinance.sol:CoFinance","label":"borrowed","offset":0,"slot":"20","type":"t_mapping(t_address,t_uint256)"},{"astId":1937,"contract":"contracts/CoFinance.sol:CoFinance","label":"collateralA","offset":0,"slot":"21","type":"t_mapping(t_address,t_uint256)"},{"astId":1941,"contract":"contracts/CoFinance.sol:CoFinance","label":"collateralB","offset":0,"slot":"22","type":"t_mapping(t_address,t_uint256)"},{"astId":1945,"contract":"contracts/CoFinance.sol:CoFinance","label":"loanStartTime","offset":0,"slot":"23","type":"t_mapping(t_address,t_uint256)"},{"astId":1949,"contract":"contracts/CoFinance.sol:CoFinance","label":"loanDuration","offset":0,"slot":"24","type":"t_mapping(t_address,t_uint256)"},{"astId":1953,"contract":"contracts/CoFinance.sol:CoFinance","label":"borrowedToken","offset":0,"slot":"25","type":"t_mapping(t_address,t_address)"}],"types":{"t_address":{"encoding":"inplace","label":"address","numberOfBytes":"20"},"t_bool":{"encoding":"inplace","label":"bool","numberOfBytes":"1"},"t_contract(IERC20)729":{"encoding":"inplace","label":"contract IERC20","numberOfBytes":"20"},"t_contract(IPriceFeed)4244":{"encoding":"inplace","label":"contract IPriceFeed","numberOfBytes":"20"},"t_contract(LiquidityToken)1850":{"encoding":"inplace","label":"contract LiquidityToken","numberOfBytes":"20"},"t_contract(Staking)4231":{"encoding":"inplace","label":"contract Staking","numberOfBytes":"20"},"t_mapping(t_address,t_address)":{"encoding":"mapping","key":"t_address","label":"mapping(address => address)","numberOfBytes":"32","value":"t_address"},"t_mapping(t_address,t_uint256)":{"encoding":"mapping","key":"t_address","label":"mapping(address => uint256)","numberOfBytes":"32","value":"t_uint256"},"t_uint256":{"encoding":"inplace","label":"uint256","numberOfBytes":"32"}}}}}}