{
  "_format": "hh-sol-artifact-1",
  "contractName": "CoFinanceFactory",
  "sourceName": "contracts/CoFinanceFactory.sol",
  "abi": [
    {
      "inputs": [],
      "stateMutability": "nonpayable",
      "type": "constructor"
    },
    {
      "anonymous": false,
      "inputs": [
        {
          "indexed": true,
          "internalType": "address",
          "name": "poolAddress",
          "type": "address"
        },
        {
          "indexed": true,
          "internalType": "address",
          "name": "tokenA",
          "type": "address"
        },
        {
          "indexed": true,
          "internalType": "address",
          "name": "tokenB",
          "type": "address"
        },
        {
          "indexed": false,
          "internalType": "address",
          "name": "liquidityTokenAddress",
          "type": "address"
        },
        {
          "indexed": false,
          "internalType": "address",
          "name": "rewardToken",
          "type": "address"
        },
        {
          "indexed": false,
          "internalType": "address",
          "name": "priceFeed",
          "type": "address"
        },
        {
          "indexed": false,
          "internalType": "address",
          "name": "stakingContract",
          "type": "address"
        },
        {
          "indexed": false,
          "internalType": "bool",
          "name": "isPoolIncentivized",
          "type": "bool"
        }
      ],
      "name": "PoolCreated",
      "type": "event"
    },
    {
      "inputs": [
        {
          "internalType": "uint256",
          "name": "",
          "type": "uint256"
        }
      ],
      "name": "allPools",
      "outputs": [
        {
          "internalType": "address",
          "name": "",
          "type": "address"
        }
      ],
      "stateMutability": "view",
      "type": "function"
    },
    {
      "inputs": [
        {
          "internalType": "address",
          "name": "tokenA",
          "type": "address"
        },
        {
          "internalType": "address",
          "name": "tokenB",
          "type": "address"
        },
        {
          "internalType": "address",
          "name": "rewardToken",
          "type": "address"
        },
        {
          "internalType": "address",
          "name": "priceFeed",
          "type": "address"
        },
        {
          "internalType": "string",
          "name": "liquidityTokenName",
          "type": "string"
        },
        {
          "internalType": "string",
          "name": "liquidityTokenSymbol",
          "type": "string"
        },
        {
          "internalType": "address",
          "name": "stakingContract",
          "type": "address"
        },
        {
          "internalType": "bool",
          "name": "isPoolIncentivized",
          "type": "bool"
        }
      ],
      "name": "createPool",
      "outputs": [
        {
          "internalType": "address",
          "name": "",
          "type": "address"
        }
      ],
      "stateMutability": "nonpayable",
      "type": "function"
    },
    {
      "inputs": [],
      "name": "getAllPools",
      "outputs": [
        {
          "internalType": "address[]",
          "name": "",
          "type": "address[]"
        }
      ],
      "stateMutability": "view",
      "type": "function"
    },
    {
      "inputs": [
        {
          "internalType": "address",
          "name": "tokenA",
          "type": "address"
        },
        {
          "internalType": "address",
          "name": "tokenB",
          "type": "address"
        }
      ],
      "name": "getPoolByPair",
      "outputs": [
        {
          "internalType": "address",
          "name": "",
          "type": "address"
        }
      ],
      "stateMutability": "view",
      "type": "function"
    },
    {
      "inputs": [
        {
          "internalType": "address",
          "name": "token",
          "type": "address"
        }
      ],
      "name": "getPoolByToken",
      "outputs": [
        {
          "internalType": "address[]",
          "name": "",
          "type": "address[]"
        }
      ],
      "stateMutability": "view",
      "type": "function"
    },
    {
      "inputs": [],
      "name": "owner",
      "outputs": [
        {
          "internalType": "address",
          "name": "",
          "type": "address"
        }
      ],
      "stateMutability": "view",
      "type": "function"
    },
    {
      "inputs": [
        {
          "internalType": "address",
          "name": "",
          "type": "address"
        }
      ],
      "name": "poolByPair",
      "outputs": [
        {
          "internalType": "address",
          "name": "",
          "type": "address"
        }
      ],
      "stateMutability": "view",
      "type": "function"
    },
    {
      "inputs": [
        {
          "internalType": "address",
          "name": "",
          "type": "address"
        },
        {
          "internalType": "address",
          "name": "",
          "type": "address"
        }
      ],
      "name": "pools",
      "outputs": [
        {
          "internalType": "address",
          "name": "",
          "type": "address"
        }
      ],
      "stateMutability": "view",
      "type": "function"
    },
    {
      "inputs": [
        {
          "internalType": "address",
          "name": "",
          "type": "address"
        },
        {
          "internalType": "uint256",
          "name": "",
          "type": "uint256"
        }
      ],
      "name": "poolsByToken",
      "outputs": [
        {
          "internalType": "address",
          "name": "",
          "type": "address"
        }
      ],
      "stateMutability": "view",
      "type": "function"
    }
  ],
  "bytecode": "0x608060405234801561001057600080fd5b50600080546001600160a01b0319163317905561434b806100326000396000f3fe60806040523480156200001157600080fd5b5060043610620000b05760003560e01c806394f90664116200007f578063bbadc03b1162000062578063bbadc03b1462000179578063d88ff1f4146200019f578063e0d8a87514620001a957600080fd5b806394f90664146200014b578063a9bd375a146200016257600080fd5b80630c1911e014620000b557806341d1de9714620000e95780638da5cb5b1462000100578063901754d71462000114575b600080fd5b620000cc620000c636600462000807565b620001d5565b6040516001600160a01b0390911681526020015b60405180910390f35b620000cc620000fa36600462000834565b6200020e565b600054620000cc906001600160a01b031681565b620000cc620001253660046200084e565b60026020908152600092835260408084209091529082529020546001600160a01b031681565b620000cc6200015c36600462000931565b62000239565b620000cc620001733660046200084e565b620006a6565b620001906200018a36600462000a14565b620006f2565b604051620000e0919062000a39565b620001906200076a565b620000cc620001ba36600462000a14565b6004602052600090815260409020546001600160a01b031681565b60036020528160005260406000208181548110620001f257600080fd5b6000918252602090912001546001600160a01b03169150829050565b600181815481106200021f57600080fd5b6000918252602090912001546001600160a01b0316905081565b600080546001600160a01b03163314620002a45760405162461bcd60e51b815260206004820152602160248201527f4f6e6c79206f776e65722063616e2063616c6c20746869732066756e6374696f6044820152603760f91b60648201526084015b60405180910390fd5b876001600160a01b0316896001600160a01b031603620003115760405162461bcd60e51b815260206004820152602160248201527f546f6b656e20616464726573736573206d75737420626520646966666572656e6044820152601d60fa1b60648201526084016200029b565b876001600160a01b0316896001600160a01b0316111562000330579697965b6001600160a01b03808a1660009081526002602090815260408083208c85168452909152902054168015620003675790506200069a565b600086866040516200037990620007ce565b6200038692919062000ad0565b604051809103906000f080158015620003a3573d6000803e3d6000fd5b50905060008b8b8b8b858a8a604051620003bd90620007dc565b6001600160a01b0397881681529587166020870152938616604086015291851660608501528416608084015290921660a082015290151560c082015260e001604051809103906000f08015801562000419573d6000803e3d6000fd5b506040516306899d6560e01b81526001600160a01b038083166004830152919250908316906306899d6590602401600060405180830381600087803b1580156200046257600080fd5b505af115801562000477573d6000803e3d6000fd5b5050505080600260008e6001600160a01b03166001600160a01b0316815260200190815260200160002060008d6001600160a01b03166001600160a01b0316815260200190815260200160002060006101000a8154816001600160a01b0302191690836001600160a01b03160217905550600360008d6001600160a01b03166001600160a01b03168152602001908152602001600020819080600181540180825580915050600190039060005260206000200160009091909190916101000a8154816001600160a01b0302191690836001600160a01b03160217905550600360008c6001600160a01b03166001600160a01b03168152602001908152602001600020819080600181540180825580915050600190039060005260206000200160009091909190916101000a8154816001600160a01b0302191690836001600160a01b031602179055506001819080600181540180825580915050600190039060005260206000200160009091909190916101000a8154816001600160a01b0302191690836001600160a01b031602179055508a6001600160a01b03168c6001600160a01b0316826001600160a01b03167f358879fb389b6f9f20d07b18229b27a7d91e32da8e950b89b01c58769247e3d1858e8e8c8c6040516200068d9594939291906001600160a01b039586168152938516602085015291841660408401529092166060820152901515608082015260a00190565b60405180910390a4925050505b98975050505050505050565b6000816001600160a01b0316836001600160a01b03161115620006c7579091905b506001600160a01b039182166000908152600260209081526040808320938516835292905220541690565b6001600160a01b0381166000908152600360209081526040918290208054835181840281018401909452808452606093928301828280156200075e57602002820191906000526020600020905b81546001600160a01b031681526001909101906020018083116200073f575b50505050509050919050565b60606001805480602002602001604051908101604052809291908181526020018280548015620007c457602002820191906000526020600020905b81546001600160a01b03168152600190910190602001808311620007a5575b5050505050905090565b610e9c8062000b0383390190565b612977806200199f83390190565b80356001600160a01b03811681146200080257600080fd5b919050565b600080604083850312156200081b57600080fd5b6200082683620007ea565b946020939093013593505050565b6000602082840312156200084757600080fd5b5035919050565b600080604083850312156200086257600080fd5b6200086d83620007ea565b91506200087d60208401620007ea565b90509250929050565b634e487b7160e01b600052604160045260246000fd5b600082601f830112620008ae57600080fd5b813567ffffffffffffffff80821115620008cc57620008cc62000886565b604051601f8301601f19908116603f01168101908282118183101715620008f757620008f762000886565b816040528381528660208588010111156200091157600080fd5b836020870160208301376000602085830101528094505050505092915050565b600080600080600080600080610100898b0312156200094f57600080fd5b6200095a89620007ea565b97506200096a60208a01620007ea565b96506200097a60408a01620007ea565b95506200098a60608a01620007ea565b9450608089013567ffffffffffffffff80821115620009a857600080fd5b620009b68c838d016200089c565b955060a08b0135915080821115620009cd57600080fd5b50620009dc8b828c016200089c565b935050620009ed60c08a01620007ea565b915060e0890135801515811462000a0357600080fd5b809150509295985092959890939650565b60006020828403121562000a2757600080fd5b62000a3282620007ea565b9392505050565b6020808252825182820181905260009190848201906040850190845b8181101562000a7c5783516001600160a01b03168352928401929184019160010162000a55565b50909695505050505050565b6000815180845260005b8181101562000ab05760208185018101518683018201520162000a92565b506000602082860101526020601f19601f83011685010191505092915050565b60408152600062000ae5604083018562000a88565b828103602084015262000af9818562000a88565b9594505050505056fe60806040523480156200001157600080fd5b5060405162000e9c38038062000e9c833981016040819052620000349162000136565b818160036200004483826200022f565b5060046200005382826200022f565b5050600580546001600160a01b0319163317905550620002fb915050565b634e487b7160e01b600052604160045260246000fd5b600082601f8301126200009957600080fd5b81516001600160401b0380821115620000b657620000b662000071565b604051601f8301601f19908116603f01168101908282118183101715620000e157620000e162000071565b81604052838152602092508683858801011115620000fe57600080fd5b600091505b8382101562000122578582018301518183018401529082019062000103565b600093810190920192909252949350505050565b600080604083850312156200014a57600080fd5b82516001600160401b03808211156200016257600080fd5b620001708683870162000087565b935060208501519150808211156200018757600080fd5b50620001968582860162000087565b9150509250929050565b600181811c90821680620001b557607f821691505b602082108103620001d657634e487b7160e01b600052602260045260246000fd5b50919050565b601f8211156200022a57600081815260208120601f850160051c81016020861015620002055750805b601f850160051c820191505b81811015620002265782815560010162000211565b5050505b505050565b81516001600160401b038111156200024b576200024b62000071565b62000263816200025c8454620001a0565b84620001dc565b602080601f8311600181146200029b5760008415620002825750858301515b600019600386901b1c1916600185901b17855562000226565b600085815260208120601f198616915b82811015620002cc57888601518255948401946001909101908401620002ab565b5085821015620002eb5787850151600019600388901b60f8161c191681555b5050505050600190811b01905550565b610b91806200030b6000396000f3fe608060405234801561001057600080fd5b506004361061011b5760003560e01c8063423f6cef116100b25780638ffe7c1c116100815780639dc29fac116100665780639dc29fac14610277578063a9059cbb1461028a578063dd62ed3e1461029d57600080fd5b80638ffe7c1c1461025c57806395d89b411461026f57600080fd5b8063423f6cef146101e257806342842e0e146101f557806370a08231146102085780638da5cb5b1461023157600080fd5b806319adf935116100ee57806319adf9351461018857806323b872dd146101ad578063313ce567146101c057806340c10f19146101cf57600080fd5b806306899d651461012057806306fdde0314610135578063095ea7b31461015357806318160ddd14610176575b600080fd5b61013361012e3660046109dc565b6102d6565b005b61013d610395565b60405161014a91906109fe565b60405180910390f35b610166610161366004610a4c565b610427565b604051901515815260200161014a565b6002545b60405190815260200161014a565b6006546101669074010000000000000000000000000000000000000000900460ff1681565b6101666101bb366004610a76565b610441565b6040516012815260200161014a565b6101336101dd366004610a4c565b610465565b6101336101f0366004610a4c565b6104f3565b610133610203366004610a76565b6104fe565b61017a6102163660046109dc565b6001600160a01b031660009081526020819052604090205490565b600554610244906001600160a01b031681565b6040516001600160a01b03909116815260200161014a565b600654610244906001600160a01b031681565b61013d610544565b610133610285366004610a4c565b610553565b610166610298366004610a4c565b61055d565b61017a6102ab366004610ab2565b6001600160a01b03918216600090815260016020908152604080832093909416825291909152205490565b6005546001600160a01b0316331461035b5760405162461bcd60e51b815260206004820152603560248201527f4c6971756964697479546f6b656e3a204f6e6c79206f776e65722063616e207360448201527f657420436f46696e616e636520636f6e7472616374000000000000000000000060648201526084015b60405180910390fd5b600680547fffffffffffffffffffffffff0000000000000000000000000000000000000000166001600160a01b0392909216919091179055565b6060600380546103a490610ae5565b80601f01602080910402602001604051908101604052809291908181526020018280546103d090610ae5565b801561041d5780601f106103f25761010080835404028352916020019161041d565b820191906000526020600020905b81548152906001019060200180831161040057829003601f168201915b5050505050905090565b60003361043581858561056b565b60019150505b92915050565b60003361044f85828561057d565b61045a8585856105f5565b506001949350505050565b6006546001600160a01b031633146104e55760405162461bcd60e51b815260206004820152603e60248201527f4c6971756964697479546f6b656e3a204f6e6c7920436f46696e616e6365206360448201527f6f6e74726163742063616e2063616c6c20746869732066756e6374696f6e00006064820152608401610352565b6104ef8282610654565b5050565b6104ef33838361068a565b61050983838361068a565b6001600160a01b03831660009081526001602090815260408083203380855292529091205461053e9190610161908490610b35565b50505050565b6060600480546103a490610ae5565b6104ef828261078b565b6000336104358185856105f5565b61057883838360016107c1565b505050565b6001600160a01b03838116600090815260016020908152604080832093861683529290522054600019811461053e57818110156105e657604051637dc7a0d960e11b81526001600160a01b03841660048201526024810182905260448101839052606401610352565b61053e848484840360006107c1565b6001600160a01b03831661061f57604051634b637e8f60e11b815260006004820152602401610352565b6001600160a01b0382166106495760405163ec442f0560e01b815260006004820152602401610352565b610578838383610896565b6001600160a01b03821661067e5760405163ec442f0560e01b815260006004820152602401610352565b6104ef60008383610896565b6001600160a01b0382166106ec5760405162461bcd60e51b815260206004820152602360248201527f45524332303a207472616e7366657220746f20746865207a65726f206164647260448201526265737360e81b6064820152608401610352565b8061070c846001600160a01b031660009081526020819052604090205490565b10156107805760405162461bcd60e51b815260206004820152602660248201527f45524332303a207472616e7366657220616d6f756e742065786365656473206260448201527f616c616e636500000000000000000000000000000000000000000000000000006064820152608401610352565b6105788383836105f5565b6001600160a01b0382166107b557604051634b637e8f60e11b815260006004820152602401610352565b6104ef82600083610896565b6001600160a01b0384166107eb5760405163e602df0560e01b815260006004820152602401610352565b6001600160a01b03831661081557604051634a1406b160e11b815260006004820152602401610352565b6001600160a01b038085166000908152600160209081526040808320938716835292905220829055801561053e57826001600160a01b0316846001600160a01b03167f8c5be1e5ebec7d5bd14f71427d1e84f3dd0314c0f7b2291e5b200ac8c7c3b9258460405161088891815260200190565b60405180910390a350505050565b6001600160a01b0383166108c15780600260008282546108b69190610b48565b909155506109339050565b6001600160a01b038316600090815260208190526040902054818110156109145760405163391434e360e21b81526001600160a01b03851660048201526024810182905260448101839052606401610352565b6001600160a01b03841660009081526020819052604090209082900390555b6001600160a01b03821661094f5760028054829003905561096e565b6001600160a01b03821660009081526020819052604090208054820190555b816001600160a01b0316836001600160a01b03167fddf252ad1be2c89b69c2b068fc378daa952ba7f163c4a11628f55a4df523b3ef836040516109b391815260200190565b60405180910390a3505050565b80356001600160a01b03811681146109d757600080fd5b919050565b6000602082840312156109ee57600080fd5b6109f7826109c0565b9392505050565b600060208083528351808285015260005b81811015610a2b57858101830151858201604001528201610a0f565b506000604082860101526040601f19601f8301168501019250505092915050565b60008060408385031215610a5f57600080fd5b610a68836109c0565b946020939093013593505050565b600080600060608486031215610a8b57600080fd5b610a94846109c0565b9250610aa2602085016109c0565b9150604084013590509250925092565b60008060408385031215610ac557600080fd5b610ace836109c0565b9150610adc602084016109c0565b90509250929050565b600181811c90821680610af957607f821691505b602082108103610b1957634e487b7160e01b600052602260045260246000fd5b50919050565b634e487b7160e01b600052601160045260246000fd5b8181038181111561043b5761043b610b1f565b8082018082111561043b5761043b610b1f56fea26469706673582212208adf6dc1a4cac880615dbf31f5a67b13e75430c9c77be16d8376e9dfeeddb1b364736f6c6343000814003360806040526005600755605060085560056009556014600a55601e600b556032600c55600a6010553480156200003457600080fd5b506040516200297738038062002977833981016040819052620000579162000103565b600080546001600160a01b03199081166001600160a01b03998a161790915560018054821697891697909717909655600580548716958816959095179094556004805433908716179055600680548616938716939093179092556002805485169186169190911790556003805490931693169290921790556011805460ff1916911515919091179055620001a0565b80516001600160a01b0381168114620000fe57600080fd5b919050565b600080600080600080600060e0888a0312156200011f57600080fd5b6200012a88620000e6565b96506200013a60208901620000e6565b95506200014a60408901620000e6565b94506200015a60608901620000e6565b93506200016a60808901620000e6565b92506200017a60a08901620000e6565b915060c088015180151581146200019057600080fd5b8091505092959891949750929550565b6127c780620001b06000396000f3fe608060405234801561001057600080fd5b50600436106103415760003560e01c80637b624429116101bd578063befcabbd116100f9578063f0362ee9116100a2578063f5b5f4771161007c578063f5b5f477146106a0578063f7c618c1146106c0578063fea28478146106d3578063ff78025c146106e657600080fd5b8063f0362ee914610656578063f0c1020d14610660578063f0f0b2281461068057600080fd5b8063d9accfac116100d3578063d9accfac1461061a578063dc6930c21461063a578063ee99205c1461064357600080fd5b8063befcabbd146105ea578063bf16f65a146105f4578063d82e39621461060757600080fd5b8063a42c83d311610166578063ab22a25f11610140578063ab22a25f146105a8578063ab7b1c89146105b1578063aff82509146105c4578063b442c24e146105e157600080fd5b8063a42c83d314610579578063a680114a14610582578063aa77bc831461059557600080fd5b80638da5cb5b116101975780638da5cb5b1461054a578063952cc59d1461055d578063a114398d1461056657600080fd5b80637b6244291461050f578063817b1cd21461051857806384a0e58f1461052157600080fd5b80634578ae041161028c5780635f64b55b11610235578063614d66871161020f578063614d6687146104d7578063656f9ba4146104e1578063741bef1a146104e95780637a16af7f146104fc57600080fd5b80635f64b55b1461049e578063608e4dd0146104b15780636112fe2e146104c457600080fd5b806352abe4b01161026657806352abe4b01461047a57806359f6adc7146104825780635b72a33a1461049557600080fd5b80634578ae041461045e578063484d0d9b146104685780634d3344941461047057600080fd5b806327e235e3116102ee57806337829f36116102c857806337829f361461042f5780633b7b61881461043857806343cd8f7e1461044b57600080fd5b806327e235e3146103f457806333f8cade14610414578063372500ab1461042757600080fd5b80630a861f2a1161031f5780630a861f2a146103a35780630fc63d10146103b65780631c16b6e0146103e157600080fd5b806303e43c3a1461034657806305bf77da146103795780630941cb3d14610383575b600080fd5b6103666103543660046125d9565b60156020526000908152604090205481565b6040519081526020015b60405180910390f35b6103816106ef565b005b6103666103913660046125d9565b60146020526000908152604090205481565b6103816103b13660046125f4565b6107e8565b6000546103c9906001600160a01b031681565b6040516001600160a01b039091168152602001610370565b6103816103ef3660046125f4565b61092b565b6103666104023660046125d9565b60136020526000908152604090205481565b6103816104223660046125f4565b610a62565b610381610acb565b610366600a5481565b61038161044636600461260d565b610b71565b6002546103c9906001600160a01b031681565b610366621baf8081565b610381610d59565b6103666212750081565b610381610e4c565b6103816104903660046125f4565b610f2f565b61036660095481565b6001546103c9906001600160a01b031681565b6103816104bf3660046125f4565b610fcb565b6103816104d23660046125f4565b61112d565b6103666276a70081565b61036661124c565b6006546103c9906001600160a01b031681565b61038161050a36600461260d565b611295565b61036660085481565b610366600d5481565b6103c961052f3660046125d9565b6019602052600090815260409020546001600160a01b031681565b6004546103c9906001600160a01b031681565b61036660105481565b61038161057436600461262f565b611594565b610366600c5481565b610381610590366004612659565b611618565b6103816105a336600461262f565b6119b4565b610366600b5481565b6103816105bf3660046125f4565b611b0f565b6011546105d19060ff1681565b6040519015158152602001610370565b61036660075481565b61036662278d0081565b6103816106023660046125f4565b611c8f565b6103666106153660046125d9565b611cee565b6103666106283660046125d9565b60186020526000908152604090205481565b610366600f5481565b6003546103c9906001600160a01b031681565b61036662093a8081565b61036661066e3660046125d9565b60166020526000908152604090205481565b61036661068e3660046125d9565b60126020526000908152604090205481565b6103666106ae3660046125d9565b60176020526000908152604090205481565b6005546103c9906001600160a01b031681565b6103816106e136600461269a565b611e42565b610366600e5481565b6004546001600160a01b0316331461074e5760405162461bcd60e51b815260206004820181905260248201527f4f6e6c79206f776e65722063616e20776974686472617720737761702066656560448201526064015b60405180910390fd5b6000610772606461076c601054600e54611ed590919063ffffffff16565b90611eea565b600e549091506107829082611ef6565b600e556004546000546107a2916001600160a01b03918216911683611f02565b6004546040518281526001600160a01b03909116907ffe3a1f8a2c5c7b93b78f378d2d615c31e557981379de63135d4ad26285d2609f906020015b60405180910390a250565b6000811161085e5760405162461bcd60e51b815260206004820152602d60248201527f4c697175696469747920746f6b656e20616d6f756e74206d757374206265206760448201527f726561746572207468616e2030000000000000000000000000000000000000006064820152608401610745565b600254604051632770a7eb60e21b8152336004820152602481018390526001600160a01b0390911690639dc29fac90604401600060405180830381600087803b1580156108aa57600080fd5b505af11580156108be573d6000803e3d6000fd5b5050600080546108db93506001600160a01b031691503390611f02565b6001546108f3906001600160a01b0316336000611f02565b604080516000808252602082015233917fac927268ea9ae2e55027e6ab727fc2db8e3ea48c56c658223a1074567e4298c091016107dd565b6000811161098c5760405162461bcd60e51b815260206004820152602860248201527f436f6c6c61746572616c20616d6f756e74206d75737420626520677265617465604482015267072207468616e20360c41b6064820152608401610745565b336000908152601560205260409020548111156109eb5760405162461bcd60e51b815260206004820152601760248201527f4e6f7420656e6f75676820636f6c6c61746572616c20410000000000000000006044820152606401610745565b33600090815260156020526040902054610a059082611ef6565b336000818152601560205260408120929092559054610a30916001600160a01b039091169083611f02565b60405181815233907fc30fcfbcaac9e0deffa719714eaa82396ff506a0d0d0eebe170830177288715d906020016107dd565b6004546001600160a01b03163314610ac65760405162461bcd60e51b815260206004820152602160248201527f4f6e6c79206f776e65722063616e20757064617465206f776e657220736861726044820152606560f81b6064820152608401610745565b601055565b6000610ad633611cee565b905060008111610b285760405162461bcd60e51b815260206004820152601360248201527f4e6f207265776172647320746f20636c61696d000000000000000000000000006044820152606401610745565b600554610b3f906001600160a01b03163383611f02565b60405181815233907ffc30cddea38e2bf4d6ea7d3f9ed3b6ad7f176419f4963bd81318067a4aee73fe906020016107dd565b60008211610bc15760405162461bcd60e51b815260206004820152601d60248201527f416d6f756e74206d7573742062652067726561746572207468616e20300000006044820152606401610745565b62093a80811480610bd457506212750081145b80610be15750621baf8081145b610c2d5760405162461bcd60e51b815260206004820152601860248201527f496e76616c6964207374616b696e67206475726174696f6e00000000000000006044820152606401610745565b6001600d6000828254610c4091906126cd565b9091555050600254604051632142170760e11b8152336004820152306024820152604481018490526001600160a01b03909116906342842e0e90606401600060405180830381600087803b158015610c9757600080fd5b505af1158015610cab573d6000803e3d6000fd5b5050600354604051630c51b88f60e01b815233600482015260248101869052604481018590526001600160a01b039091169250630c51b88f9150606401600060405180830381600087803b158015610d0257600080fd5b505af1158015610d16573d6000803e3d6000fd5b505060408051858152602081018590523393507fdd2a19c3bdd089cbe77c04f5655f83de0504d6140d12c8667646f55d0557c4dc92500160405180910390a25050565b6004546001600160a01b03163314610dbf5760405162461bcd60e51b8152602060048201526024808201527f4f6e6c79206f776e65722063616e20776974686472617720696e7465726573746044820152632066656560e01b6064820152608401610745565b6000610ddd606461076c601054600f54611ed590919063ffffffff16565b600f54909150610ded9082611ef6565b600f55600454600054610e0d916001600160a01b03918216911683611f02565b6004546040518281526001600160a01b03909116907fc5408a91ab755d718179693faa93aa703423884985a136020584c2a555622abd906020016107dd565b336000908152601660209081526040808320546015909252822054610e7091611f7b565b905060008111610ec25760405162461bcd60e51b815260206004820152601a60248201527f4e6f20636f6c6c61746572616c20746f206c69717569646174650000000000006044820152606401610745565b336000908152601560209081526040808320839055601690915281208190556004549054610efd916001600160a01b03918216911683611f02565b60405181815233907ffa149b6f966139cc74dfaf2610f7b54d8823dbeed646b7da48d8144f510c3f21906020016107dd565b60115460ff16610f815760405162461bcd60e51b815260206004820152601860248201527f506f6f6c206973206e6f7420696e63656e746976697a656400000000000000006044820152606401610745565b600554610f99906001600160a01b0316333084611f87565b60405181815233907ff64d4e2ae91601d51ff62b8199e65d003375d548921395402df0eb11a18ee89d906020016107dd565b6000811161101b5760405162461bcd60e51b815260206004820152601d60248201527f416d6f756e74206d7573742062652067726561746572207468616e20300000006044820152606401610745565b600354604051630615339760e51b8152336004820152602481018390526001600160a01b039091169063c2a672e090604401600060405180830381600087803b15801561106757600080fd5b505af115801561107b573d6000803e3d6000fd5b5050600254604051632770a7eb60e21b8152336004820152602481018590526001600160a01b039091169250639dc29fac9150604401600060405180830381600087803b1580156110cb57600080fd5b505af11580156110df573d6000803e3d6000fd5b505050506001600d60008282546110f691906126e0565b909155505060405181815233907f9845e367b683334e5c0b12d7b81721ac518e649376fa65e3d68324e8f34f2679906020016107dd565b336000908152601560205260409020548111158061115a5750336000908152601660205260409020548111155b6111a65760405162461bcd60e51b815260206004820152601760248201527f496e73756666696369656e7420636f6c6c61746572616c0000000000000000006044820152606401610745565b33600090815260156020526040902054811161120657336000908152601560205260409020546111d69082611ef6565b336000818152601560205260408120929092559054611201916001600160a01b039091169083611f02565b610a30565b336000908152601660205260409020546112209082611ef6565b33600081815260166020526040902091909155600154610a30916001600160a01b039091169083611f02565b33600090815260166020908152604080832054601590925282205482916112739190611f7b565b905061128f606461076c60085484611ed590919063ffffffff16565b91505090565b6000821180156112a55750600081115b6112fd5760405162461bcd60e51b8152602060048201526024808201527f546f6b656e20616d6f756e7473206d75737420626520677265617465722074686044820152630616e20360e41b6064820152608401610745565b600054611315906001600160a01b0316333085611f87565b60015461132d906001600160a01b0316333084611f87565b600080600260009054906101000a90046001600160a01b03166001600160a01b03166318160ddd6040518163ffffffff1660e01b8152600401602060405180830381865afa158015611383573d6000803e3d6000fd5b505050506040513d601f19601f820116820180604052508101906113a791906126f3565b9050806000036113c2576113bb8484611ed5565b91506114dd565b600080546040516370a0823160e01b81523060048201526001600160a01b03909116906370a0823190602401602060405180830381865afa15801561140b573d6000803e3d6000fd5b505050506040513d601f19601f8201168201806040525081019061142f91906126f3565b6001546040516370a0823160e01b81523060048201529192506000916001600160a01b03909116906370a0823190602401602060405180830381865afa15801561147d573d6000803e3d6000fd5b505050506040513d601f19601f820116820180604052508101906114a191906126f3565b905060006114b38361076c8987611ed5565b905060006114c58361076c8988611ed5565b90508082106114d457806114d6565b815b9550505050505b6002546040516340c10f1960e01b8152306004820152602481018490526001600160a01b03909116906340c10f1990604401600060405180830381600087803b15801561152957600080fd5b505af115801561153d573d6000803e3d6000fd5b5050505061154b3383611fc6565b604080518581526020810185905290810183905233907f3bca7014f4c0ccc8016338c79f4c00e82068dbadaf4f01ca5449040fdd39f5009060600160405180910390a250505050565b600081116115f05760405162461bcd60e51b815260206004820152602360248201527f546f6b656e20616d6f756e74206d75737420626520677265617465722074686160448201526206e20360ec1b6064820152608401610745565b6006546001600160a01b031661160e5761160a8282612084565b5050565b61160a828261221b565b600082116116745760405162461bcd60e51b815260206004820152602360248201527f546f6b656e20616d6f756e74206d75737420626520677265617465722074686160448201526206e20360ec1b6064820152608401610745565b62278d0081148061168757506276a70081145b6116d35760405162461bcd60e51b815260206004820152601560248201527f496e76616c6964206c6f616e206475726174696f6e00000000000000000000006044820152606401610745565b60008054819081906001600160a01b039081169087160361170b5750506001546000548492506001600160a01b039182169116611786565b6001546001600160a01b039081169087160361173e5750506000546001548492506001600160a01b039182169116611786565b60405162461bcd60e51b815260206004820152601e60248201527f496e76616c696420746f6b656e20616464726573732070726f766964656400006044820152606401610745565b60085460009061179b9061076c866064611ed5565b6040516370a0823160e01b815233600482015290915081906001600160a01b038516906370a0823190602401602060405180830381865afa1580156117e4573d6000803e3d6000fd5b505050506040513d601f19601f8201168201806040525081019061180891906126f3565b10156118565760405162461bcd60e51b815260206004820152601760248201527f496e73756666696369656e7420636f6c6c61746572616c0000000000000000006044820152606401610745565b61186b6001600160a01b038416333084611f87565b61187f6001600160a01b0383163388611f02565b6000546001600160a01b03908116908816036118c457336000908152601660205260409020546118af9082611f7b565b336000908152601660205260409020556118ef565b336000908152601560205260409020546118de9082611f7b565b336000908152601560205260409020555b336000908152601460205260409020546119099085611f7b565b3360008181526014602090815260408083209490945560178152838220429055601881528382208990556019815283822080547fffffffffffffffffffffffff0000000000000000000000000000000000000000166001600160a01b038816179055835188815290810191909152918201879052907f35f22bd5666483eaee517bbb1999755225edf1788eeafe1184f7238eaed8e37e9060600160405180910390a250505050505050565b60008111611a155760405162461bcd60e51b815260206004820152602860248201527f436f6c6c61746572616c20616d6f756e74206d75737420626520677265617465604482015267072207468616e20360c41b6064820152608401610745565b6000546001600160a01b0390811690831603611a7257600054611a43906001600160a01b0316333084611f87565b33600090815260156020526040902054611a5d9082611f7b565b33600090815260156020526040902055611acb565b6001546001600160a01b039081169083160361173e57600154611aa0906001600160a01b0316333084611f87565b33600090815260166020526040902054611aba9082611f7b565b336000908152601660205260409020555b6040518181526001600160a01b0383169033907ff1c0dd7e9b98bbff859029005ef89b127af049cd18df1a8d79f0b7e019911e569060200160405180910390a35050565b33600090815260146020526040902054611b6b5760405162461bcd60e51b815260206004820152601260248201527f4e6f20746f6b656e7320626f72726f77656400000000000000000000000000006044820152606401610745565b60008111611bc65760405162461bcd60e51b815260206004820152602260248201527f4c6f616e20616d6f756e74206d7573742062652067726561746572207468616e604482015261020360f41b6064820152608401610745565b600054611bde906001600160a01b0316333084611f87565b33600090815260146020526040902054611bf89082611ef6565b33600090815260146020908152604080832093909355601790522054611c5a90611c51906301e133809061076c90611c31904290611ef6565b611c4b606461076c60095489611ed590919063ffffffff16565b90611ed5565b600f5490611f7b565b600f5560405181815233907fc200a1f31dd659e356e0f112c82558e25f49f7b0f84438691cd96f5cb3558823906020016107dd565b6004546001600160a01b03163314611ce95760405162461bcd60e51b815260206004820152601e60248201527f4f6e6c79206f776e65722063616e2075706461746520737761702066656500006044820152606401610745565b600755565b600354604051636021726760e01b81526001600160a01b0383811660048301526000928392911690636021726790602401602060405180830381865afa158015611d3c573d6000803e3d6000fd5b505050506040513d601f19601f82011682018060405250810190611d6091906126f3565b60035460405163d62e06af60e01b81526001600160a01b0386811660048301529293506000928392169063d62e06af90602401602060405180830381865afa158015611db0573d6000803e3d6000fd5b505050506040513d601f19601f82011682018060405250810190611dd491906126f3565b905062093a80811015611deb57600a549150611e20565b62127500811015611e0057600b549150611e20565b621baf80811015611e1557600c549150611e20565b506000949350505050565b6000611e386301e1338061076c84611c4b8888611ed5565b9695505050505050565b6004546001600160a01b03163314611ec25760405162461bcd60e51b815260206004820152602560248201527f4f6e6c79206f776e65722063616e2075706461746520706f6f6c20696e63656e60448201527f74697665730000000000000000000000000000000000000000000000000000006064820152608401610745565b6011805460ff1916911515919091179055565b6000611ee1828461270c565b90505b92915050565b6000611ee18284612723565b6000611ee182846126e0565b6040516001600160a01b03838116602483015260448201839052611f7691859182169063a9059cbb906064015b604051602081830303815290604052915060e01b6020820180517bffffffffffffffffffffffffffffffffffffffffffffffffffffffff838183161783525050505061244e565b505050565b6000611ee182846126cd565b6040516001600160a01b038481166024830152838116604483015260648201839052611fc09186918216906323b872dd90608401611f2f565b50505050565b60025460405163a9059cbb60e01b81526001600160a01b038481166004830152602482018490529091169063a9059cbb906044016020604051808303816000875af1158015612019573d6000803e3d6000fd5b505050506040513d601f19601f8201168201806040525081019061203d9190612745565b50604080516001600160a01b0384168152602081018390527f731c4d5834cb99427f762f81ed43118ac0de5a1a0194fb326be6154181a2546f910160405180910390a15050565b600080548190819081906001600160a01b0390811690871603612153576120bc6103e861076c60075488611ed590919063ffffffff16565b93506120c88585611ef6565b6000549092506120e3906001600160a01b0316333088611f87565b600e546120f09085611f7b565b600e5560015461210a906001600160a01b03163384611f02565b604080518681526000602082015290810185905233907f5998feb874e6089317765439db6575c0ba1c29ba0084c05f3c61be5cbd74cb8c906060015b60405180910390a2612213565b6001546001600160a01b039081169087160361173e576121846103e861076c60075488611ed590919063ffffffff16565b92506121908584611ef6565b6001549091506121ab906001600160a01b0316333088611f87565b600e546121b89084611f7b565b600e556000546121d2906001600160a01b03163383611f02565b60408051600081526020810187905290810184905233907f5998feb874e6089317765439db6575c0ba1c29ba0084c05f3c61be5cbd74cb8c90606001612146565b505050505050565b6000806000806000600660009054906101000a90046001600160a01b03166001600160a01b031663ec08c6696040518163ffffffff1660e01b8152600401602060405180830381865afa158015612276573d6000803e3d6000fd5b505050506040513d601f19601f8201168201806040525081019061229a91906126f3565b6000549091506001600160a01b0390811690881603612375576122de670de0b6b3a764000061076c83611c4b6103e861076c6007548d611ed590919063ffffffff16565b94506122ea8686611ef6565b600054909350612305906001600160a01b0316333089611f87565b600e546123129086611f7b565b600e5560015461232c906001600160a01b03163385611f02565b604080518781526000602082015290810186905233907f5998feb874e6089317765439db6575c0ba1c29ba0084c05f3c61be5cbd74cb8c906060015b60405180910390a2612445565b6001546001600160a01b039081169088160361173e576123b6670de0b6b3a764000061076c83611c4b6103e861076c6007548d611ed590919063ffffffff16565b93506123c28685611ef6565b6001549092506123dd906001600160a01b0316333089611f87565b600e546123ea9085611f7b565b600e55600054612404906001600160a01b03163384611f02565b60408051600081526020810188905290810185905233907f5998feb874e6089317765439db6575c0ba1c29ba0084c05f3c61be5cbd74cb8c90606001612368565b50505050505050565b60006124636001600160a01b038416836124b1565b905080516000141580156124885750808060200190518101906124869190612745565b155b15611f7657604051635274afe760e01b81526001600160a01b0384166004820152602401610745565b6060611ee18383600084600080856001600160a01b031684866040516124d79190612762565b60006040518083038185875af1925050503d8060008114612514576040519150601f19603f3d011682016040523d82523d6000602084013e612519565b606091505b5091509150612529868383612535565b925050505b9392505050565b60608261254a5761254582612591565b61252e565b815115801561256157506001600160a01b0384163b155b1561258a57604051639996b31560e01b81526001600160a01b0385166004820152602401610745565b508061252e565b8051156125a15780518082602001fd5b604051630a12f52160e11b815260040160405180910390fd5b50565b80356001600160a01b03811681146125d457600080fd5b919050565b6000602082840312156125eb57600080fd5b611ee1826125bd565b60006020828403121561260657600080fd5b5035919050565b6000806040838503121561262057600080fd5b50508035926020909101359150565b6000806040838503121561264257600080fd5b61264b836125bd565b946020939093013593505050565b60008060006060848603121561266e57600080fd5b612677846125bd565b95602085013595506040909401359392505050565b80151581146125ba57600080fd5b6000602082840312156126ac57600080fd5b813561252e8161268c565b634e487b7160e01b600052601160045260246000fd5b80820180821115611ee457611ee46126b7565b81810381811115611ee457611ee46126b7565b60006020828403121561270557600080fd5b5051919050565b8082028115828204841417611ee457611ee46126b7565b60008261274057634e487b7160e01b600052601260045260246000fd5b500490565b60006020828403121561275757600080fd5b815161252e8161268c565b6000825160005b818110156127835760208186018101518583015201612769565b50600092019182525091905056fea264697066735822122028f90043139e31fd50176945cc8cb7e35db786e827569847d10db9fc85b17afc64736f6c63430008140033a26469706673582212208ca5817342a66ae047b22099bde46ec43858c7f8d79a4f90eda12fe62951732b64736f6c63430008140033",
  "linkReferences": {},
  "deployedLinkReferences": {}
}