{
  "_format": "hh-sol-artifact-1",
  "contractName": "LiquidityToken",
  "sourceName": "contracts/CoFinance.sol",
  "abi": [
    {
      "inputs": [
        {
          "internalType": "string",
          "name": "name",
          "type": "string"
        },
        {
          "internalType": "string",
          "name": "symbol",
          "type": "string"
        }
      ],
      "stateMutability": "nonpayable",
      "type": "constructor"
    },
    {
      "inputs": [
        {
          "internalType": "address",
          "name": "spender",
          "type": "address"
        },
        {
          "internalType": "uint256",
          "name": "allowance",
          "type": "uint256"
        },
        {
          "internalType": "uint256",
          "name": "needed",
          "type": "uint256"
        }
      ],
      "name": "ERC20InsufficientAllowance",
      "type": "error"
    },
    {
      "inputs": [
        {
          "internalType": "address",
          "name": "sender",
          "type": "address"
        },
        {
          "internalType": "uint256",
          "name": "balance",
          "type": "uint256"
        },
        {
          "internalType": "uint256",
          "name": "needed",
          "type": "uint256"
        }
      ],
      "name": "ERC20InsufficientBalance",
      "type": "error"
    },
    {
      "inputs": [
        {
          "internalType": "address",
          "name": "approver",
          "type": "address"
        }
      ],
      "name": "ERC20InvalidApprover",
      "type": "error"
    },
    {
      "inputs": [
        {
          "internalType": "address",
          "name": "receiver",
          "type": "address"
        }
      ],
      "name": "ERC20InvalidReceiver",
      "type": "error"
    },
    {
      "inputs": [
        {
          "internalType": "address",
          "name": "sender",
          "type": "address"
        }
      ],
      "name": "ERC20InvalidSender",
      "type": "error"
    },
    {
      "inputs": [
        {
          "internalType": "address",
          "name": "spender",
          "type": "address"
        }
      ],
      "name": "ERC20InvalidSpender",
      "type": "error"
    },
    {
      "anonymous": false,
      "inputs": [
        {
          "indexed": true,
          "internalType": "address",
          "name": "owner",
          "type": "address"
        },
        {
          "indexed": true,
          "internalType": "address",
          "name": "spender",
          "type": "address"
        },
        {
          "indexed": false,
          "internalType": "uint256",
          "name": "value",
          "type": "uint256"
        }
      ],
      "name": "Approval",
      "type": "event"
    },
    {
      "anonymous": false,
      "inputs": [
        {
          "indexed": true,
          "internalType": "address",
          "name": "from",
          "type": "address"
        },
        {
          "indexed": true,
          "internalType": "address",
          "name": "to",
          "type": "address"
        },
        {
          "indexed": false,
          "internalType": "uint256",
          "name": "value",
          "type": "uint256"
        }
      ],
      "name": "Transfer",
      "type": "event"
    },
    {
      "inputs": [
        {
          "internalType": "address",
          "name": "owner",
          "type": "address"
        },
        {
          "internalType": "address",
          "name": "spender",
          "type": "address"
        }
      ],
      "name": "allowance",
      "outputs": [
        {
          "internalType": "uint256",
          "name": "",
          "type": "uint256"
        }
      ],
      "stateMutability": "view",
      "type": "function"
    },
    {
      "inputs": [
        {
          "internalType": "address",
          "name": "spender",
          "type": "address"
        },
        {
          "internalType": "uint256",
          "name": "value",
          "type": "uint256"
        }
      ],
      "name": "approve",
      "outputs": [
        {
          "internalType": "bool",
          "name": "",
          "type": "bool"
        }
      ],
      "stateMutability": "nonpayable",
      "type": "function"
    },
    {
      "inputs": [
        {
          "internalType": "address",
          "name": "account",
          "type": "address"
        }
      ],
      "name": "balanceOf",
      "outputs": [
        {
          "internalType": "uint256",
          "name": "",
          "type": "uint256"
        }
      ],
      "stateMutability": "view",
      "type": "function"
    },
    {
      "inputs": [
        {
          "internalType": "address",
          "name": "account",
          "type": "address"
        },
        {
          "internalType": "uint256",
          "name": "amount",
          "type": "uint256"
        }
      ],
      "name": "burn",
      "outputs": [],
      "stateMutability": "nonpayable",
      "type": "function"
    },
    {
      "inputs": [],
      "name": "cofinanceContract",
      "outputs": [
        {
          "internalType": "address",
          "name": "",
          "type": "address"
        }
      ],
      "stateMutability": "view",
      "type": "function"
    },
    {
      "inputs": [],
      "name": "decimals",
      "outputs": [
        {
          "internalType": "uint8",
          "name": "",
          "type": "uint8"
        }
      ],
      "stateMutability": "view",
      "type": "function"
    },
    {
      "inputs": [
        {
          "internalType": "address",
          "name": "account",
          "type": "address"
        },
        {
          "internalType": "uint256",
          "name": "amount",
          "type": "uint256"
        }
      ],
      "name": "mint",
      "outputs": [],
      "stateMutability": "nonpayable",
      "type": "function"
    },
    {
      "inputs": [],
      "name": "name",
      "outputs": [
        {
          "internalType": "string",
          "name": "",
          "type": "string"
        }
      ],
      "stateMutability": "view",
      "type": "function"
    },
    {
      "inputs": [],
      "name": "owner",
      "outputs": [
        {
          "internalType": "address",
          "name": "",
          "type": "address"
        }
      ],
      "stateMutability": "view",
      "type": "function"
    },
    {
      "inputs": [],
      "name": "poolIncentivized",
      "outputs": [
        {
          "internalType": "bool",
          "name": "",
          "type": "bool"
        }
      ],
      "stateMutability": "view",
      "type": "function"
    },
    {
      "inputs": [
        {
          "internalType": "address",
          "name": "to",
          "type": "address"
        },
        {
          "internalType": "uint256",
          "name": "amount",
          "type": "uint256"
        }
      ],
      "name": "safeTransfer",
      "outputs": [],
      "stateMutability": "nonpayable",
      "type": "function"
    },
    {
      "inputs": [
        {
          "internalType": "address",
          "name": "from",
          "type": "address"
        },
        {
          "internalType": "address",
          "name": "to",
          "type": "address"
        },
        {
          "internalType": "uint256",
          "name": "amount",
          "type": "uint256"
        }
      ],
      "name": "safeTransferFrom",
      "outputs": [],
      "stateMutability": "nonpayable",
      "type": "function"
    },
    {
      "inputs": [
        {
          "internalType": "address",
          "name": "_cofinanceContract",
          "type": "address"
        }
      ],
      "name": "setCoFinanceContract",
      "outputs": [],
      "stateMutability": "nonpayable",
      "type": "function"
    },
    {
      "inputs": [],
      "name": "symbol",
      "outputs": [
        {
          "internalType": "string",
          "name": "",
          "type": "string"
        }
      ],
      "stateMutability": "view",
      "type": "function"
    },
    {
      "inputs": [],
      "name": "totalSupply",
      "outputs": [
        {
          "internalType": "uint256",
          "name": "",
          "type": "uint256"
        }
      ],
      "stateMutability": "view",
      "type": "function"
    },
    {
      "inputs": [
        {
          "internalType": "address",
          "name": "to",
          "type": "address"
        },
        {
          "internalType": "uint256",
          "name": "value",
          "type": "uint256"
        }
      ],
      "name": "transfer",
      "outputs": [
        {
          "internalType": "bool",
          "name": "",
          "type": "bool"
        }
      ],
      "stateMutability": "nonpayable",
      "type": "function"
    },
    {
      "inputs": [
        {
          "internalType": "address",
          "name": "from",
          "type": "address"
        },
        {
          "internalType": "address",
          "name": "to",
          "type": "address"
        },
        {
          "internalType": "uint256",
          "name": "value",
          "type": "uint256"
        }
      ],
      "name": "transferFrom",
      "outputs": [
        {
          "internalType": "bool",
          "name": "",
          "type": "bool"
        }
      ],
      "stateMutability": "nonpayable",
      "type": "function"
    }
  ],
  "bytecode": "0x60806040523480156200001157600080fd5b5060405162000e9c38038062000e9c833981016040819052620000349162000136565b818160036200004483826200022f565b5060046200005382826200022f565b5050600580546001600160a01b0319163317905550620002fb915050565b634e487b7160e01b600052604160045260246000fd5b600082601f8301126200009957600080fd5b81516001600160401b0380821115620000b657620000b662000071565b604051601f8301601f19908116603f01168101908282118183101715620000e157620000e162000071565b81604052838152602092508683858801011115620000fe57600080fd5b600091505b8382101562000122578582018301518183018401529082019062000103565b600093810190920192909252949350505050565b600080604083850312156200014a57600080fd5b82516001600160401b03808211156200016257600080fd5b620001708683870162000087565b935060208501519150808211156200018757600080fd5b50620001968582860162000087565b9150509250929050565b600181811c90821680620001b557607f821691505b602082108103620001d657634e487b7160e01b600052602260045260246000fd5b50919050565b601f8211156200022a57600081815260208120601f850160051c81016020861015620002055750805b601f850160051c820191505b81811015620002265782815560010162000211565b5050505b505050565b81516001600160401b038111156200024b576200024b62000071565b62000263816200025c8454620001a0565b84620001dc565b602080601f8311600181146200029b5760008415620002825750858301515b600019600386901b1c1916600185901b17855562000226565b600085815260208120601f198616915b82811015620002cc57888601518255948401946001909101908401620002ab565b5085821015620002eb5787850151600019600388901b60f8161c191681555b5050505050600190811b01905550565b610b91806200030b6000396000f3fe608060405234801561001057600080fd5b506004361061011b5760003560e01c8063423f6cef116100b25780638ffe7c1c116100815780639dc29fac116100665780639dc29fac14610277578063a9059cbb1461028a578063dd62ed3e1461029d57600080fd5b80638ffe7c1c1461025c57806395d89b411461026f57600080fd5b8063423f6cef146101e257806342842e0e146101f557806370a08231146102085780638da5cb5b1461023157600080fd5b806319adf935116100ee57806319adf9351461018857806323b872dd146101ad578063313ce567146101c057806340c10f19146101cf57600080fd5b806306899d651461012057806306fdde0314610135578063095ea7b31461015357806318160ddd14610176575b600080fd5b61013361012e3660046109dc565b6102d6565b005b61013d610395565b60405161014a91906109fe565b60405180910390f35b610166610161366004610a4c565b610427565b604051901515815260200161014a565b6002545b60405190815260200161014a565b6006546101669074010000000000000000000000000000000000000000900460ff1681565b6101666101bb366004610a76565b610441565b6040516012815260200161014a565b6101336101dd366004610a4c565b610465565b6101336101f0366004610a4c565b6104f3565b610133610203366004610a76565b6104fe565b61017a6102163660046109dc565b6001600160a01b031660009081526020819052604090205490565b600554610244906001600160a01b031681565b6040516001600160a01b03909116815260200161014a565b600654610244906001600160a01b031681565b61013d610544565b610133610285366004610a4c565b610553565b610166610298366004610a4c565b61055d565b61017a6102ab366004610ab2565b6001600160a01b03918216600090815260016020908152604080832093909416825291909152205490565b6005546001600160a01b0316331461035b5760405162461bcd60e51b815260206004820152603560248201527f4c6971756964697479546f6b656e3a204f6e6c79206f776e65722063616e207360448201527f657420436f46696e616e636520636f6e7472616374000000000000000000000060648201526084015b60405180910390fd5b600680547fffffffffffffffffffffffff0000000000000000000000000000000000000000166001600160a01b0392909216919091179055565b6060600380546103a490610ae5565b80601f01602080910402602001604051908101604052809291908181526020018280546103d090610ae5565b801561041d5780601f106103f25761010080835404028352916020019161041d565b820191906000526020600020905b81548152906001019060200180831161040057829003601f168201915b5050505050905090565b60003361043581858561056b565b60019150505b92915050565b60003361044f85828561057d565b61045a8585856105f5565b506001949350505050565b6006546001600160a01b031633146104e55760405162461bcd60e51b815260206004820152603e60248201527f4c6971756964697479546f6b656e3a204f6e6c7920436f46696e616e6365206360448201527f6f6e74726163742063616e2063616c6c20746869732066756e6374696f6e00006064820152608401610352565b6104ef8282610654565b5050565b6104ef33838361068a565b61050983838361068a565b6001600160a01b03831660009081526001602090815260408083203380855292529091205461053e9190610161908490610b35565b50505050565b6060600480546103a490610ae5565b6104ef828261078b565b6000336104358185856105f5565b61057883838360016107c1565b505050565b6001600160a01b03838116600090815260016020908152604080832093861683529290522054600019811461053e57818110156105e657604051637dc7a0d960e11b81526001600160a01b03841660048201526024810182905260448101839052606401610352565b61053e848484840360006107c1565b6001600160a01b03831661061f57604051634b637e8f60e11b815260006004820152602401610352565b6001600160a01b0382166106495760405163ec442f0560e01b815260006004820152602401610352565b610578838383610896565b6001600160a01b03821661067e5760405163ec442f0560e01b815260006004820152602401610352565b6104ef60008383610896565b6001600160a01b0382166106ec5760405162461bcd60e51b815260206004820152602360248201527f45524332303a207472616e7366657220746f20746865207a65726f206164647260448201526265737360e81b6064820152608401610352565b8061070c846001600160a01b031660009081526020819052604090205490565b10156107805760405162461bcd60e51b815260206004820152602660248201527f45524332303a207472616e7366657220616d6f756e742065786365656473206260448201527f616c616e636500000000000000000000000000000000000000000000000000006064820152608401610352565b6105788383836105f5565b6001600160a01b0382166107b557604051634b637e8f60e11b815260006004820152602401610352565b6104ef82600083610896565b6001600160a01b0384166107eb5760405163e602df0560e01b815260006004820152602401610352565b6001600160a01b03831661081557604051634a1406b160e11b815260006004820152602401610352565b6001600160a01b038085166000908152600160209081526040808320938716835292905220829055801561053e57826001600160a01b0316846001600160a01b03167f8c5be1e5ebec7d5bd14f71427d1e84f3dd0314c0f7b2291e5b200ac8c7c3b9258460405161088891815260200190565b60405180910390a350505050565b6001600160a01b0383166108c15780600260008282546108b69190610b48565b909155506109339050565b6001600160a01b038316600090815260208190526040902054818110156109145760405163391434e360e21b81526001600160a01b03851660048201526024810182905260448101839052606401610352565b6001600160a01b03841660009081526020819052604090209082900390555b6001600160a01b03821661094f5760028054829003905561096e565b6001600160a01b03821660009081526020819052604090208054820190555b816001600160a01b0316836001600160a01b03167fddf252ad1be2c89b69c2b068fc378daa952ba7f163c4a11628f55a4df523b3ef836040516109b391815260200190565b60405180910390a3505050565b80356001600160a01b03811681146109d757600080fd5b919050565b6000602082840312156109ee57600080fd5b6109f7826109c0565b9392505050565b600060208083528351808285015260005b81811015610a2b57858101830151858201604001528201610a0f565b506000604082860101526040601f19601f8301168501019250505092915050565b60008060408385031215610a5f57600080fd5b610a68836109c0565b946020939093013593505050565b600080600060608486031215610a8b57600080fd5b610a94846109c0565b9250610aa2602085016109c0565b9150604084013590509250925092565b60008060408385031215610ac557600080fd5b610ace836109c0565b9150610adc602084016109c0565b90509250929050565b600181811c90821680610af957607f821691505b602082108103610b1957634e487b7160e01b600052602260045260246000fd5b50919050565b634e487b7160e01b600052601160045260246000fd5b8181038181111561043b5761043b610b1f565b8082018082111561043b5761043b610b1f56fea26469706673582212208adf6dc1a4cac880615dbf31f5a67b13e75430c9c77be16d8376e9dfeeddb1b364736f6c63430008140033",
  "linkReferences": {},
  "deployedLinkReferences": {}
}