{
  "_format": "hh-sol-artifact-1",
  "contractName": "Staking",
  "sourceName": "contracts/Staking.sol",
  "abi": [
    {
      "anonymous": false,
      "inputs": [
        {
          "indexed": true,
          "internalType": "address",
          "name": "staker",
          "type": "address"
        },
        {
          "indexed": false,
          "internalType": "uint256",
          "name": "amount",
          "type": "uint256"
        }
      ],
      "name": "RewardsClaimed",
      "type": "event"
    },
    {
      "anonymous": false,
      "inputs": [
        {
          "indexed": true,
          "internalType": "address",
          "name": "staker",
          "type": "address"
        },
        {
          "indexed": false,
          "internalType": "uint256",
          "name": "amount",
          "type": "uint256"
        },
        {
          "indexed": false,
          "internalType": "uint256",
          "name": "duration",
          "type": "uint256"
        }
      ],
      "name": "Staked",
      "type": "event"
    },
    {
      "anonymous": false,
      "inputs": [
        {
          "indexed": true,
          "internalType": "address",
          "name": "staker",
          "type": "address"
        },
        {
          "indexed": false,
          "internalType": "uint256",
          "name": "amount",
          "type": "uint256"
        }
      ],
      "name": "Unstaked",
      "type": "event"
    },
    {
      "inputs": [
        {
          "internalType": "uint256",
          "name": "index",
          "type": "uint256"
        }
      ],
      "name": "getStakerByIndex",
      "outputs": [
        {
          "internalType": "address",
          "name": "",
          "type": "address"
        }
      ],
      "stateMutability": "view",
      "type": "function"
    },
    {
      "inputs": [],
      "name": "getTotalStaked",
      "outputs": [
        {
          "internalType": "uint256",
          "name": "",
          "type": "uint256"
        }
      ],
      "stateMutability": "view",
      "type": "function"
    },
    {
      "inputs": [],
      "name": "getTotalStakedAmmount",
      "outputs": [
        {
          "internalType": "uint256",
          "name": "",
          "type": "uint256"
        }
      ],
      "stateMutability": "view",
      "type": "function"
    },
    {
      "inputs": [
        {
          "internalType": "address",
          "name": "",
          "type": "address"
        },
        {
          "internalType": "uint256",
          "name": "amount",
          "type": "uint256"
        },
        {
          "internalType": "uint256",
          "name": "duration",
          "type": "uint256"
        }
      ],
      "name": "stake",
      "outputs": [],
      "stateMutability": "nonpayable",
      "type": "function"
    },
    {
      "inputs": [
        {
          "internalType": "address",
          "name": "staker",
          "type": "address"
        }
      ],
      "name": "stakedBalance",
      "outputs": [
        {
          "internalType": "uint256",
          "name": "",
          "type": "uint256"
        }
      ],
      "stateMutability": "view",
      "type": "function"
    },
    {
      "inputs": [
        {
          "internalType": "address",
          "name": "",
          "type": "address"
        }
      ],
      "name": "stakedBalances",
      "outputs": [
        {
          "internalType": "uint256",
          "name": "",
          "type": "uint256"
        }
      ],
      "stateMutability": "view",
      "type": "function"
    },
    {
      "inputs": [
        {
          "internalType": "uint256",
          "name": "",
          "type": "uint256"
        }
      ],
      "name": "stakers",
      "outputs": [
        {
          "internalType": "address",
          "name": "",
          "type": "address"
        }
      ],
      "stateMutability": "view",
      "type": "function"
    },
    {
      "inputs": [
        {
          "internalType": "address",
          "name": "staker",
          "type": "address"
        }
      ],
      "name": "stakingDuration",
      "outputs": [
        {
          "internalType": "uint256",
          "name": "",
          "type": "uint256"
        }
      ],
      "stateMutability": "view",
      "type": "function"
    },
    {
      "inputs": [
        {
          "internalType": "address",
          "name": "",
          "type": "address"
        }
      ],
      "name": "stakingDurations",
      "outputs": [
        {
          "internalType": "uint256",
          "name": "",
          "type": "uint256"
        }
      ],
      "stateMutability": "view",
      "type": "function"
    },
    {
      "inputs": [
        {
          "internalType": "address",
          "name": "",
          "type": "address"
        }
      ],
      "name": "stakingTimestamps",
      "outputs": [
        {
          "internalType": "uint256",
          "name": "",
          "type": "uint256"
        }
      ],
      "stateMutability": "view",
      "type": "function"
    },
    {
      "inputs": [],
      "name": "totalStaked",
      "outputs": [
        {
          "internalType": "uint256",
          "name": "",
          "type": "uint256"
        }
      ],
      "stateMutability": "view",
      "type": "function"
    },
    {
      "inputs": [],
      "name": "totalStakedAmmount",
      "outputs": [
        {
          "internalType": "uint256",
          "name": "",
          "type": "uint256"
        }
      ],
      "stateMutability": "view",
      "type": "function"
    },
    {
      "inputs": [
        {
          "internalType": "address",
          "name": "",
          "type": "address"
        },
        {
          "internalType": "uint256",
          "name": "amount",
          "type": "uint256"
        }
      ],
      "name": "unstake",
      "outputs": [],
      "stateMutability": "nonpayable",
      "type": "function"
    }
  ],
  "bytecode": "0x6080604052600060035534801561001557600080fd5b506107fc806100256000396000f3fe608060405234801561001057600080fd5b50600436106100df5760003560e01c8063937b983b1161008c578063d62e06af11610066578063d62e06af146101a6578063dd3fc0f9146101cf578063e06a4727146101fa578063fd5e6dd11461021a57600080fd5b8063937b983b1461016b578063c2a672e01461018b578063cf446b011461019e57600080fd5b80634082d934116100bd5780634082d934146101305780636021726714610139578063817b1cd21461016257600080fd5b80630917e776146100e45780630c51b88f146100fb5780631460fa8714610110575b600080fd5b6003545b6040519081526020015b60405180910390f35b61010e6101093660046106a7565b61022d565b005b6100e861011e3660046106da565b60006020819052908152604090205481565b6100e860045481565b6100e86101473660046106da565b6001600160a01b031660009081526020819052604090205490565b6100e860035481565b6100e86101793660046106da565b60026020526000908152604090205481565b61010e6101993660046106fc565b61039c565b6004546100e8565b6100e86101b43660046106da565b6001600160a01b031660009081526001602052604090205490565b6101e26101dd366004610726565b6104c7565b6040516001600160a01b0390911681526020016100f2565b6100e86102083660046106da565b60016020526000908152604090205481565b6101e2610228366004610726565b610549565b600082116102825760405162461bcd60e51b815260206004820152601d60248201527f416d6f756e74206d7573742062652067726561746572207468616e203000000060448201526064015b60405180910390fd5b3360009081526020819052604081205490036102e857600580546001810182556000919091527f036b6384b5eca791c62761152d0c79bb0604c104a5fb6f4eb0703f3154bb3db001805473ffffffffffffffffffffffffffffffffffffffff1916331790555b3360009081526020819052604081208054849290610307908490610755565b909155505033600090815260016020818152604080842085905560029091528220429055600380549192909161033e908490610755565b9250508190555081600460008282546103579190610755565b9091555050604080518381526020810183905233917f1449c6dd7851abc30abf37f57715f492010519147cc2652fbc38202c18a6ee90910160405180910390a2505050565b600081116103ec5760405162461bcd60e51b815260206004820152601d60248201527f416d6f756e74206d7573742062652067726561746572207468616e20300000006044820152606401610279565b3360009081526020819052604090205481111561044b5760405162461bcd60e51b815260206004820152601b60248201527f496e73756666696369656e74207374616b65642062616c616e636500000000006044820152606401610279565b336000908152602081905260408120805483929061046a90849061076e565b909155505033600090815260208190526040812054900361048e5761048e33610573565b60405181815233907f0f5bb82176feb1b5e747e28471aa92156a04d9f3ab9f45f28e2d704232b93f759060200160405180910390a25050565b600554600090821061051b5760405162461bcd60e51b815260206004820152601360248201527f496e646578206f7574206f6620626f756e6473000000000000000000000000006044820152606401610279565b6005828154811061052e5761052e610781565b6000918252602090912001546001600160a01b031692915050565b6005818154811061055957600080fd5b6000918252602090912001546001600160a01b0316905081565b60005b60055481101561068757816001600160a01b03166005828154811061059d5761059d610781565b6000918252602090912001546001600160a01b03160361067557600580546105c79060019061076e565b815481106105d7576105d7610781565b600091825260209091200154600580546001600160a01b03909216918390811061060357610603610781565b9060005260206000200160006101000a8154816001600160a01b0302191690836001600160a01b03160217905550600580548061064257610642610797565b6000828152602090208101600019908101805473ffffffffffffffffffffffffffffffffffffffff191690550190555050565b8061067f816107ad565b915050610576565b5050565b80356001600160a01b03811681146106a257600080fd5b919050565b6000806000606084860312156106bc57600080fd5b6106c58461068b565b95602085013595506040909401359392505050565b6000602082840312156106ec57600080fd5b6106f58261068b565b9392505050565b6000806040838503121561070f57600080fd5b6107188361068b565b946020939093013593505050565b60006020828403121561073857600080fd5b5035919050565b634e487b7160e01b600052601160045260246000fd5b808201808211156107685761076861073f565b92915050565b818103818111156107685761076861073f565b634e487b7160e01b600052603260045260246000fd5b634e487b7160e01b600052603160045260246000fd5b6000600182016107bf576107bf61073f565b506001019056fea26469706673582212201faaac6bea3cd69fdf10bc18eeae34adfb2ea994ea4070781c60f05a58a4244964736f6c63430008140033",
  "linkReferences": {},
  "deployedLinkReferences": {}
}